{
  "contractName": "Notaria",
  "abi": [
    {
      "inputs": [
        {
          "internalType": "contract IERC20",
          "name": "_token",
          "type": "address"
        }
      ],
      "stateMutability": "nonpayable",
      "type": "constructor"
    },
    {
      "anonymous": false,
      "inputs": [
        {
          "indexed": false,
          "internalType": "uint256",
          "name": "id",
          "type": "uint256"
        },
        {
          "indexed": false,
          "internalType": "uint256",
          "name": "precio",
          "type": "uint256"
        },
        {
          "indexed": false,
          "internalType": "string",
          "name": "nombre",
          "type": "string"
        },
        {
          "indexed": false,
          "internalType": "bool",
          "name": "estado",
          "type": "bool"
        },
        {
          "indexed": false,
          "internalType": "address",
          "name": "owner",
          "type": "address"
        }
      ],
      "name": "DocumentoAdded",
      "type": "event"
    },
    {
      "anonymous": false,
      "inputs": [
        {
          "indexed": false,
          "internalType": "uint256",
          "name": "id",
          "type": "uint256"
        },
        {
          "indexed": false,
          "internalType": "address",
          "name": "owner",
          "type": "address"
        }
      ],
      "name": "DocumentoComprado",
      "type": "event"
    },
    {
      "anonymous": false,
      "inputs": [
        {
          "indexed": false,
          "internalType": "uint256",
          "name": "id",
          "type": "uint256"
        },
        {
          "components": [
            {
              "internalType": "uint256",
              "name": "id",
              "type": "uint256"
            },
            {
              "internalType": "uint256",
              "name": "precio",
              "type": "uint256"
            },
            {
              "internalType": "string",
              "name": "nombre",
              "type": "string"
            },
            {
              "internalType": "bool",
              "name": "estado",
              "type": "bool"
            }
          ],
          "indexed": false,
          "internalType": "struct Notaria.Documento",
          "name": "documento",
          "type": "tuple"
        },
        {
          "indexed": false,
          "internalType": "string",
          "name": "nombre",
          "type": "string"
        },
        {
          "indexed": false,
          "internalType": "address",
          "name": "owner",
          "type": "address"
        },
        {
          "indexed": false,
          "internalType": "uint256",
          "name": "precio",
          "type": "uint256"
        }
      ],
      "name": "DocumentoNotariaAdded",
      "type": "event"
    },
    {
      "anonymous": false,
      "inputs": [
        {
          "indexed": false,
          "internalType": "address",
          "name": "recipient",
          "type": "address"
        }
      ],
      "name": "premioTokenDado",
      "type": "event"
    },
    {
      "inputs": [
        {
          "internalType": "uint256",
          "name": "",
          "type": "uint256"
        }
      ],
      "name": "documentos",
      "outputs": [
        {
          "internalType": "uint256",
          "name": "id",
          "type": "uint256"
        },
        {
          "internalType": "uint256",
          "name": "precio",
          "type": "uint256"
        },
        {
          "internalType": "string",
          "name": "nombre",
          "type": "string"
        },
        {
          "internalType": "bool",
          "name": "estado",
          "type": "bool"
        }
      ],
      "stateMutability": "view",
      "type": "function",
      "constant": true
    },
    {
      "inputs": [
        {
          "internalType": "uint256",
          "name": "",
          "type": "uint256"
        }
      ],
      "name": "documentosNotaria",
      "outputs": [
        {
          "internalType": "uint256",
          "name": "id",
          "type": "uint256"
        },
        {
          "components": [
            {
              "internalType": "uint256",
              "name": "id",
              "type": "uint256"
            },
            {
              "internalType": "uint256",
              "name": "precio",
              "type": "uint256"
            },
            {
              "internalType": "string",
              "name": "nombre",
              "type": "string"
            },
            {
              "internalType": "bool",
              "name": "estado",
              "type": "bool"
            }
          ],
          "internalType": "struct Notaria.Documento",
          "name": "documento",
          "type": "tuple"
        },
        {
          "internalType": "address",
          "name": "owner",
          "type": "address"
        },
        {
          "internalType": "address",
          "name": "destinatario",
          "type": "address"
        },
        {
          "internalType": "uint256",
          "name": "precio",
          "type": "uint256"
        },
        {
          "internalType": "enum Notaria.EstadoDocumentoNotaria",
          "name": "estado",
          "type": "uint8"
        }
      ],
      "stateMutability": "view",
      "type": "function",
      "constant": true
    },
    {
      "inputs": [],
      "name": "documentosNotariaCount",
      "outputs": [
        {
          "internalType": "uint256",
          "name": "",
          "type": "uint256"
        }
      ],
      "stateMutability": "view",
      "type": "function",
      "constant": true
    },
    {
      "inputs": [
        {
          "internalType": "address",
          "name": "",
          "type": "address"
        },
        {
          "internalType": "uint256",
          "name": "",
          "type": "uint256"
        }
      ],
      "name": "documentosNotariaDestinatario",
      "outputs": [
        {
          "internalType": "uint256",
          "name": "id",
          "type": "uint256"
        },
        {
          "components": [
            {
              "internalType": "uint256",
              "name": "id",
              "type": "uint256"
            },
            {
              "internalType": "uint256",
              "name": "precio",
              "type": "uint256"
            },
            {
              "internalType": "string",
              "name": "nombre",
              "type": "string"
            },
            {
              "internalType": "bool",
              "name": "estado",
              "type": "bool"
            }
          ],
          "internalType": "struct Notaria.Documento",
          "name": "documento",
          "type": "tuple"
        },
        {
          "internalType": "address",
          "name": "owner",
          "type": "address"
        },
        {
          "internalType": "address",
          "name": "destinatario",
          "type": "address"
        },
        {
          "internalType": "uint256",
          "name": "precio",
          "type": "uint256"
        },
        {
          "internalType": "enum Notaria.EstadoDocumentoNotaria",
          "name": "estado",
          "type": "uint8"
        }
      ],
      "stateMutability": "view",
      "type": "function",
      "constant": true
    },
    {
      "inputs": [
        {
          "internalType": "address",
          "name": "",
          "type": "address"
        },
        {
          "internalType": "uint256",
          "name": "",
          "type": "uint256"
        }
      ],
      "name": "documentosNotariaEmisor",
      "outputs": [
        {
          "internalType": "uint256",
          "name": "id",
          "type": "uint256"
        },
        {
          "components": [
            {
              "internalType": "uint256",
              "name": "id",
              "type": "uint256"
            },
            {
              "internalType": "uint256",
              "name": "precio",
              "type": "uint256"
            },
            {
              "internalType": "string",
              "name": "nombre",
              "type": "string"
            },
            {
              "internalType": "bool",
              "name": "estado",
              "type": "bool"
            }
          ],
          "internalType": "struct Notaria.Documento",
          "name": "documento",
          "type": "tuple"
        },
        {
          "internalType": "address",
          "name": "owner",
          "type": "address"
        },
        {
          "internalType": "address",
          "name": "destinatario",
          "type": "address"
        },
        {
          "internalType": "uint256",
          "name": "precio",
          "type": "uint256"
        },
        {
          "internalType": "enum Notaria.EstadoDocumentoNotaria",
          "name": "estado",
          "type": "uint8"
        }
      ],
      "stateMutability": "view",
      "type": "function",
      "constant": true
    },
    {
      "inputs": [],
      "name": "documentsCount",
      "outputs": [
        {
          "internalType": "uint256",
          "name": "",
          "type": "uint256"
        }
      ],
      "stateMutability": "view",
      "type": "function",
      "constant": true
    },
    {
      "inputs": [],
      "name": "owner",
      "outputs": [
        {
          "internalType": "address",
          "name": "",
          "type": "address"
        }
      ],
      "stateMutability": "view",
      "type": "function",
      "constant": true
    },
    {
      "inputs": [
        {
          "internalType": "address",
          "name": "",
          "type": "address"
        }
      ],
      "name": "totalDocumentosDestinatario",
      "outputs": [
        {
          "internalType": "uint256",
          "name": "",
          "type": "uint256"
        }
      ],
      "stateMutability": "view",
      "type": "function",
      "constant": true
    },
    {
      "inputs": [
        {
          "internalType": "address",
          "name": "",
          "type": "address"
        }
      ],
      "name": "totalDocumentosEmisor",
      "outputs": [
        {
          "internalType": "uint256",
          "name": "",
          "type": "uint256"
        }
      ],
      "stateMutability": "view",
      "type": "function",
      "constant": true
    },
    {
      "stateMutability": "payable",
      "type": "receive",
      "payable": true
    },
    {
      "inputs": [],
      "name": "ValidaDisponibilidadPremio",
      "outputs": [
        {
          "internalType": "bool",
          "name": "",
          "type": "bool"
        }
      ],
      "stateMutability": "view",
      "type": "function",
      "constant": true
    },
    {
      "inputs": [
        {
          "internalType": "uint256",
          "name": "_precio",
          "type": "uint256"
        },
        {
          "internalType": "string",
          "name": "_nombre",
          "type": "string"
        },
        {
          "internalType": "bool",
          "name": "_estado",
          "type": "bool"
        }
      ],
      "name": "AddDocumento",
      "outputs": [],
      "stateMutability": "payable",
      "type": "function",
      "payable": true
    },
    {
      "inputs": [
        {
          "internalType": "uint256",
          "name": "_idDocumento",
          "type": "uint256"
        },
        {
          "internalType": "uint256",
          "name": "_precio",
          "type": "uint256"
        },
        {
          "internalType": "address",
          "name": "_destinatario",
          "type": "address"
        }
      ],
      "name": "AddDocumentoNotaria",
      "outputs": [
        {
          "internalType": "enum Notaria.EstadoDocumentoNotaria",
          "name": "",
          "type": "uint8"
        }
      ],
      "stateMutability": "payable",
      "type": "function",
      "payable": true
    },
    {
      "inputs": [
        {
          "internalType": "uint256",
          "name": "_idDocumento",
          "type": "uint256"
        }
      ],
      "name": "AceptaDocumentoNotaria",
      "outputs": [
        {
          "internalType": "bool",
          "name": "",
          "type": "bool"
        }
      ],
      "stateMutability": "nonpayable",
      "type": "function"
    },
    {
      "inputs": [
        {
          "internalType": "uint256",
          "name": "_idDocumento",
          "type": "uint256"
        }
      ],
      "name": "FinalizaDocumentoNotaria",
      "outputs": [
        {
          "internalType": "bool",
          "name": "",
          "type": "bool"
        }
      ],
      "stateMutability": "payable",
      "type": "function",
      "payable": true
    },
    {
      "inputs": [
        {
          "internalType": "uint256",
          "name": "_idDocumento",
          "type": "uint256"
        }
      ],
      "name": "RechazaDocumentoNotaria",
      "outputs": [
        {
          "internalType": "bool",
          "name": "",
          "type": "bool"
        }
      ],
      "stateMutability": "payable",
      "type": "function",
      "payable": true
    },
    {
      "inputs": [
        {
          "internalType": "uint256",
          "name": "_idDocumento",
          "type": "uint256"
        }
      ],
      "name": "GetDocumento",
      "outputs": [
        {
          "components": [
            {
              "internalType": "uint256",
              "name": "id",
              "type": "uint256"
            },
            {
              "internalType": "uint256",
              "name": "precio",
              "type": "uint256"
            },
            {
              "internalType": "string",
              "name": "nombre",
              "type": "string"
            },
            {
              "internalType": "bool",
              "name": "estado",
              "type": "bool"
            }
          ],
          "internalType": "struct Notaria.Documento",
          "name": "doc",
          "type": "tuple"
        }
      ],
      "stateMutability": "view",
      "type": "function",
      "constant": true
    },
    {
      "inputs": [
        {
          "internalType": "uint256",
          "name": "_idDocumento",
          "type": "uint256"
        }
      ],
      "name": "GetDocumentoNotaria",
      "outputs": [
        {
          "components": [
            {
              "internalType": "uint256",
              "name": "id",
              "type": "uint256"
            },
            {
              "components": [
                {
                  "internalType": "uint256",
                  "name": "id",
                  "type": "uint256"
                },
                {
                  "internalType": "uint256",
                  "name": "precio",
                  "type": "uint256"
                },
                {
                  "internalType": "string",
                  "name": "nombre",
                  "type": "string"
                },
                {
                  "internalType": "bool",
                  "name": "estado",
                  "type": "bool"
                }
              ],
              "internalType": "struct Notaria.Documento",
              "name": "documento",
              "type": "tuple"
            },
            {
              "internalType": "address",
              "name": "owner",
              "type": "address"
            },
            {
              "internalType": "address",
              "name": "destinatario",
              "type": "address"
            },
            {
              "internalType": "uint256",
              "name": "precio",
              "type": "uint256"
            },
            {
              "internalType": "enum Notaria.EstadoDocumentoNotaria",
              "name": "estado",
              "type": "uint8"
            }
          ],
          "internalType": "struct Notaria.DocumentoNotaria",
          "name": "doc",
          "type": "tuple"
        }
      ],
      "stateMutability": "view",
      "type": "function",
      "constant": true
    },
    {
      "inputs": [
        {
          "internalType": "uint256",
          "name": "_idDocumento",
          "type": "uint256"
        },
        {
          "internalType": "address",
          "name": "_direccion",
          "type": "address"
        }
      ],
      "name": "GetDocumentoNotariaEmisor",
      "outputs": [
        {
          "components": [
            {
              "internalType": "uint256",
              "name": "id",
              "type": "uint256"
            },
            {
              "components": [
                {
                  "internalType": "uint256",
                  "name": "id",
                  "type": "uint256"
                },
                {
                  "internalType": "uint256",
                  "name": "precio",
                  "type": "uint256"
                },
                {
                  "internalType": "string",
                  "name": "nombre",
                  "type": "string"
                },
                {
                  "internalType": "bool",
                  "name": "estado",
                  "type": "bool"
                }
              ],
              "internalType": "struct Notaria.Documento",
              "name": "documento",
              "type": "tuple"
            },
            {
              "internalType": "address",
              "name": "owner",
              "type": "address"
            },
            {
              "internalType": "address",
              "name": "destinatario",
              "type": "address"
            },
            {
              "internalType": "uint256",
              "name": "precio",
              "type": "uint256"
            },
            {
              "internalType": "enum Notaria.EstadoDocumentoNotaria",
              "name": "estado",
              "type": "uint8"
            }
          ],
          "internalType": "struct Notaria.DocumentoNotaria",
          "name": "doc",
          "type": "tuple"
        }
      ],
      "stateMutability": "view",
      "type": "function",
      "constant": true
    },
    {
      "inputs": [
        {
          "internalType": "uint256",
          "name": "_idDocumento",
          "type": "uint256"
        },
        {
          "internalType": "address",
          "name": "_direccion",
          "type": "address"
        }
      ],
      "name": "GetDocumentoNotariaDestinatario",
      "outputs": [
        {
          "components": [
            {
              "internalType": "uint256",
              "name": "id",
              "type": "uint256"
            },
            {
              "components": [
                {
                  "internalType": "uint256",
                  "name": "id",
                  "type": "uint256"
                },
                {
                  "internalType": "uint256",
                  "name": "precio",
                  "type": "uint256"
                },
                {
                  "internalType": "string",
                  "name": "nombre",
                  "type": "string"
                },
                {
                  "internalType": "bool",
                  "name": "estado",
                  "type": "bool"
                }
              ],
              "internalType": "struct Notaria.Documento",
              "name": "documento",
              "type": "tuple"
            },
            {
              "internalType": "address",
              "name": "owner",
              "type": "address"
            },
            {
              "internalType": "address",
              "name": "destinatario",
              "type": "address"
            },
            {
              "internalType": "uint256",
              "name": "precio",
              "type": "uint256"
            },
            {
              "internalType": "enum Notaria.EstadoDocumentoNotaria",
              "name": "estado",
              "type": "uint8"
            }
          ],
          "internalType": "struct Notaria.DocumentoNotaria",
          "name": "doc",
          "type": "tuple"
        }
      ],
      "stateMutability": "view",
      "type": "function",
      "constant": true
    },
    {
      "inputs": [],
      "name": "GetOwner",
      "outputs": [
        {
          "internalType": "address",
          "name": "",
          "type": "address"
        }
      ],
      "stateMutability": "view",
      "type": "function",
      "constant": true
    }
  ],
  "bytecode": "0x6080604052600060015560006002553480156200001b57600080fd5b5060405162003b2a38038062003b2a8339818101604052810190620000419190620000e0565b80600360006101000a81548173ffffffffffffffffffffffffffffffffffffffff021916908373ffffffffffffffffffffffffffffffffffffffff160217905550336000806101000a81548173ffffffffffffffffffffffffffffffffffffffff021916908373ffffffffffffffffffffffffffffffffffffffff160217905550506200016e565b600081519050620000da8162000154565b92915050565b600060208284031215620000f357600080fd5b60006200010384828501620000c9565b91505092915050565b6000620001198262000134565b9050919050565b60006200012d826200010c565b9050919050565b600073ffffffffffffffffffffffffffffffffffffffff82169050919050565b6200015f8162000120565b81146200016b57600080fd5b50565b6139ac806200017e6000396000f3fe6080604052600436106101235760003560e01c80638da5cb5b116100a0578063c67dbe8c11610064578063c67dbe8c14610442578063cddb534d14610484578063d99b73d8146104c1578063f6556d3b146104f1578063fb699fa3146105335761012a565b80638da5cb5b1461034457806395e52d981461036f578063b5732a961461039a578063b908db70146103d7578063bb674f20146104025761012a565b80633166aa9b116100e75780633166aa9b146102325780633bfa2e241461026f57806351a8cf901461029f5780635dc74f78146102ca5780638d9520e6146103075761012a565b80630ae50a391461012f578063194e19b01461015a5780631beeba561461019c5780631c03fafc146101d95780632c62c7be146102165761012a565b3661012a57005b600080fd5b34801561013b57600080fd5b50610144610563565b604051610151919061333f565b60405180910390f35b34801561016657600080fd5b50610181600480360381019061017c9190612bc3565b61058c565b60405161019396959493929190613578565b60405180910390f35b3480156101a857600080fd5b506101c360048036038101906101be9190612bc3565b6106e0565b6040516101d0919061353b565b60405180910390f35b3480156101e557600080fd5b5061020060048036038101906101fb9190612b35565b6107ce565b60405161020d919061355d565b60405180910390f35b610230600480360381019061022b9190612c51565b6107e6565b005b34801561023e57600080fd5b5061025960048036038101906102549190612c15565b6109a4565b6040516102669190613519565b60405180910390f35b61028960048036038101906102849190612bc3565b610c2b565b6040516102969190613383565b60405180910390f35b3480156102ab57600080fd5b506102b46110a4565b6040516102c19190613383565b60405180910390f35b3480156102d657600080fd5b506102f160048036038101906102ec9190612bc3565b61116f565b6040516102fe9190613519565b60405180910390f35b34801561031357600080fd5b5061032e60048036038101906103299190612bc3565b6113b8565b60405161033b9190613383565b60405180910390f35b34801561035057600080fd5b50610359611776565b604051610366919061333f565b60405180910390f35b34801561037b57600080fd5b5061038461179a565b604051610391919061355d565b60405180910390f35b3480156103a657600080fd5b506103c160048036038101906103bc9190612c15565b6117a0565b6040516103ce9190613519565b60405180910390f35b3480156103e357600080fd5b506103ec611a27565b6040516103f9919061355d565b60405180910390f35b34801561040e57600080fd5b5061042960048036038101906104249190612bc3565b611a2d565b60405161043994939291906135e0565b60405180910390f35b34801561044e57600080fd5b5061046960048036038101906104649190612b5e565b611af2565b60405161047b96959493929190613578565b60405180910390f35b34801561049057600080fd5b506104ab60048036038101906104a69190612b35565b611c53565b6040516104b8919061355d565b60405180910390f35b6104db60048036038101906104d69190612bc3565b611c6b565b6040516104e89190613383565b60405180910390f35b3480156104fd57600080fd5b5061051860048036038101906105139190612b5e565b611d83565b60405161052a96959493929190613578565b60405180910390f35b61054d60048036038101906105489190612cb8565b611ee4565b60405161055a919061339e565b60405180910390f35b60008060009054906101000a900473ffffffffffffffffffffffffffffffffffffffff16905090565b60076020528060005260406000206000915090508060000154908060010160405180608001604052908160008201548152602001600182015481526020016002820180546105d9906137d5565b80601f0160208091040260200160405190810160405280929190818152602001828054610605906137d5565b80156106525780601f1061062757610100808354040283529160200191610652565b820191906000526020600020905b81548152906001019060200180831161063557829003601f168201915b505050505081526020016003820160009054906101000a900460ff161515151581525050908060050160009054906101000a900473ffffffffffffffffffffffffffffffffffffffff16908060060160009054906101000a900473ffffffffffffffffffffffffffffffffffffffff16908060070154908060080160009054906101000a900460ff16905086565b6106e86128f7565b60046000838152602001908152602001600020604051806080016040529081600082015481526020016001820154815260200160028201805461072a906137d5565b80601f0160208091040260200160405190810160405280929190818152602001828054610756906137d5565b80156107a35780601f10610778576101008083540402835291602001916107a3565b820191906000526020600020905b81548152906001019060200180831161078657829003601f168201915b505050505081526020016003820160009054906101000a900460ff1615151515815250509050919050565b60066020528060005260406000206000915090505481565b60008054906101000a900473ffffffffffffffffffffffffffffffffffffffff1673ffffffffffffffffffffffffffffffffffffffff163373ffffffffffffffffffffffffffffffffffffffff1614610874576040517f08c379a000000000000000000000000000000000000000000000000000000000815260040161086b90613459565b60405180910390fd5b60008251116108b8576040517f08c379a00000000000000000000000000000000000000000000000000000000081526004016108af90613419565b60405180910390fd5b600160008154809291906108cb90613807565b9190505550604051806080016040528060015481526020018481526020018381526020018215158152506004600060015481526020019081526020016000206000820151816000015560208201518160010155604082015181600201908051906020019061093a929190612921565b5060608201518160030160006101000a81548160ff0219169083151502179055509050507f5d11aed1842005d2aad4bd5cd443eb580b0abd53c28f7b77bfeef1b321ee594e6001548484843360405161099795949392919061362c565b60405180910390a1505050565b6109ac6129a7565b600860008373ffffffffffffffffffffffffffffffffffffffff1673ffffffffffffffffffffffffffffffffffffffff16815260200190815260200160002060008481526020019081526020016000206040518060c001604052908160008201548152602001600182016040518060800160405290816000820154815260200160018201548152602001600282018054610a45906137d5565b80601f0160208091040260200160405190810160405280929190818152602001828054610a71906137d5565b8015610abe5780601f10610a9357610100808354040283529160200191610abe565b820191906000526020600020905b815481529060010190602001808311610aa157829003601f168201915b505050505081526020016003820160009054906101000a900460ff16151515158152505081526020016005820160009054906101000a900473ffffffffffffffffffffffffffffffffffffffff1673ffffffffffffffffffffffffffffffffffffffff1673ffffffffffffffffffffffffffffffffffffffff1681526020016006820160009054906101000a900473ffffffffffffffffffffffffffffffffffffffff1673ffffffffffffffffffffffffffffffffffffffff1673ffffffffffffffffffffffffffffffffffffffff168152602001600782015481526020016008820160009054906101000a900460ff166002811115610be7577f4e487b7100000000000000000000000000000000000000000000000000000000600052602160045260246000fd5b6002811115610c1f577f4e487b7100000000000000000000000000000000000000000000000000000000600052602160045260246000fd5b81525050905092915050565b600080610c378361116f565b905080608001513411610c7f576040517f08c379a0000000000000000000000000000000000000000000000000000000008152600401610c76906134b9565b60405180910390fd5b60016002811115610cb9577f4e487b7100000000000000000000000000000000000000000000000000000000600052602160045260246000fd5b8160a001516002811115610cf6577f4e487b7100000000000000000000000000000000000000000000000000000000600052602160045260246000fd5b14610d0057600080fd5b3373ffffffffffffffffffffffffffffffffffffffff16816060015173ffffffffffffffffffffffffffffffffffffffff1614610d72576040517f08c379a0000000000000000000000000000000000000000000000000000000008152600401610d69906133f9565b60405180910390fd5b8060800151341015610db9576040517f08c379a0000000000000000000000000000000000000000000000000000000008152600401610db090613479565b60405180910390fd5b60026007600085815260200190815260200160002060080160006101000a81548160ff02191690836002811115610e19577f4e487b7100000000000000000000000000000000000000000000000000000000600052602160045260246000fd5b02179055506002600960003373ffffffffffffffffffffffffffffffffffffffff1673ffffffffffffffffffffffffffffffffffffffff168152602001908152602001600020600085815260200190815260200160002060080160006101000a81548160ff02191690836002811115610ebb577f4e487b7100000000000000000000000000000000000000000000000000000000600052602160045260246000fd5b0217905550806060015173ffffffffffffffffffffffffffffffffffffffff1660086000836040015173ffffffffffffffffffffffffffffffffffffffff1673ffffffffffffffffffffffffffffffffffffffff168152602001908152602001600020600085815260200190815260200160002060060160009054906101000a900473ffffffffffffffffffffffffffffffffffffffff1673ffffffffffffffffffffffffffffffffffffffff1614610fa9576040517f08c379a0000000000000000000000000000000000000000000000000000000008152600401610fa090613439565b60405180910390fd5b600260086000836040015173ffffffffffffffffffffffffffffffffffffffff1673ffffffffffffffffffffffffffffffffffffffff168152602001908152602001600020600085815260200190815260200160002060080160006101000a81548160ff0219169083600281111561104a577f4e487b7100000000000000000000000000000000000000000000000000000000600052602160045260246000fd5b0217905550806040015173ffffffffffffffffffffffffffffffffffffffff166108fc349081150290604051600060405180830381858888f19350505050158015611099573d6000803e3d6000fd5b506001915050919050565b600080600360009054906101000a900473ffffffffffffffffffffffffffffffffffffffff1673ffffffffffffffffffffffffffffffffffffffff166370a08231306040518263ffffffff1660e01b8152600401611102919061333f565b60206040518083038186803b15801561111a57600080fd5b505afa15801561112e573d6000803e3d6000fd5b505050506040513d601f19601f820116820180604052508101906111529190612bec565b9050600a811061116657600191505061116c565b60009150505b90565b6111776129a7565b600760008381526020019081526020016000206040518060c0016040529081600082015481526020016001820160405180608001604052908160008201548152602001600182015481526020016002820180546111d3906137d5565b80601f01602080910402602001604051908101604052809291908181526020018280546111ff906137d5565b801561124c5780601f106112215761010080835404028352916020019161124c565b820191906000526020600020905b81548152906001019060200180831161122f57829003601f168201915b505050505081526020016003820160009054906101000a900460ff16151515158152505081526020016005820160009054906101000a900473ffffffffffffffffffffffffffffffffffffffff1673ffffffffffffffffffffffffffffffffffffffff1673ffffffffffffffffffffffffffffffffffffffff1681526020016006820160009054906101000a900473ffffffffffffffffffffffffffffffffffffffff1673ffffffffffffffffffffffffffffffffffffffff1673ffffffffffffffffffffffffffffffffffffffff168152602001600782015481526020016008820160009054906101000a900460ff166002811115611375577f4e487b7100000000000000000000000000000000000000000000000000000000600052602160045260246000fd5b60028111156113ad577f4e487b7100000000000000000000000000000000000000000000000000000000600052602160045260246000fd5b815250509050919050565b6000806113c48361116f565b905060006002811115611400577f4e487b7100000000000000000000000000000000000000000000000000000000600052602160045260246000fd5b8160a00151600281111561143d577f4e487b7100000000000000000000000000000000000000000000000000000000600052602160045260246000fd5b1461144757600080fd5b3373ffffffffffffffffffffffffffffffffffffffff16816060015173ffffffffffffffffffffffffffffffffffffffff16146114b9576040517f08c379a00000000000000000000000000000000000000000000000000000000081526004016114b0906134f9565b60405180910390fd5b60016007600085815260200190815260200160002060080160006101000a81548160ff02191690836002811115611519577f4e487b7100000000000000000000000000000000000000000000000000000000600052602160045260246000fd5b02179055506001600960003373ffffffffffffffffffffffffffffffffffffffff1673ffffffffffffffffffffffffffffffffffffffff168152602001908152602001600020600085815260200190815260200160002060080160006101000a81548160ff021916908360028111156115bb577f4e487b7100000000000000000000000000000000000000000000000000000000600052602160045260246000fd5b0217905550806060015173ffffffffffffffffffffffffffffffffffffffff1660086000836040015173ffffffffffffffffffffffffffffffffffffffff1673ffffffffffffffffffffffffffffffffffffffff168152602001908152602001600020600085815260200190815260200160002060060160009054906101000a900473ffffffffffffffffffffffffffffffffffffffff1673ffffffffffffffffffffffffffffffffffffffff16146116a9576040517f08c379a00000000000000000000000000000000000000000000000000000000081526004016116a090613439565b60405180910390fd5b600160086000836040015173ffffffffffffffffffffffffffffffffffffffff1673ffffffffffffffffffffffffffffffffffffffff168152602001908152602001600020600085815260200190815260200160002060080160006101000a81548160ff0219169083600281111561174a577f4e487b7100000000000000000000000000000000000000000000000000000000600052602160045260246000fd5b02179055506001151561175b6110a4565b1515141561176c5761176b612719565b5b6001915050919050565b60008054906101000a900473ffffffffffffffffffffffffffffffffffffffff1681565b60015481565b6117a86129a7565b600960008373ffffffffffffffffffffffffffffffffffffffff1673ffffffffffffffffffffffffffffffffffffffff16815260200190815260200160002060008481526020019081526020016000206040518060c001604052908160008201548152602001600182016040518060800160405290816000820154815260200160018201548152602001600282018054611841906137d5565b80601f016020809104026020016040519081016040528092919081815260200182805461186d906137d5565b80156118ba5780601f1061188f576101008083540402835291602001916118ba565b820191906000526020600020905b81548152906001019060200180831161189d57829003601f168201915b505050505081526020016003820160009054906101000a900460ff16151515158152505081526020016005820160009054906101000a900473ffffffffffffffffffffffffffffffffffffffff1673ffffffffffffffffffffffffffffffffffffffff1673ffffffffffffffffffffffffffffffffffffffff1681526020016006820160009054906101000a900473ffffffffffffffffffffffffffffffffffffffff1673ffffffffffffffffffffffffffffffffffffffff1673ffffffffffffffffffffffffffffffffffffffff168152602001600782015481526020016008820160009054906101000a900460ff1660028111156119e3577f4e487b7100000000000000000000000000000000000000000000000000000000600052602160045260246000fd5b6002811115611a1b577f4e487b7100000000000000000000000000000000000000000000000000000000600052602160045260246000fd5b81525050905092915050565b60025481565b6004602052806000526040600020600091509050806000015490806001015490806002018054611a5c906137d5565b80601f0160208091040260200160405190810160405280929190818152602001828054611a88906137d5565b8015611ad55780601f10611aaa57610100808354040283529160200191611ad5565b820191906000526020600020905b815481529060010190602001808311611ab857829003601f168201915b5050505050908060030160009054906101000a900460ff16905084565b600960205281600052604060002060205280600052604060002060009150915050806000015490806001016040518060800160405290816000820154815260200160018201548152602001600282018054611b4c906137d5565b80601f0160208091040260200160405190810160405280929190818152602001828054611b78906137d5565b8015611bc55780601f10611b9a57610100808354040283529160200191611bc5565b820191906000526020600020905b815481529060010190602001808311611ba857829003601f168201915b505050505081526020016003820160009054906101000a900460ff161515151581525050908060050160009054906101000a900473ffffffffffffffffffffffffffffffffffffffff16908060060160009054906101000a900473ffffffffffffffffffffffffffffffffffffffff16908060070154908060080160009054906101000a900460ff16905086565b60056020528060005260406000206000915090505481565b600080611c778361116f565b905060016002811115611cb3577f4e487b7100000000000000000000000000000000000000000000000000000000600052602160045260246000fd5b8160a001516002811115611cf0577f4e487b7100000000000000000000000000000000000000000000000000000000600052602160045260246000fd5b1480611d70575060006002811115611d31577f4e487b7100000000000000000000000000000000000000000000000000000000600052602160045260246000fd5b8160a001516002811115611d6e577f4e487b7100000000000000000000000000000000000000000000000000000000600052602160045260246000fd5b145b611d7957600080fd5b6001915050919050565b600860205281600052604060002060205280600052604060002060009150915050806000015490806001016040518060800160405290816000820154815260200160018201548152602001600282018054611ddd906137d5565b80601f0160208091040260200160405190810160405280929190818152602001828054611e09906137d5565b8015611e565780601f10611e2b57610100808354040283529160200191611e56565b820191906000526020600020905b815481529060010190602001808311611e3957829003601f168201915b505050505081526020016003820160009054906101000a900460ff161515151581525050908060050160009054906101000a900473ffffffffffffffffffffffffffffffffffffffff16908060060160009054906101000a900473ffffffffffffffffffffffffffffffffffffffff16908060070154908060080160009054906101000a900460ff16905086565b60008073ffffffffffffffffffffffffffffffffffffffff163373ffffffffffffffffffffffffffffffffffffffff161415611f55576040517f08c379a0000000000000000000000000000000000000000000000000000000008152600401611f4c906133d9565b60405180910390fd5b8173ffffffffffffffffffffffffffffffffffffffff163373ffffffffffffffffffffffffffffffffffffffff161415611fc4576040517f08c379a0000000000000000000000000000000000000000000000000000000008152600401611fbb90613499565b60405180910390fd5b6000600460008681526020019081526020016000206040518060800160405290816000820154815260200160018201548152602001600282018054612008906137d5565b80601f0160208091040260200160405190810160405280929190818152602001828054612034906137d5565b80156120815780601f1061205657610100808354040283529160200191612081565b820191906000526020600020905b81548152906001019060200180831161206457829003601f168201915b505050505081526020016003820160009054906101000a900460ff161515151581525050905060008160000151116120ee576040517f08c379a00000000000000000000000000000000000000000000000000000000081526004016120e5906133b9565b60405180910390fd5b6002600081548092919061210190613807565b919050555060006040518060c0016040528060025481526020018381526020013373ffffffffffffffffffffffffffffffffffffffff1681526020018573ffffffffffffffffffffffffffffffffffffffff16815260200186815260200160006002811115612199577f4e487b7100000000000000000000000000000000000000000000000000000000600052602160045260246000fd5b81525090508060076000600254815260200190815260200160002060008201518160000155602082015181600101600082015181600001556020820151816001015560408201518160020190805190602001906121f7929190612921565b5060608201518160030160006101000a81548160ff021916908315150217905550505060408201518160050160006101000a81548173ffffffffffffffffffffffffffffffffffffffff021916908373ffffffffffffffffffffffffffffffffffffffff16021790555060608201518160060160006101000a81548173ffffffffffffffffffffffffffffffffffffffff021916908373ffffffffffffffffffffffffffffffffffffffff1602179055506080820151816007015560a08201518160080160006101000a81548160ff02191690836002811115612303577f4e487b7100000000000000000000000000000000000000000000000000000000600052602160045260246000fd5b0217905550905050600560003373ffffffffffffffffffffffffffffffffffffffff1673ffffffffffffffffffffffffffffffffffffffff168152602001908152602001600020600081548092919061235b90613807565b9190505550600660008573ffffffffffffffffffffffffffffffffffffffff1673ffffffffffffffffffffffffffffffffffffffff16815260200190815260200160002060008154809291906123b090613807565b919050555080600860003373ffffffffffffffffffffffffffffffffffffffff1673ffffffffffffffffffffffffffffffffffffffff16815260200190815260200160002060006002548152602001908152602001600020600082015181600001556020820151816001016000820151816000015560208201518160010155604082015181600201908051906020019061244b929190612921565b5060608201518160030160006101000a81548160ff021916908315150217905550505060408201518160050160006101000a81548173ffffffffffffffffffffffffffffffffffffffff021916908373ffffffffffffffffffffffffffffffffffffffff16021790555060608201518160060160006101000a81548173ffffffffffffffffffffffffffffffffffffffff021916908373ffffffffffffffffffffffffffffffffffffffff1602179055506080820151816007015560a08201518160080160006101000a81548160ff02191690836002811115612557577f4e487b7100000000000000000000000000000000000000000000000000000000600052602160045260246000fd5b021790555090505080600960008673ffffffffffffffffffffffffffffffffffffffff1673ffffffffffffffffffffffffffffffffffffffff1681526020019081526020016000206000600254815260200190815260200160002060008201518160000155602082015181600101600082015181600001556020820151816001015560408201518160020190805190602001906125f5929190612921565b5060608201518160030160006101000a81548160ff021916908315150217905550505060408201518160050160006101000a81548173ffffffffffffffffffffffffffffffffffffffff021916908373ffffffffffffffffffffffffffffffffffffffff16021790555060608201518160060160006101000a81548173ffffffffffffffffffffffffffffffffffffffff021916908373ffffffffffffffffffffffffffffffffffffffff1602179055506080820151816007015560a08201518160080160006101000a81548160ff02191690836002811115612701577f4e487b7100000000000000000000000000000000000000000000000000000000600052602160045260246000fd5b02179055509050508060a00151925050509392505050565b6000600360009054906101000a900473ffffffffffffffffffffffffffffffffffffffff1673ffffffffffffffffffffffffffffffffffffffff166370a08231306040518263ffffffff1660e01b8152600401612776919061333f565b60206040518083038186803b15801561278e57600080fd5b505afa1580156127a2573d6000803e3d6000fd5b505050506040513d601f19601f820116820180604052508101906127c69190612bec565b9050600a81101561280c576040517f08c379a0000000000000000000000000000000000000000000000000000000008152600401612803906134d9565b60405180910390fd5b600360009054906101000a900473ffffffffffffffffffffffffffffffffffffffff1673ffffffffffffffffffffffffffffffffffffffff1663a9059cbb33600a6040518363ffffffff1660e01b815260040161286a92919061335a565b602060405180830381600087803b15801561288457600080fd5b505af1158015612898573d6000803e3d6000fd5b505050506040513d601f19601f820116820180604052508101906128bc9190612b9a565b507f7f1b1d4c13ec5ec7f238dce036cc6fa16068f0b9013ca915898afa496daac0ad336040516128ec919061333f565b60405180910390a150565b60405180608001604052806000815260200160008152602001606081526020016000151581525090565b82805461292d906137d5565b90600052602060002090601f01602090048101928261294f5760008555612996565b82601f1061296857805160ff1916838001178555612996565b82800160010185558215612996579182015b8281111561299557825182559160200191906001019061297a565b5b5090506129a39190612a47565b5090565b6040518060c00160405280600081526020016129c16128f7565b8152602001600073ffffffffffffffffffffffffffffffffffffffff168152602001600073ffffffffffffffffffffffffffffffffffffffff1681526020016000815260200160006002811115612a41577f4e487b7100000000000000000000000000000000000000000000000000000000600052602160045260246000fd5b81525090565b5b80821115612a60576000816000905550600101612a48565b5090565b6000612a77612a72846136b7565b613686565b905082815260208101848484011115612a8f57600080fd5b612a9a848285613793565b509392505050565b600081359050612ab181613931565b92915050565b600081359050612ac681613948565b92915050565b600081519050612adb81613948565b92915050565b600082601f830112612af257600080fd5b8135612b02848260208601612a64565b91505092915050565b600081359050612b1a8161395f565b92915050565b600081519050612b2f8161395f565b92915050565b600060208284031215612b4757600080fd5b6000612b5584828501612aa2565b91505092915050565b60008060408385031215612b7157600080fd5b6000612b7f85828601612aa2565b9250506020612b9085828601612b0b565b9150509250929050565b600060208284031215612bac57600080fd5b6000612bba84828501612acc565b91505092915050565b600060208284031215612bd557600080fd5b6000612be384828501612b0b565b91505092915050565b600060208284031215612bfe57600080fd5b6000612c0c84828501612b20565b91505092915050565b60008060408385031215612c2857600080fd5b6000612c3685828601612b0b565b9250506020612c4785828601612aa2565b9150509250929050565b600080600060608486031215612c6657600080fd5b6000612c7486828701612b0b565b935050602084013567ffffffffffffffff811115612c9157600080fd5b612c9d86828701612ae1565b9250506040612cae86828701612ab7565b9150509250925092565b600080600060608486031215612ccd57600080fd5b6000612cdb86828701612b0b565b9350506020612cec86828701612b0b565b9250506040612cfd86828701612aa2565b9150509250925092565b612d1081613714565b82525050565b612d1f81613714565b82525050565b612d2e81613726565b82525050565b612d3d81613726565b82525050565b612d4c8161376f565b82525050565b612d5b8161376f565b82525050565b612d6a81613781565b82525050565b6000612d7b826136e7565b612d8581856136f2565b9350612d958185602086016137a2565b612d9e8161390c565b840191505092915050565b6000612db4826136e7565b612dbe8185613703565b9350612dce8185602086016137a2565b612dd78161390c565b840191505092915050565b6000612def602c83613703565b91507f456c20646f63756d656e746f206e6f2065786973746520656e206e756573747260008301527f6f7320726567697374726f7300000000000000000000000000000000000000006020830152604082019050919050565b6000612e55601f83613703565b91507f456c2064657374696e61746172696f2064656265207365722076616c69646f006000830152602082019050919050565b6000612e95603c83613703565b91507f536f6c6f20656c2064657374696e61746172696f20707565646520416363656460008301527f657220616c207061676f206465206573746520446f63756d656e746f000000006020830152604082019050919050565b6000612efb602483613703565b91507f456c206e6f6d62726520646562652074656e657220756e206c6172676f206d6960008301527f6e696d6f000000000000000000000000000000000000000000000000000000006020830152604082019050919050565b6000612f61602c83613703565b91507f456c2064657374696e61746172696f206e6f20636f696e6369646520636f6e2060008301527f656c206465206f726967656e00000000000000000000000000000000000000006020830152604082019050919050565b6000612fc7602a83613703565b91507f46756e63696f6e616c6964616420736f6c6f207065726d69746964612070617260008301527f6120656c206f776e6572000000000000000000000000000000000000000000006020830152604082019050919050565b600061302d603183613703565b91507f456c206d6f6e746f20656e766961646f206465626520736572206d61796f722060008301527f6f20696775616c20616c2070726563696f0000000000000000000000000000006020830152604082019050919050565b6000613093603983613703565b91507f456c20656d69736f722064656c20646f63756d656e746f20646562652073657260008301527f2064697374696e746f20616c2064657374696e61746172696f000000000000006020830152604082019050919050565b60006130f9601283613703565b91507f4d6f6e746f20696e737566696369656e746500000000000000000000000000006000830152602082019050919050565b6000613139601983613703565b91507f4e6f2068617920737566696369656e74657320746f6b656e73000000000000006000830152602082019050919050565b6000613179602f83613703565b91507f536f6c6f20656c2064657374696e61746172696f20707565646520616365707460008301527f617220656c20446f63756d656e746f00000000000000000000000000000000006020830152604082019050919050565b600060c0830160008301516131ea6000860182613321565b5060208301518482036020860152613202828261325b565b91505060408301516132176040860182612d07565b50606083015161322a6060860182612d07565b50608083015161323d6080860182613321565b5060a083015161325060a0860182612d43565b508091505092915050565b60006080830160008301516132736000860182613321565b5060208301516132866020860182613321565b506040830151848203604086015261329e8282612d70565b91505060608301516132b36060860182612d25565b508091505092915050565b60006080830160008301516132d66000860182613321565b5060208301516132e96020860182613321565b50604083015184820360408601526133018282612d70565b91505060608301516133166060860182612d25565b508091505092915050565b61332a81613765565b82525050565b61333981613765565b82525050565b60006020820190506133546000830184612d16565b92915050565b600060408201905061336f6000830185612d16565b61337c6020830184612d61565b9392505050565b60006020820190506133986000830184612d34565b92915050565b60006020820190506133b36000830184612d52565b92915050565b600060208201905081810360008301526133d281612de2565b9050919050565b600060208201905081810360008301526133f281612e48565b9050919050565b6000602082019050818103600083015261341281612e88565b9050919050565b6000602082019050818103600083015261343281612eee565b9050919050565b6000602082019050818103600083015261345281612f54565b9050919050565b6000602082019050818103600083015261347281612fba565b9050919050565b6000602082019050818103600083015261349281613020565b9050919050565b600060208201905081810360008301526134b281613086565b9050919050565b600060208201905081810360008301526134d2816130ec565b9050919050565b600060208201905081810360008301526134f28161312c565b9050919050565b600060208201905081810360008301526135128161316c565b9050919050565b6000602082019050818103600083015261353381846131d2565b905092915050565b6000602082019050818103600083015261355581846132be565b905092915050565b60006020820190506135726000830184613330565b92915050565b600060c08201905061358d6000830189613330565b818103602083015261359f81886132be565b90506135ae6040830187612d16565b6135bb6060830186612d16565b6135c86080830185613330565b6135d560a0830184612d52565b979650505050505050565b60006080820190506135f56000830187613330565b6136026020830186613330565b81810360408301526136148185612da9565b90506136236060830184612d34565b95945050505050565b600060a0820190506136416000830188613330565b61364e6020830187613330565b81810360408301526136608186612da9565b905061366f6060830185612d34565b61367c6080830184612d16565b9695505050505050565b6000604051905081810181811067ffffffffffffffff821117156136ad576136ac6138dd565b5b8060405250919050565b600067ffffffffffffffff8211156136d2576136d16138dd565b5b601f19601f8301169050602081019050919050565b600081519050919050565b600082825260208201905092915050565b600082825260208201905092915050565b600061371f82613745565b9050919050565b60008115159050919050565b60008190506137408261391d565b919050565b600073ffffffffffffffffffffffffffffffffffffffff82169050919050565b6000819050919050565b600061377a82613732565b9050919050565b600061378c82613765565b9050919050565b82818337600083830152505050565b60005b838110156137c05780820151818401526020810190506137a5565b838111156137cf576000848401525b50505050565b600060028204905060018216806137ed57607f821691505b60208210811415613801576138006138ae565b5b50919050565b600061381282613765565b91507fffffffffffffffffffffffffffffffffffffffffffffffffffffffffffffffff82141561384557613844613850565b5b600182019050919050565b7f4e487b7100000000000000000000000000000000000000000000000000000000600052601160045260246000fd5b7f4e487b7100000000000000000000000000000000000000000000000000000000600052602160045260246000fd5b7f4e487b7100000000000000000000000000000000000000000000000000000000600052602260045260246000fd5b7f4e487b7100000000000000000000000000000000000000000000000000000000600052604160045260246000fd5b6000601f19601f8301169050919050565b6003811061392e5761392d61387f565b5b50565b61393a81613714565b811461394557600080fd5b50565b61395181613726565b811461395c57600080fd5b50565b61396881613765565b811461397357600080fd5b5056fea2646970667358221220ad8452843d1bbc3945a6294e0070da6051f4d0fcbdab3399711df4d08613c4cb64736f6c63430008000033",
  "immutableReferences": {},
  "source": "// SPDX-License-Identifier: MIT\r\npragma solidity ^0.8.0;\r\n\r\nimport \"./CLPToken.sol\";\r\n\r\ncontract Notaria  {\r\n    address public owner;\r\n    uint public documentsCount = 0;\r\n    uint public documentosNotariaCount = 0;\r\n    IERC20 private token;\r\n    enum EstadoDocumentoNotaria{ ABIERTO, ACEPTADO, FINALIZADO }\r\n\r\n    struct Documento{ \r\n        uint id;\r\n        uint precio;\r\n        string nombre;\r\n        bool estado;\r\n    }\r\n\r\n    struct DocumentoNotaria{\r\n        uint id;\r\n        Documento documento;\r\n        address owner;\r\n        address destinatario;\r\n        uint precio;\r\n        EstadoDocumentoNotaria estado;\r\n    }\r\n\r\n    mapping(uint => Documento) public documentos;\r\n\r\n    mapping(address => uint) public totalDocumentosEmisor;\r\n    mapping(address => uint) public totalDocumentosDestinatario;\r\n    \r\n    mapping(uint => DocumentoNotaria) public documentosNotaria;\r\n    mapping(address => mapping(uint => DocumentoNotaria)) public documentosNotariaEmisor;\r\n    mapping(address => mapping(uint => DocumentoNotaria)) public documentosNotariaDestinatario;\r\n    \r\n    event DocumentoAdded(uint id, uint precio, string nombre, bool estado, address owner);\r\n    event DocumentoNotariaAdded(uint id, Documento documento, string nombre,  address owner, uint precio);\r\n    event DocumentoComprado(uint id, address owner);\r\n    event premioTokenDado(address recipient);\r\n    \r\n    constructor(IERC20 _token) {\r\n        token = _token;\r\n        owner = msg.sender;\r\n    }\r\n\r\n    function EnviarPremioToken() private {\r\n        uint256 amountToWithDrawal = token.balanceOf(address(this));\r\n        require(amountToWithDrawal >= 10, \"No hay suficientes tokens\");\r\n        token.transfer(msg.sender, 10);   \r\n        emit premioTokenDado(msg.sender);\r\n    } \r\n\r\n    function ValidaDisponibilidadPremio() public view returns (bool){\r\n        uint256 amountToWithDrawal = token.balanceOf(address(this));\r\n        if(amountToWithDrawal >= 10){\r\n            return true;\r\n        }else{\r\n            return false;\r\n        }\r\n    }\r\n\r\n    function AddDocumento(uint _precio, string memory _nombre, bool _estado) public payable{\r\n        require(msg.sender == owner, \"Funcionalidad solo permitida para el owner\");\r\n        require(bytes(_nombre).length > 0, \"El nombre debe tener un largo minimo\");\r\n        documentsCount++;\r\n        documentos[documentsCount] = Documento(documentsCount, _precio,_nombre,_estado);       \r\n        \r\n        emit DocumentoAdded(documentsCount,_precio, _nombre, _estado, msg.sender);\r\n    }\r\n    \r\n    function AddDocumentoNotaria(uint _idDocumento, uint _precio, address _destinatario) public payable returns(EstadoDocumentoNotaria){\r\n        require(msg.sender != address(0), \"El destinatario debe ser valido\");\r\n        require(msg.sender != _destinatario, \"El emisor del documento debe ser distinto al destinatario\");\r\n        Documento memory doc = documentos[_idDocumento];\r\n        require(doc.id > 0, \"El documento no existe en nuestros registros\");\r\n        documentosNotariaCount++;\r\n        DocumentoNotaria memory docNotaria = DocumentoNotaria(documentosNotariaCount, doc, msg.sender, _destinatario, _precio, EstadoDocumentoNotaria.ABIERTO);\r\n        documentosNotaria[documentosNotariaCount] = docNotaria;\r\n\r\n        totalDocumentosEmisor[msg.sender]++;\r\n        totalDocumentosDestinatario[_destinatario]++;\r\n        documentosNotariaEmisor[msg.sender][documentosNotariaCount] = docNotaria;\r\n        documentosNotariaDestinatario[_destinatario][documentosNotariaCount] = docNotaria;   \r\n \r\n        return docNotaria.estado;\r\n    }\r\n    \r\n    function AceptaDocumentoNotaria(uint _idDocumento) public returns (bool){\r\n        \r\n        DocumentoNotaria memory _docNotaria = GetDocumentoNotaria(_idDocumento);\r\n        //require(msg.value > _docNotaria.precio , \"Monto insuficiente\");\r\n        require(_docNotaria.estado == EstadoDocumentoNotaria.ABIERTO);\r\n        require(_docNotaria.destinatario == msg.sender, \"Solo el destinatario puede aceptar el Documento\");        \r\n        documentosNotaria[_idDocumento].estado = EstadoDocumentoNotaria.ACEPTADO;        \r\n        documentosNotariaDestinatario[msg.sender][_idDocumento].estado = EstadoDocumentoNotaria.ACEPTADO;        \r\n        require(documentosNotariaEmisor[_docNotaria.owner][_idDocumento].destinatario == _docNotaria.destinatario, \"El destinatario no coincide con el de origen\");\r\n        documentosNotariaEmisor[_docNotaria.owner][_idDocumento].estado = EstadoDocumentoNotaria.ACEPTADO;\r\n        \r\n        if(ValidaDisponibilidadPremio() == true){\r\n            EnviarPremioToken();\r\n        }        \r\n        return true;\r\n    }\r\n    \r\n    function FinalizaDocumentoNotaria(uint _idDocumento) public payable returns (bool){\r\n        \r\n        DocumentoNotaria memory _docNotaria = GetDocumentoNotaria(_idDocumento);\r\n        require(msg.value > _docNotaria.precio , \"Monto insuficiente\");\r\n        require(_docNotaria.estado == EstadoDocumentoNotaria.ACEPTADO);\r\n        require(_docNotaria.destinatario == msg.sender, \"Solo el destinatario puede Acceder al pago de este Documento\");\r\n        \r\n        require(msg.value >= _docNotaria.precio, \"El monto enviado debe ser mayor o igual al precio\");\r\n        documentosNotaria[_idDocumento].estado = EstadoDocumentoNotaria.FINALIZADO;\r\n        documentosNotariaDestinatario[msg.sender][_idDocumento].estado = EstadoDocumentoNotaria.FINALIZADO;\r\n        require(documentosNotariaEmisor[_docNotaria.owner][_idDocumento].destinatario == _docNotaria.destinatario, \"El destinatario no coincide con el de origen\");\r\n        \r\n        documentosNotariaEmisor[_docNotaria.owner][_idDocumento].estado = EstadoDocumentoNotaria.FINALIZADO;\r\n        payable(_docNotaria.owner).transfer(msg.value);        \r\n        return true;\r\n    }\r\n    \r\n    function RechazaDocumentoNotaria(uint _idDocumento) public payable returns (bool){\r\n        DocumentoNotaria memory _docNotaria = GetDocumentoNotaria(_idDocumento);\r\n        require(_docNotaria.estado == EstadoDocumentoNotaria.ACEPTADO || _docNotaria.estado == EstadoDocumentoNotaria.ABIERTO);\r\n        return true;\r\n    }   \r\n\r\n    \r\n    function GetDocumento(uint _idDocumento) public view returns(Documento memory doc){\r\n        doc = documentos[_idDocumento];\r\n        return doc;\r\n    }\r\n    \r\n    function GetDocumentoNotaria(uint _idDocumento) public view returns(DocumentoNotaria memory doc){\r\n        doc = documentosNotaria[_idDocumento];\r\n        return doc;\r\n    }\r\n    \r\n    function GetDocumentoNotariaEmisor(uint _idDocumento, address _direccion) public view returns(DocumentoNotaria memory doc){\r\n        doc = documentosNotariaEmisor[_direccion][_idDocumento];\r\n        return doc;\r\n    }\r\n    \r\n    function GetDocumentoNotariaDestinatario(uint _idDocumento, address _direccion) public view returns(DocumentoNotaria memory doc){\r\n        doc = documentosNotariaDestinatario[_direccion][_idDocumento];\r\n        return doc;\r\n    } \r\n    \r\n    function GetOwner() public view returns (address){\r\n        return owner;\r\n    }\r\n\r\n    modifier isOwner(){\r\n        require(msg.sender == owner);\r\n        _;\r\n    } \r\n\r\n    receive() external payable {} \r\n}",
  "sourcePath": "D:/Curso Solidity Avanzado BlockChain Academy/proyecto-react/contracts/Notaria.sol",
  "compiler": {
    "name": "solc",
    "version": "0.8.0+commit.c7dfd78e.Emscripten.clang"
  },
  "schemaVersion": "3.3.4",
  "updatedAt": "2021-08-08T21:33:39.562Z",
  "networkType": "ethereum",
  "devdoc": {
    "kind": "dev",
    "methods": {},
    "version": 1
  },
  "userdoc": {
    "kind": "user",
    "methods": {},
    "version": 1
  }
}