{
  "contractName": "Notaria",
  "abi": [
    {
      "inputs": [],
      "stateMutability": "nonpayable",
      "type": "constructor"
    },
    {
      "anonymous": false,
      "inputs": [
        {
          "indexed": false,
          "internalType": "uint256",
          "name": "id",
          "type": "uint256"
        },
        {
          "indexed": false,
          "internalType": "uint256",
          "name": "precio",
          "type": "uint256"
        },
        {
          "indexed": false,
          "internalType": "string",
          "name": "nombre",
          "type": "string"
        },
        {
          "indexed": false,
          "internalType": "bool",
          "name": "estado",
          "type": "bool"
        },
        {
          "indexed": false,
          "internalType": "address",
          "name": "owner",
          "type": "address"
        }
      ],
      "name": "DocumentoAdded",
      "type": "event"
    },
    {
      "anonymous": false,
      "inputs": [
        {
          "indexed": false,
          "internalType": "uint256",
          "name": "id",
          "type": "uint256"
        },
        {
          "indexed": false,
          "internalType": "address",
          "name": "owner",
          "type": "address"
        }
      ],
      "name": "DocumentoComprado",
      "type": "event"
    },
    {
      "inputs": [
        {
          "internalType": "uint256",
          "name": "",
          "type": "uint256"
        }
      ],
      "name": "documentos",
      "outputs": [
        {
          "internalType": "uint256",
          "name": "id",
          "type": "uint256"
        },
        {
          "internalType": "uint256",
          "name": "precio",
          "type": "uint256"
        },
        {
          "internalType": "string",
          "name": "nombre",
          "type": "string"
        },
        {
          "internalType": "bool",
          "name": "estado",
          "type": "bool"
        }
      ],
      "stateMutability": "view",
      "type": "function",
      "constant": true
    },
    {
      "inputs": [
        {
          "internalType": "address",
          "name": "",
          "type": "address"
        },
        {
          "internalType": "uint256",
          "name": "",
          "type": "uint256"
        }
      ],
      "name": "documentosCliente",
      "outputs": [
        {
          "internalType": "uint256",
          "name": "id",
          "type": "uint256"
        },
        {
          "internalType": "uint256",
          "name": "precio",
          "type": "uint256"
        },
        {
          "internalType": "string",
          "name": "nombre",
          "type": "string"
        },
        {
          "internalType": "bool",
          "name": "estado",
          "type": "bool"
        }
      ],
      "stateMutability": "view",
      "type": "function",
      "constant": true
    },
    {
      "inputs": [],
      "name": "documentsCount",
      "outputs": [
        {
          "internalType": "uint256",
          "name": "",
          "type": "uint256"
        }
      ],
      "stateMutability": "view",
      "type": "function",
      "constant": true
    },
    {
      "inputs": [],
      "name": "owner",
      "outputs": [
        {
          "internalType": "address",
          "name": "",
          "type": "address"
        }
      ],
      "stateMutability": "view",
      "type": "function",
      "constant": true
    },
    {
      "inputs": [
        {
          "internalType": "address",
          "name": "",
          "type": "address"
        }
      ],
      "name": "totalDocumentosCliente",
      "outputs": [
        {
          "internalType": "uint256",
          "name": "",
          "type": "uint256"
        }
      ],
      "stateMutability": "view",
      "type": "function",
      "constant": true
    },
    {
      "stateMutability": "payable",
      "type": "receive",
      "payable": true
    },
    {
      "inputs": [
        {
          "internalType": "uint256",
          "name": "_precio",
          "type": "uint256"
        },
        {
          "internalType": "string",
          "name": "_nombre",
          "type": "string"
        },
        {
          "internalType": "bool",
          "name": "_estado",
          "type": "bool"
        }
      ],
      "name": "AddDocumento",
      "outputs": [],
      "stateMutability": "payable",
      "type": "function",
      "payable": true
    },
    {
      "inputs": [
        {
          "internalType": "uint256",
          "name": "_id",
          "type": "uint256"
        },
        {
          "internalType": "uint256",
          "name": "_precio",
          "type": "uint256"
        },
        {
          "internalType": "string",
          "name": "_nombre",
          "type": "string"
        },
        {
          "internalType": "bool",
          "name": "_estado",
          "type": "bool"
        }
      ],
      "name": "AddDocumentoCliente",
      "outputs": [],
      "stateMutability": "nonpayable",
      "type": "function"
    },
    {
      "inputs": [
        {
          "internalType": "uint256",
          "name": "_id",
          "type": "uint256"
        }
      ],
      "name": "compraDocumento",
      "outputs": [],
      "stateMutability": "payable",
      "type": "function",
      "payable": true
    }
  ],
  "bytecode": "0x60806040526001805534801561001457600080fd5b50336000806101000a81548173ffffffffffffffffffffffffffffffffffffffff021916908373ffffffffffffffffffffffffffffffffffffffff160217905550611029806100646000396000f3fe60806040526004361061007f5760003560e01c80638da5cb5b1161004e5780638da5cb5b1461012957806395e52d9814610154578063bb674f201461017f578063c260dcb1146101bf57610086565b80632c62c7be1461008b578063317eaf07146100a75780634300b318146100e45780635b24f8f71461010057610086565b3661008657005b600080fd5b6100a560048036038101906100a09190610a35565b6101ff565b005b3480156100b357600080fd5b506100ce60048036038101906100c991906109a7565b6103bd565b6040516100db9190610ca4565b60405180910390f35b6100fe60048036038101906100f99190610a0c565b6103d5565b005b34801561010c57600080fd5b5061012760048036038101906101229190610a9c565b6105cf565b005b34801561013557600080fd5b5061013e61069c565b60405161014b9190610c49565b60405180910390f35b34801561016057600080fd5b506101696106c0565b6040516101769190610ca4565b60405180910390f35b34801561018b57600080fd5b506101a660048036038101906101a19190610a0c565b6106c6565b6040516101b69493929190610ce8565b60405180910390f35b3480156101cb57600080fd5b506101e660048036038101906101e191906109d0565b61078b565b6040516101f69493929190610ce8565b60405180910390f35b60008054906101000a900473ffffffffffffffffffffffffffffffffffffffff1673ffffffffffffffffffffffffffffffffffffffff163373ffffffffffffffffffffffffffffffffffffffff161461028d576040517f08c379a000000000000000000000000000000000000000000000000000000000815260040161028490610c84565b60405180910390fd5b60008251116102d1576040517f08c379a00000000000000000000000000000000000000000000000000000000081526004016102c890610c64565b60405180910390fd5b604051806080016040528060015481526020018481526020018381526020018215158152506002600060015481526020019081526020016000206000820151816000015560208201518160010155604082015181600201908051906020019061033b92919061085d565b5060608201518160030160006101000a81548160ff0219169083151502179055509050506001600081548092919061037290610ec7565b91905055507f5d11aed1842005d2aad4bd5cd443eb580b0abd53c28f7b77bfeef1b321ee594e600154848484336040516103b0959493929190610d34565b60405180910390a1505050565b60046020528060005260406000206000915090505481565b600060026000838152602001908152602001600020604051806080016040529081600082015481526020016001820154815260200160028201805461041990610e95565b80601f016020809104026020016040519081016040528092919081815260200182805461044590610e95565b80156104925780601f1061046757610100808354040283529160200191610492565b820191906000526020600020905b81548152906001019060200180831161047557829003601f168201915b505050505081526020016003820160009054906101000a900460ff161515151581525050905060008160000151116104c957600080fd5b80602001513410156104da57600080fd5b3373ffffffffffffffffffffffffffffffffffffffff166108fc349081150290604051600060405180830381858888f19350505050158015610520573d6000803e3d6000fd5b50600460003373ffffffffffffffffffffffffffffffffffffffff1673ffffffffffffffffffffffffffffffffffffffff168152602001908152602001600020600081548092919061057190610ec7565b919050555061059281600001518260200151836040015184606001516105cf565b7ffd0d7173d6997326474ab81608a90978f07bc4a25fe07069ea6934b7782b763682336040516105c3929190610cbf565b60405180910390a15050565b6040518060800160405280858152602001848152602001838152602001821515815250600360003373ffffffffffffffffffffffffffffffffffffffff1673ffffffffffffffffffffffffffffffffffffffff16815260200190815260200160002060008681526020019081526020016000206000820151816000015560208201518160010155604082015181600201908051906020019061067292919061085d565b5060608201518160030160006101000a81548160ff02191690831515021790555090505050505050565b60008054906101000a900473ffffffffffffffffffffffffffffffffffffffff1681565b60015481565b60026020528060005260406000206000915090508060000154908060010154908060020180546106f590610e95565b80601f016020809104026020016040519081016040528092919081815260200182805461072190610e95565b801561076e5780601f106107435761010080835404028352916020019161076e565b820191906000526020600020905b81548152906001019060200180831161075157829003601f168201915b5050505050908060030160009054906101000a900460ff16905084565b6003602052816000526040600020602052806000526040600020600091509150508060000154908060010154908060020180546107c790610e95565b80601f01602080910402602001604051908101604052809291908181526020018280546107f390610e95565b80156108405780601f1061081557610100808354040283529160200191610840565b820191906000526020600020905b81548152906001019060200180831161082357829003601f168201915b5050505050908060030160009054906101000a900460ff16905084565b82805461086990610e95565b90600052602060002090601f01602090048101928261088b57600085556108d2565b82601f106108a457805160ff19168380011785556108d2565b828001600101855582156108d2579182015b828111156108d15782518255916020019190600101906108b6565b5b5090506108df91906108e3565b5090565b5b808211156108fc5760008160009055506001016108e4565b5090565b600061091361090e84610dbf565b610d8e565b90508281526020810184848401111561092b57600080fd5b610936848285610e53565b509392505050565b60008135905061094d81610fae565b92915050565b60008135905061096281610fc5565b92915050565b600082601f83011261097957600080fd5b8135610989848260208601610900565b91505092915050565b6000813590506109a181610fdc565b92915050565b6000602082840312156109b957600080fd5b60006109c78482850161093e565b91505092915050565b600080604083850312156109e357600080fd5b60006109f18582860161093e565b9250506020610a0285828601610992565b9150509250929050565b600060208284031215610a1e57600080fd5b6000610a2c84828501610992565b91505092915050565b600080600060608486031215610a4a57600080fd5b6000610a5886828701610992565b935050602084013567ffffffffffffffff811115610a7557600080fd5b610a8186828701610968565b9250506040610a9286828701610953565b9150509250925092565b60008060008060808587031215610ab257600080fd5b6000610ac087828801610992565b9450506020610ad187828801610992565b935050604085013567ffffffffffffffff811115610aee57600080fd5b610afa87828801610968565b9250506060610b0b87828801610953565b91505092959194509250565b610b2081610e0b565b82525050565b610b2f81610e1d565b82525050565b6000610b4082610def565b610b4a8185610dfa565b9350610b5a818560208601610e62565b610b6381610f9d565b840191505092915050565b6000610b7b602483610dfa565b91507f456c206e6f6d62726520646562652074656e657220756e206c6172676f206d6960008301527f6e696d6f000000000000000000000000000000000000000000000000000000006020830152604082019050919050565b6000610be1602a83610dfa565b91507f46756e63696f6e616c6964616420736f6c6f207065726d69746964612070617260008301527f6120656c206f776e6572000000000000000000000000000000000000000000006020830152604082019050919050565b610c4381610e49565b82525050565b6000602082019050610c5e6000830184610b17565b92915050565b60006020820190508181036000830152610c7d81610b6e565b9050919050565b60006020820190508181036000830152610c9d81610bd4565b9050919050565b6000602082019050610cb96000830184610c3a565b92915050565b6000604082019050610cd46000830185610c3a565b610ce16020830184610b17565b9392505050565b6000608082019050610cfd6000830187610c3a565b610d0a6020830186610c3a565b8181036040830152610d1c8185610b35565b9050610d2b6060830184610b26565b95945050505050565b600060a082019050610d496000830188610c3a565b610d566020830187610c3a565b8181036040830152610d688186610b35565b9050610d776060830185610b26565b610d846080830184610b17565b9695505050505050565b6000604051905081810181811067ffffffffffffffff82111715610db557610db4610f6e565b5b8060405250919050565b600067ffffffffffffffff821115610dda57610dd9610f6e565b5b601f19601f8301169050602081019050919050565b600081519050919050565b600082825260208201905092915050565b6000610e1682610e29565b9050919050565b60008115159050919050565b600073ffffffffffffffffffffffffffffffffffffffff82169050919050565b6000819050919050565b82818337600083830152505050565b60005b83811015610e80578082015181840152602081019050610e65565b83811115610e8f576000848401525b50505050565b60006002820490506001821680610ead57607f821691505b60208210811415610ec157610ec0610f3f565b5b50919050565b6000610ed282610e49565b91507fffffffffffffffffffffffffffffffffffffffffffffffffffffffffffffffff821415610f0557610f04610f10565b5b600182019050919050565b7f4e487b7100000000000000000000000000000000000000000000000000000000600052601160045260246000fd5b7f4e487b7100000000000000000000000000000000000000000000000000000000600052602260045260246000fd5b7f4e487b7100000000000000000000000000000000000000000000000000000000600052604160045260246000fd5b6000601f19601f8301169050919050565b610fb781610e0b565b8114610fc257600080fd5b50565b610fce81610e1d565b8114610fd957600080fd5b50565b610fe581610e49565b8114610ff057600080fd5b5056fea26469706673582212205b6099a35546d665f46980d6cc3bc68fee0f7fd7ec8f3e60fa87ea837934ce1964736f6c63430008000033",
  "immutableReferences": {},
  "source": "// SPDX-License-Identifier: MIT\r\npragma solidity ^0.8.0;\r\n\r\ncontract Notaria{\r\n    address public owner;\r\n    uint public documentsCount = 1;\r\n\r\n    struct Documento{\r\n        uint id;\r\n        uint precio;\r\n        string nombre;\r\n        bool estado;\r\n    }\r\n\r\n    mapping(uint => Documento) public documentos;\r\n    mapping(address => mapping(uint => Documento)) public documentosCliente;\r\n    mapping(address => uint) public totalDocumentosCliente;\r\n\r\n    event DocumentoAdded(uint id, uint precio, string nombre, bool estado, address owner);\r\n    event DocumentoComprado(uint id, address owner);\r\n    \r\n    constructor() {\r\n        owner = msg.sender;\r\n    }\r\n\r\n    function AddDocumento(uint _precio, string memory _nombre, bool _estado) public payable{\r\n        require(msg.sender == owner, \"Funcionalidad solo permitida para el owner\");\r\n        require(bytes(_nombre).length > 0, \"El nombre debe tener un largo minimo\");\r\n        documentos[documentsCount] = Documento(documentsCount, _precio,_nombre,_estado);\r\n        documentsCount++;\r\n        \r\n        emit DocumentoAdded(documentsCount,_precio, _nombre, _estado, msg.sender);\r\n    }\r\n    \r\n    function AddDocumentoCliente(uint _id, uint _precio, string memory _nombre, bool _estado) public {\r\n        documentosCliente[msg.sender][_id] = Documento(_id, _precio, _nombre, _estado);\r\n    }\r\n\r\n    function compraDocumento(uint _id) external payable {\r\n        Documento memory _documento = documentos[_id];\r\n        // Valida que el Documento tenga un ID mayor que 0\r\n        require(_documento.id > 0);\r\n        // Requiere que haya suficiente ETH en la transaccion\r\n        require(msg.value >= _documento.precio);\r\n        //Transfiere el precio del Documento\r\n        payable((msg.sender)).transfer(msg.value);\r\n        //Suma 1 al mapping de Documentos x Cliente\r\n        totalDocumentosCliente[msg.sender]++;\r\n        //Agrega el documento comprado al mapping de Documentos Comprados x Cliente\r\n        AddDocumentoCliente(_documento.id, _documento.precio, _documento.nombre, _documento.estado);\r\n        // Dispara el evento\r\n        emit DocumentoComprado(_id, msg.sender);\r\n    }  \r\n\r\n    receive() external payable {}\r\n    \r\n    modifier isOwner(){\r\n        require(msg.sender == owner);\r\n        _;\r\n    }  \r\n}",
  "sourcePath": "D:/Curso Solidity Avanzado BlockChain Academy/proyecto-react/contracts/Notaria.sol",
  "compiler": {
    "name": "solc",
    "version": "0.8.0+commit.c7dfd78e.Emscripten.clang"
  },
  "schemaVersion": "3.3.4",
  "updatedAt": "2021-05-16T00:24:38.460Z",
  "networkType": "ethereum",
  "devdoc": {
    "kind": "dev",
    "methods": {},
    "version": 1
  },
  "userdoc": {
    "kind": "user",
    "methods": {},
    "version": 1
  }
}