{
  "contractName": "Notaria",
  "abi": [
    {
      "inputs": [],
      "stateMutability": "nonpayable",
      "type": "constructor"
    },
    {
      "anonymous": false,
      "inputs": [
        {
          "indexed": true,
          "internalType": "address",
          "name": "owner",
          "type": "address"
        },
        {
          "indexed": true,
          "internalType": "address",
          "name": "spender",
          "type": "address"
        },
        {
          "indexed": false,
          "internalType": "uint256",
          "name": "value",
          "type": "uint256"
        }
      ],
      "name": "Approval",
      "type": "event"
    },
    {
      "anonymous": false,
      "inputs": [
        {
          "indexed": false,
          "internalType": "uint256",
          "name": "id",
          "type": "uint256"
        },
        {
          "indexed": false,
          "internalType": "uint256",
          "name": "precio",
          "type": "uint256"
        },
        {
          "indexed": false,
          "internalType": "string",
          "name": "nombre",
          "type": "string"
        },
        {
          "indexed": false,
          "internalType": "bool",
          "name": "estado",
          "type": "bool"
        },
        {
          "indexed": false,
          "internalType": "address",
          "name": "owner",
          "type": "address"
        }
      ],
      "name": "DocumentoAdded",
      "type": "event"
    },
    {
      "anonymous": false,
      "inputs": [
        {
          "indexed": false,
          "internalType": "uint256",
          "name": "id",
          "type": "uint256"
        },
        {
          "indexed": false,
          "internalType": "address",
          "name": "owner",
          "type": "address"
        }
      ],
      "name": "DocumentoComprado",
      "type": "event"
    },
    {
      "anonymous": false,
      "inputs": [
        {
          "indexed": false,
          "internalType": "uint256",
          "name": "id",
          "type": "uint256"
        },
        {
          "components": [
            {
              "internalType": "uint256",
              "name": "id",
              "type": "uint256"
            },
            {
              "internalType": "uint256",
              "name": "precio",
              "type": "uint256"
            },
            {
              "internalType": "string",
              "name": "nombre",
              "type": "string"
            },
            {
              "internalType": "bool",
              "name": "estado",
              "type": "bool"
            }
          ],
          "indexed": false,
          "internalType": "struct Notaria.Documento",
          "name": "documento",
          "type": "tuple"
        },
        {
          "indexed": false,
          "internalType": "string",
          "name": "nombre",
          "type": "string"
        },
        {
          "indexed": false,
          "internalType": "address",
          "name": "owner",
          "type": "address"
        },
        {
          "indexed": false,
          "internalType": "uint256",
          "name": "precio",
          "type": "uint256"
        }
      ],
      "name": "DocumentoNotariaAdded",
      "type": "event"
    },
    {
      "anonymous": false,
      "inputs": [
        {
          "indexed": true,
          "internalType": "address",
          "name": "from",
          "type": "address"
        },
        {
          "indexed": true,
          "internalType": "address",
          "name": "to",
          "type": "address"
        },
        {
          "indexed": false,
          "internalType": "uint256",
          "name": "value",
          "type": "uint256"
        }
      ],
      "name": "Transfer",
      "type": "event"
    },
    {
      "inputs": [
        {
          "internalType": "address",
          "name": "owner",
          "type": "address"
        },
        {
          "internalType": "address",
          "name": "spender",
          "type": "address"
        }
      ],
      "name": "allowance",
      "outputs": [
        {
          "internalType": "uint256",
          "name": "",
          "type": "uint256"
        }
      ],
      "stateMutability": "view",
      "type": "function",
      "constant": true
    },
    {
      "inputs": [
        {
          "internalType": "address",
          "name": "spender",
          "type": "address"
        },
        {
          "internalType": "uint256",
          "name": "amount",
          "type": "uint256"
        }
      ],
      "name": "approve",
      "outputs": [
        {
          "internalType": "bool",
          "name": "",
          "type": "bool"
        }
      ],
      "stateMutability": "nonpayable",
      "type": "function"
    },
    {
      "inputs": [
        {
          "internalType": "address",
          "name": "account",
          "type": "address"
        }
      ],
      "name": "balanceOf",
      "outputs": [
        {
          "internalType": "uint256",
          "name": "",
          "type": "uint256"
        }
      ],
      "stateMutability": "view",
      "type": "function",
      "constant": true
    },
    {
      "inputs": [],
      "name": "decimals",
      "outputs": [
        {
          "internalType": "uint8",
          "name": "",
          "type": "uint8"
        }
      ],
      "stateMutability": "view",
      "type": "function",
      "constant": true
    },
    {
      "inputs": [
        {
          "internalType": "address",
          "name": "spender",
          "type": "address"
        },
        {
          "internalType": "uint256",
          "name": "subtractedValue",
          "type": "uint256"
        }
      ],
      "name": "decreaseAllowance",
      "outputs": [
        {
          "internalType": "bool",
          "name": "",
          "type": "bool"
        }
      ],
      "stateMutability": "nonpayable",
      "type": "function"
    },
    {
      "inputs": [
        {
          "internalType": "uint256",
          "name": "",
          "type": "uint256"
        }
      ],
      "name": "documentos",
      "outputs": [
        {
          "internalType": "uint256",
          "name": "id",
          "type": "uint256"
        },
        {
          "internalType": "uint256",
          "name": "precio",
          "type": "uint256"
        },
        {
          "internalType": "string",
          "name": "nombre",
          "type": "string"
        },
        {
          "internalType": "bool",
          "name": "estado",
          "type": "bool"
        }
      ],
      "stateMutability": "view",
      "type": "function",
      "constant": true
    },
    {
      "inputs": [
        {
          "internalType": "address",
          "name": "",
          "type": "address"
        },
        {
          "internalType": "uint256",
          "name": "",
          "type": "uint256"
        }
      ],
      "name": "documentosCliente",
      "outputs": [
        {
          "internalType": "uint256",
          "name": "id",
          "type": "uint256"
        },
        {
          "internalType": "uint256",
          "name": "precio",
          "type": "uint256"
        },
        {
          "internalType": "string",
          "name": "nombre",
          "type": "string"
        },
        {
          "internalType": "bool",
          "name": "estado",
          "type": "bool"
        }
      ],
      "stateMutability": "view",
      "type": "function",
      "constant": true
    },
    {
      "inputs": [
        {
          "internalType": "uint256",
          "name": "",
          "type": "uint256"
        }
      ],
      "name": "documentosNotaria",
      "outputs": [
        {
          "internalType": "uint256",
          "name": "id",
          "type": "uint256"
        },
        {
          "components": [
            {
              "internalType": "uint256",
              "name": "id",
              "type": "uint256"
            },
            {
              "internalType": "uint256",
              "name": "precio",
              "type": "uint256"
            },
            {
              "internalType": "string",
              "name": "nombre",
              "type": "string"
            },
            {
              "internalType": "bool",
              "name": "estado",
              "type": "bool"
            }
          ],
          "internalType": "struct Notaria.Documento",
          "name": "documento",
          "type": "tuple"
        },
        {
          "internalType": "address",
          "name": "owner",
          "type": "address"
        },
        {
          "internalType": "address",
          "name": "destinatario",
          "type": "address"
        },
        {
          "internalType": "uint256",
          "name": "precio",
          "type": "uint256"
        },
        {
          "internalType": "enum Notaria.EstadoDocumentoNotaria",
          "name": "estado",
          "type": "uint8"
        }
      ],
      "stateMutability": "view",
      "type": "function",
      "constant": true
    },
    {
      "inputs": [],
      "name": "documentosNotariaCount",
      "outputs": [
        {
          "internalType": "uint256",
          "name": "",
          "type": "uint256"
        }
      ],
      "stateMutability": "view",
      "type": "function",
      "constant": true
    },
    {
      "inputs": [
        {
          "internalType": "address",
          "name": "",
          "type": "address"
        },
        {
          "internalType": "uint256",
          "name": "",
          "type": "uint256"
        }
      ],
      "name": "documentosNotariaDestinatario",
      "outputs": [
        {
          "internalType": "uint256",
          "name": "id",
          "type": "uint256"
        },
        {
          "components": [
            {
              "internalType": "uint256",
              "name": "id",
              "type": "uint256"
            },
            {
              "internalType": "uint256",
              "name": "precio",
              "type": "uint256"
            },
            {
              "internalType": "string",
              "name": "nombre",
              "type": "string"
            },
            {
              "internalType": "bool",
              "name": "estado",
              "type": "bool"
            }
          ],
          "internalType": "struct Notaria.Documento",
          "name": "documento",
          "type": "tuple"
        },
        {
          "internalType": "address",
          "name": "owner",
          "type": "address"
        },
        {
          "internalType": "address",
          "name": "destinatario",
          "type": "address"
        },
        {
          "internalType": "uint256",
          "name": "precio",
          "type": "uint256"
        },
        {
          "internalType": "enum Notaria.EstadoDocumentoNotaria",
          "name": "estado",
          "type": "uint8"
        }
      ],
      "stateMutability": "view",
      "type": "function",
      "constant": true
    },
    {
      "inputs": [
        {
          "internalType": "address",
          "name": "",
          "type": "address"
        },
        {
          "internalType": "uint256",
          "name": "",
          "type": "uint256"
        }
      ],
      "name": "documentosNotariaEmisor",
      "outputs": [
        {
          "internalType": "uint256",
          "name": "id",
          "type": "uint256"
        },
        {
          "components": [
            {
              "internalType": "uint256",
              "name": "id",
              "type": "uint256"
            },
            {
              "internalType": "uint256",
              "name": "precio",
              "type": "uint256"
            },
            {
              "internalType": "string",
              "name": "nombre",
              "type": "string"
            },
            {
              "internalType": "bool",
              "name": "estado",
              "type": "bool"
            }
          ],
          "internalType": "struct Notaria.Documento",
          "name": "documento",
          "type": "tuple"
        },
        {
          "internalType": "address",
          "name": "owner",
          "type": "address"
        },
        {
          "internalType": "address",
          "name": "destinatario",
          "type": "address"
        },
        {
          "internalType": "uint256",
          "name": "precio",
          "type": "uint256"
        },
        {
          "internalType": "enum Notaria.EstadoDocumentoNotaria",
          "name": "estado",
          "type": "uint8"
        }
      ],
      "stateMutability": "view",
      "type": "function",
      "constant": true
    },
    {
      "inputs": [],
      "name": "documentsCount",
      "outputs": [
        {
          "internalType": "uint256",
          "name": "",
          "type": "uint256"
        }
      ],
      "stateMutability": "view",
      "type": "function",
      "constant": true
    },
    {
      "inputs": [
        {
          "internalType": "address",
          "name": "spender",
          "type": "address"
        },
        {
          "internalType": "uint256",
          "name": "addedValue",
          "type": "uint256"
        }
      ],
      "name": "increaseAllowance",
      "outputs": [
        {
          "internalType": "bool",
          "name": "",
          "type": "bool"
        }
      ],
      "stateMutability": "nonpayable",
      "type": "function"
    },
    {
      "inputs": [],
      "name": "name",
      "outputs": [
        {
          "internalType": "string",
          "name": "",
          "type": "string"
        }
      ],
      "stateMutability": "view",
      "type": "function",
      "constant": true
    },
    {
      "inputs": [],
      "name": "symbol",
      "outputs": [
        {
          "internalType": "string",
          "name": "",
          "type": "string"
        }
      ],
      "stateMutability": "view",
      "type": "function",
      "constant": true
    },
    {
      "inputs": [
        {
          "internalType": "address",
          "name": "",
          "type": "address"
        }
      ],
      "name": "totalDocumentosCliente",
      "outputs": [
        {
          "internalType": "uint256",
          "name": "",
          "type": "uint256"
        }
      ],
      "stateMutability": "view",
      "type": "function",
      "constant": true
    },
    {
      "inputs": [
        {
          "internalType": "address",
          "name": "",
          "type": "address"
        }
      ],
      "name": "totalDocumentosDestinatario",
      "outputs": [
        {
          "internalType": "uint256",
          "name": "",
          "type": "uint256"
        }
      ],
      "stateMutability": "view",
      "type": "function",
      "constant": true
    },
    {
      "inputs": [
        {
          "internalType": "address",
          "name": "",
          "type": "address"
        }
      ],
      "name": "totalDocumentosEmisor",
      "outputs": [
        {
          "internalType": "uint256",
          "name": "",
          "type": "uint256"
        }
      ],
      "stateMutability": "view",
      "type": "function",
      "constant": true
    },
    {
      "inputs": [],
      "name": "totalSupply",
      "outputs": [
        {
          "internalType": "uint256",
          "name": "",
          "type": "uint256"
        }
      ],
      "stateMutability": "view",
      "type": "function",
      "constant": true
    },
    {
      "inputs": [
        {
          "internalType": "address",
          "name": "recipient",
          "type": "address"
        },
        {
          "internalType": "uint256",
          "name": "amount",
          "type": "uint256"
        }
      ],
      "name": "transfer",
      "outputs": [
        {
          "internalType": "bool",
          "name": "",
          "type": "bool"
        }
      ],
      "stateMutability": "nonpayable",
      "type": "function"
    },
    {
      "inputs": [
        {
          "internalType": "address",
          "name": "sender",
          "type": "address"
        },
        {
          "internalType": "address",
          "name": "recipient",
          "type": "address"
        },
        {
          "internalType": "uint256",
          "name": "amount",
          "type": "uint256"
        }
      ],
      "name": "transferFrom",
      "outputs": [
        {
          "internalType": "bool",
          "name": "",
          "type": "bool"
        }
      ],
      "stateMutability": "nonpayable",
      "type": "function"
    },
    {
      "stateMutability": "payable",
      "type": "receive",
      "payable": true
    },
    {
      "inputs": [
        {
          "internalType": "uint256",
          "name": "_precio",
          "type": "uint256"
        },
        {
          "internalType": "string",
          "name": "_nombre",
          "type": "string"
        },
        {
          "internalType": "bool",
          "name": "_estado",
          "type": "bool"
        }
      ],
      "name": "AddDocumento",
      "outputs": [],
      "stateMutability": "payable",
      "type": "function",
      "payable": true
    },
    {
      "inputs": [
        {
          "internalType": "uint256",
          "name": "_idDocumento",
          "type": "uint256"
        },
        {
          "internalType": "uint256",
          "name": "_precio",
          "type": "uint256"
        },
        {
          "internalType": "address",
          "name": "_destinatario",
          "type": "address"
        }
      ],
      "name": "AddDocumentoNotaria",
      "outputs": [
        {
          "internalType": "enum Notaria.EstadoDocumentoNotaria",
          "name": "",
          "type": "uint8"
        }
      ],
      "stateMutability": "payable",
      "type": "function",
      "payable": true
    },
    {
      "inputs": [
        {
          "internalType": "uint256",
          "name": "_idDocumento",
          "type": "uint256"
        }
      ],
      "name": "AceptaDocumentoNotaria",
      "outputs": [
        {
          "internalType": "bool",
          "name": "",
          "type": "bool"
        }
      ],
      "stateMutability": "payable",
      "type": "function",
      "payable": true
    },
    {
      "inputs": [
        {
          "internalType": "uint256",
          "name": "_idDocumento",
          "type": "uint256"
        }
      ],
      "name": "FinalizaDocumentoNotaria",
      "outputs": [
        {
          "internalType": "bool",
          "name": "",
          "type": "bool"
        }
      ],
      "stateMutability": "payable",
      "type": "function",
      "payable": true
    },
    {
      "inputs": [
        {
          "internalType": "uint256",
          "name": "_idDocumento",
          "type": "uint256"
        }
      ],
      "name": "RechazaDocumentoNotaria",
      "outputs": [
        {
          "internalType": "bool",
          "name": "",
          "type": "bool"
        }
      ],
      "stateMutability": "payable",
      "type": "function",
      "payable": true
    },
    {
      "inputs": [
        {
          "internalType": "uint256",
          "name": "_idDocumento",
          "type": "uint256"
        }
      ],
      "name": "GetDocumento",
      "outputs": [
        {
          "components": [
            {
              "internalType": "uint256",
              "name": "id",
              "type": "uint256"
            },
            {
              "internalType": "uint256",
              "name": "precio",
              "type": "uint256"
            },
            {
              "internalType": "string",
              "name": "nombre",
              "type": "string"
            },
            {
              "internalType": "bool",
              "name": "estado",
              "type": "bool"
            }
          ],
          "internalType": "struct Notaria.Documento",
          "name": "doc",
          "type": "tuple"
        }
      ],
      "stateMutability": "view",
      "type": "function",
      "constant": true
    },
    {
      "inputs": [
        {
          "internalType": "uint256",
          "name": "_idDocumento",
          "type": "uint256"
        }
      ],
      "name": "GetDocumentoNotaria",
      "outputs": [
        {
          "components": [
            {
              "internalType": "uint256",
              "name": "id",
              "type": "uint256"
            },
            {
              "components": [
                {
                  "internalType": "uint256",
                  "name": "id",
                  "type": "uint256"
                },
                {
                  "internalType": "uint256",
                  "name": "precio",
                  "type": "uint256"
                },
                {
                  "internalType": "string",
                  "name": "nombre",
                  "type": "string"
                },
                {
                  "internalType": "bool",
                  "name": "estado",
                  "type": "bool"
                }
              ],
              "internalType": "struct Notaria.Documento",
              "name": "documento",
              "type": "tuple"
            },
            {
              "internalType": "address",
              "name": "owner",
              "type": "address"
            },
            {
              "internalType": "address",
              "name": "destinatario",
              "type": "address"
            },
            {
              "internalType": "uint256",
              "name": "precio",
              "type": "uint256"
            },
            {
              "internalType": "enum Notaria.EstadoDocumentoNotaria",
              "name": "estado",
              "type": "uint8"
            }
          ],
          "internalType": "struct Notaria.DocumentoNotaria",
          "name": "doc",
          "type": "tuple"
        }
      ],
      "stateMutability": "view",
      "type": "function",
      "constant": true
    },
    {
      "inputs": [
        {
          "internalType": "uint256",
          "name": "_idDocumento",
          "type": "uint256"
        },
        {
          "internalType": "address",
          "name": "_direccion",
          "type": "address"
        }
      ],
      "name": "GetDocumentoNotariaEmisor",
      "outputs": [
        {
          "components": [
            {
              "internalType": "uint256",
              "name": "id",
              "type": "uint256"
            },
            {
              "components": [
                {
                  "internalType": "uint256",
                  "name": "id",
                  "type": "uint256"
                },
                {
                  "internalType": "uint256",
                  "name": "precio",
                  "type": "uint256"
                },
                {
                  "internalType": "string",
                  "name": "nombre",
                  "type": "string"
                },
                {
                  "internalType": "bool",
                  "name": "estado",
                  "type": "bool"
                }
              ],
              "internalType": "struct Notaria.Documento",
              "name": "documento",
              "type": "tuple"
            },
            {
              "internalType": "address",
              "name": "owner",
              "type": "address"
            },
            {
              "internalType": "address",
              "name": "destinatario",
              "type": "address"
            },
            {
              "internalType": "uint256",
              "name": "precio",
              "type": "uint256"
            },
            {
              "internalType": "enum Notaria.EstadoDocumentoNotaria",
              "name": "estado",
              "type": "uint8"
            }
          ],
          "internalType": "struct Notaria.DocumentoNotaria",
          "name": "doc",
          "type": "tuple"
        }
      ],
      "stateMutability": "view",
      "type": "function",
      "constant": true
    },
    {
      "inputs": [
        {
          "internalType": "uint256",
          "name": "_idDocumento",
          "type": "uint256"
        },
        {
          "internalType": "address",
          "name": "_direccion",
          "type": "address"
        }
      ],
      "name": "GetDocumentoNotariaReceptor",
      "outputs": [
        {
          "components": [
            {
              "internalType": "uint256",
              "name": "id",
              "type": "uint256"
            },
            {
              "components": [
                {
                  "internalType": "uint256",
                  "name": "id",
                  "type": "uint256"
                },
                {
                  "internalType": "uint256",
                  "name": "precio",
                  "type": "uint256"
                },
                {
                  "internalType": "string",
                  "name": "nombre",
                  "type": "string"
                },
                {
                  "internalType": "bool",
                  "name": "estado",
                  "type": "bool"
                }
              ],
              "internalType": "struct Notaria.Documento",
              "name": "documento",
              "type": "tuple"
            },
            {
              "internalType": "address",
              "name": "owner",
              "type": "address"
            },
            {
              "internalType": "address",
              "name": "destinatario",
              "type": "address"
            },
            {
              "internalType": "uint256",
              "name": "precio",
              "type": "uint256"
            },
            {
              "internalType": "enum Notaria.EstadoDocumentoNotaria",
              "name": "estado",
              "type": "uint8"
            }
          ],
          "internalType": "struct Notaria.DocumentoNotaria",
          "name": "doc",
          "type": "tuple"
        }
      ],
      "stateMutability": "view",
      "type": "function",
      "constant": true
    },
    {
      "inputs": [
        {
          "internalType": "uint256",
          "name": "_id",
          "type": "uint256"
        },
        {
          "internalType": "uint256",
          "name": "_precio",
          "type": "uint256"
        },
        {
          "internalType": "string",
          "name": "_nombre",
          "type": "string"
        },
        {
          "internalType": "bool",
          "name": "_estado",
          "type": "bool"
        }
      ],
      "name": "AddDocumentoCliente",
      "outputs": [],
      "stateMutability": "nonpayable",
      "type": "function"
    },
    {
      "inputs": [
        {
          "internalType": "uint256",
          "name": "_id",
          "type": "uint256"
        }
      ],
      "name": "compraDocumento",
      "outputs": [],
      "stateMutability": "payable",
      "type": "function",
      "payable": true
    },
    {
      "inputs": [],
      "name": "GetOwner",
      "outputs": [
        {
          "internalType": "address",
          "name": "",
          "type": "address"
        }
      ],
      "stateMutability": "view",
      "type": "function",
      "constant": true
    }
  ],
  "bytecode": "0x6080604052600060065560006007553480156200001b57600080fd5b506040518060400160405280600d81526020017f4368696c65616e20546f6b656e000000000000000000000000000000000000008152506040518060400160405280600481526020017f434c5054000000000000000000000000000000000000000000000000000000008152508160039080519060200190620000a092919062000281565b508060049080519060200190620000b992919062000281565b505050620000d0336127106200011760201b60201c565b33600560006101000a81548173ffffffffffffffffffffffffffffffffffffffff021916908373ffffffffffffffffffffffffffffffffffffffff160217905550620004cf565b600073ffffffffffffffffffffffffffffffffffffffff168273ffffffffffffffffffffffffffffffffffffffff1614156200018a576040517f08c379a0000000000000000000000000000000000000000000000000000000008152600401620001819062000384565b60405180910390fd5b6200019e600083836200027c60201b60201c565b8060026000828254620001b29190620003d4565b92505081905550806000808473ffffffffffffffffffffffffffffffffffffffff1673ffffffffffffffffffffffffffffffffffffffff1681526020019081526020016000206000828254620002099190620003d4565b925050819055508173ffffffffffffffffffffffffffffffffffffffff16600073ffffffffffffffffffffffffffffffffffffffff167fddf252ad1be2c89b69c2b068fc378daa952ba7f163c4a11628f55a4df523b3ef83604051620002709190620003a6565b60405180910390a35050565b505050565b8280546200028f906200043b565b90600052602060002090601f016020900481019282620002b35760008555620002ff565b82601f10620002ce57805160ff1916838001178555620002ff565b82800160010185558215620002ff579182015b82811115620002fe578251825591602001919060010190620002e1565b5b5090506200030e919062000312565b5090565b5b808211156200032d57600081600090555060010162000313565b5090565b600062000340601f83620003c3565b91507f45524332303a206d696e7420746f20746865207a65726f2061646472657373006000830152602082019050919050565b6200037e8162000431565b82525050565b600060208201905081810360008301526200039f8162000331565b9050919050565b6000602082019050620003bd600083018462000373565b92915050565b600082825260208201905092915050565b6000620003e18262000431565b9150620003ee8362000431565b9250827fffffffffffffffffffffffffffffffffffffffffffffffffffffffffffffffff0382111562000426576200042562000471565b5b828201905092915050565b6000819050919050565b600060028204905060018216806200045457607f821691505b602082108114156200046b576200046a620004a0565b5b50919050565b7f4e487b7100000000000000000000000000000000000000000000000000000000600052601160045260246000fd5b7f4e487b7100000000000000000000000000000000000000000000000000000000600052602260045260246000fd5b614b4c80620004df6000396000f3fe6080604052600436106101f25760003560e01c80635dc74f781161010d578063bb674f20116100a0578063d99b73d81161006f578063d99b73d8146107cc578063dd62ed3e146107fc578063f3aa0bb214610839578063f6556d3b14610876578063fb699fa3146108b8576101f9565b8063bb674f20146106cd578063c260dcb11461070d578063c67dbe8c1461074d578063cddb534d1461078f576101f9565b806395e52d98116100dc57806395e52d98146105fd578063a457c2d714610628578063a9059cbb14610665578063b908db70146106a2576101f9565b80635dc74f781461052857806370a08231146105655780638d9520e6146105a257806395d89b41146105d2576101f9565b80632c62c7be11610185578063395093511161015457806339509351146104765780633bfa2e24146104b35780634300b318146104e35780635b24f8f7146104ff576101f9565b80632c62c7be146103b5578063313ce567146103d15780633166aa9b146103fc578063317eaf0714610439576101f9565b8063194e19b0116101c1578063194e19b0146102bc5780631beeba56146102fe5780631c03fafc1461033b57806323b872dd14610378576101f9565b806306fdde03146101fe578063095ea7b3146102295780630ae50a391461026657806318160ddd14610291576101f9565b366101f957005b600080fd5b34801561020a57600080fd5b506102136108e8565b60405161022091906143ce565b60405180910390f35b34801561023557600080fd5b50610250600480360381019061024b9190613929565b61097a565b60405161025d9190614398565b60405180910390f35b34801561027257600080fd5b5061027b610998565b604051610288919061437d565b60405180910390f35b34801561029d57600080fd5b506102a66109c2565b6040516102b39190614634565b60405180910390f35b3480156102c857600080fd5b506102e360048036038101906102de9190613965565b6109cc565b6040516102f596959493929190614678565b60405180910390f35b34801561030a57600080fd5b5061032560048036038101906103209190613965565b610b20565b6040516103329190614612565b60405180910390f35b34801561034757600080fd5b50610362600480360381019061035d9190613875565b610c0e565b60405161036f9190614634565b60405180910390f35b34801561038457600080fd5b5061039f600480360381019061039a91906138da565b610c26565b6040516103ac9190614398565b60405180910390f35b6103cf60048036038101906103ca91906139ca565b610d27565b005b3480156103dd57600080fd5b506103e6610ee7565b6040516103f39190614786565b60405180910390f35b34801561040857600080fd5b50610423600480360381019061041e919061398e565b610ef0565b60405161043091906145f0565b60405180910390f35b34801561044557600080fd5b50610460600480360381019061045b9190613875565b611177565b60405161046d9190614634565b60405180910390f35b34801561048257600080fd5b5061049d60048036038101906104989190613929565b61118f565b6040516104aa9190614398565b60405180910390f35b6104cd60048036038101906104c89190613965565b61123b565b6040516104da9190614398565b60405180910390f35b6104fd60048036038101906104f89190613965565b6116b9565b005b34801561050b57600080fd5b5061052660048036038101906105219190613a80565b6118b3565b005b34801561053457600080fd5b5061054f600480360381019061054a9190613965565b611980565b60405161055c91906145f0565b60405180910390f35b34801561057157600080fd5b5061058c60048036038101906105879190613875565b611bc9565b6040516105999190614634565b60405180910390f35b6105bc60048036038101906105b79190613965565b611c11565b6040516105c99190614398565b60405180910390f35b3480156105de57600080fd5b506105e7611ffd565b6040516105f491906143ce565b60405180910390f35b34801561060957600080fd5b5061061261208f565b60405161061f9190614634565b60405180910390f35b34801561063457600080fd5b5061064f600480360381019061064a9190613929565b612095565b60405161065c9190614398565b60405180910390f35b34801561067157600080fd5b5061068c60048036038101906106879190613929565b612189565b6040516106999190614398565b60405180910390f35b3480156106ae57600080fd5b506106b76121a7565b6040516106c49190614634565b60405180910390f35b3480156106d957600080fd5b506106f460048036038101906106ef9190613965565b6121ad565b60405161070494939291906146e0565b60405180910390f35b34801561071957600080fd5b50610734600480360381019061072f9190613929565b612272565b60405161074494939291906146e0565b60405180910390f35b34801561075957600080fd5b50610774600480360381019061076f9190613929565b612344565b60405161078696959493929190614678565b60405180910390f35b34801561079b57600080fd5b506107b660048036038101906107b19190613875565b6124a5565b6040516107c39190614634565b60405180910390f35b6107e660048036038101906107e19190613965565b6124bd565b6040516107f39190614398565b60405180910390f35b34801561080857600080fd5b50610823600480360381019061081e919061389e565b6125d5565b6040516108309190614634565b60405180910390f35b34801561084557600080fd5b50610860600480360381019061085b919061398e565b61265c565b60405161086d91906145f0565b60405180910390f35b34801561088257600080fd5b5061089d60048036038101906108989190613929565b6128e3565b6040516108af96959493929190614678565b60405180910390f35b6108d260048036038101906108cd9190613a31565b612a44565b6040516108df91906143b3565b60405180910390f35b6060600380546108f790614975565b80601f016020809104026020016040519081016040528092919081815260200182805461092390614975565b80156109705780601f1061094557610100808354040283529160200191610970565b820191906000526020600020905b81548152906001019060200180831161095357829003601f168201915b5050505050905090565b600061098e61098761320a565b8484613212565b6001905092915050565b6000600560009054906101000a900473ffffffffffffffffffffffffffffffffffffffff16905090565b6000600254905090565b600d602052806000526040600020600091509050806000015490806001016040518060800160405290816000820154815260200160018201548152602001600282018054610a1990614975565b80601f0160208091040260200160405190810160405280929190818152602001828054610a4590614975565b8015610a925780601f10610a6757610100808354040283529160200191610a92565b820191906000526020600020905b815481529060010190602001808311610a7557829003601f168201915b505050505081526020016003820160009054906101000a900460ff161515151581525050908060050160009054906101000a900473ffffffffffffffffffffffffffffffffffffffff16908060060160009054906101000a900473ffffffffffffffffffffffffffffffffffffffff16908060070154908060080160009054906101000a900460ff16905086565b610b28613661565b600860008381526020019081526020016000206040518060800160405290816000820154815260200160018201548152602001600282018054610b6a90614975565b80601f0160208091040260200160405190810160405280929190818152602001828054610b9690614975565b8015610be35780601f10610bb857610100808354040283529160200191610be3565b820191906000526020600020905b815481529060010190602001808311610bc657829003601f168201915b505050505081526020016003820160009054906101000a900460ff1615151515815250509050919050565b600c6020528060005260406000206000915090505481565b6000610c338484846133dd565b6000600160008673ffffffffffffffffffffffffffffffffffffffff1673ffffffffffffffffffffffffffffffffffffffff1681526020019081526020016000206000610c7e61320a565b73ffffffffffffffffffffffffffffffffffffffff1673ffffffffffffffffffffffffffffffffffffffff16815260200190815260200160002054905082811015610cfe576040517f08c379a0000000000000000000000000000000000000000000000000000000008152600401610cf590614510565b60405180910390fd5b610d1b85610d0a61320a565b8584610d169190614885565b613212565b60019150509392505050565b600560009054906101000a900473ffffffffffffffffffffffffffffffffffffffff1673ffffffffffffffffffffffffffffffffffffffff163373ffffffffffffffffffffffffffffffffffffffff1614610db7576040517f08c379a0000000000000000000000000000000000000000000000000000000008152600401610dae906144d0565b60405180910390fd5b6000825111610dfb576040517f08c379a0000000000000000000000000000000000000000000000000000000008152600401610df290614490565b60405180910390fd5b60066000815480929190610e0e906149a7565b91905055506040518060800160405280600654815260200184815260200183815260200182151581525060086000600654815260200190815260200160002060008201518160000155602082015181600101556040820151816002019080519060200190610e7d92919061368b565b5060608201518160030160006101000a81548160ff0219169083151502179055509050507f5d11aed1842005d2aad4bd5cd443eb580b0abd53c28f7b77bfeef1b321ee594e60065484848433604051610eda95949392919061472c565b60405180910390a1505050565b60006012905090565b610ef8613711565b600e60008373ffffffffffffffffffffffffffffffffffffffff1673ffffffffffffffffffffffffffffffffffffffff16815260200190815260200160002060008481526020019081526020016000206040518060c001604052908160008201548152602001600182016040518060800160405290816000820154815260200160018201548152602001600282018054610f9190614975565b80601f0160208091040260200160405190810160405280929190818152602001828054610fbd90614975565b801561100a5780601f10610fdf5761010080835404028352916020019161100a565b820191906000526020600020905b815481529060010190602001808311610fed57829003601f168201915b505050505081526020016003820160009054906101000a900460ff16151515158152505081526020016005820160009054906101000a900473ffffffffffffffffffffffffffffffffffffffff1673ffffffffffffffffffffffffffffffffffffffff1673ffffffffffffffffffffffffffffffffffffffff1681526020016006820160009054906101000a900473ffffffffffffffffffffffffffffffffffffffff1673ffffffffffffffffffffffffffffffffffffffff1673ffffffffffffffffffffffffffffffffffffffff168152602001600782015481526020016008820160009054906101000a900460ff166002811115611133577f4e487b7100000000000000000000000000000000000000000000000000000000600052602160045260246000fd5b600281111561116b577f4e487b7100000000000000000000000000000000000000000000000000000000600052602160045260246000fd5b81525050905092915050565b600a6020528060005260406000206000915090505481565b600061123161119c61320a565b8484600160006111aa61320a565b73ffffffffffffffffffffffffffffffffffffffff1673ffffffffffffffffffffffffffffffffffffffff16815260200190815260200160002060008873ffffffffffffffffffffffffffffffffffffffff1673ffffffffffffffffffffffffffffffffffffffff1681526020019081526020016000205461122c919061482f565b613212565b6001905092915050565b6000670de0b6b3a76400003411611287576040517f08c379a000000000000000000000000000000000000000000000000000000000815260040161127e90614590565b60405180910390fd5b600061129283611980565b9050600160028111156112ce577f4e487b7100000000000000000000000000000000000000000000000000000000600052602160045260246000fd5b8160a00151600281111561130b577f4e487b7100000000000000000000000000000000000000000000000000000000600052602160045260246000fd5b1461131557600080fd5b3373ffffffffffffffffffffffffffffffffffffffff16816060015173ffffffffffffffffffffffffffffffffffffffff1614611387576040517f08c379a000000000000000000000000000000000000000000000000000000000815260040161137e90614470565b60405180910390fd5b80608001513410156113ce576040517f08c379a00000000000000000000000000000000000000000000000000000000081526004016113c5906144f0565b60405180910390fd5b6002600d600085815260200190815260200160002060080160006101000a81548160ff0219169083600281111561142e577f4e487b7100000000000000000000000000000000000000000000000000000000600052602160045260246000fd5b02179055506002600f60003373ffffffffffffffffffffffffffffffffffffffff1673ffffffffffffffffffffffffffffffffffffffff168152602001908152602001600020600085815260200190815260200160002060080160006101000a81548160ff021916908360028111156114d0577f4e487b7100000000000000000000000000000000000000000000000000000000600052602160045260246000fd5b0217905550806060015173ffffffffffffffffffffffffffffffffffffffff16600e6000836040015173ffffffffffffffffffffffffffffffffffffffff1673ffffffffffffffffffffffffffffffffffffffff168152602001908152602001600020600085815260200190815260200160002060060160009054906101000a900473ffffffffffffffffffffffffffffffffffffffff1673ffffffffffffffffffffffffffffffffffffffff16146115be576040517f08c379a00000000000000000000000000000000000000000000000000000000081526004016115b5906144b0565b60405180910390fd5b6002600e6000836040015173ffffffffffffffffffffffffffffffffffffffff1673ffffffffffffffffffffffffffffffffffffffff168152602001908152602001600020600085815260200190815260200160002060080160006101000a81548160ff0219169083600281111561165f577f4e487b7100000000000000000000000000000000000000000000000000000000600052602160045260246000fd5b0217905550806040015173ffffffffffffffffffffffffffffffffffffffff166108fc349081150290604051600060405180830381858888f193505050501580156116ae573d6000803e3d6000fd5b506001915050919050565b60006008600083815260200190815260200160002060405180608001604052908160008201548152602001600182015481526020016002820180546116fd90614975565b80601f016020809104026020016040519081016040528092919081815260200182805461172990614975565b80156117765780601f1061174b57610100808354040283529160200191611776565b820191906000526020600020905b81548152906001019060200180831161175957829003601f168201915b505050505081526020016003820160009054906101000a900460ff161515151581525050905060008160000151116117ad57600080fd5b80602001513410156117be57600080fd5b3373ffffffffffffffffffffffffffffffffffffffff166108fc349081150290604051600060405180830381858888f19350505050158015611804573d6000803e3d6000fd5b50600a60003373ffffffffffffffffffffffffffffffffffffffff1673ffffffffffffffffffffffffffffffffffffffff1681526020019081526020016000206000815480929190611855906149a7565b919050555061187681600001518260200151836040015184606001516118b3565b7ffd0d7173d6997326474ab81608a90978f07bc4a25fe07069ea6934b7782b763682336040516118a792919061464f565b60405180910390a15050565b6040518060800160405280858152602001848152602001838152602001821515815250600960003373ffffffffffffffffffffffffffffffffffffffff1673ffffffffffffffffffffffffffffffffffffffff16815260200190815260200160002060008681526020019081526020016000206000820151816000015560208201518160010155604082015181600201908051906020019061195692919061368b565b5060608201518160030160006101000a81548160ff02191690831515021790555090505050505050565b611988613711565b600d60008381526020019081526020016000206040518060c0016040529081600082015481526020016001820160405180608001604052908160008201548152602001600182015481526020016002820180546119e490614975565b80601f0160208091040260200160405190810160405280929190818152602001828054611a1090614975565b8015611a5d5780601f10611a3257610100808354040283529160200191611a5d565b820191906000526020600020905b815481529060010190602001808311611a4057829003601f168201915b505050505081526020016003820160009054906101000a900460ff16151515158152505081526020016005820160009054906101000a900473ffffffffffffffffffffffffffffffffffffffff1673ffffffffffffffffffffffffffffffffffffffff1673ffffffffffffffffffffffffffffffffffffffff1681526020016006820160009054906101000a900473ffffffffffffffffffffffffffffffffffffffff1673ffffffffffffffffffffffffffffffffffffffff1673ffffffffffffffffffffffffffffffffffffffff168152602001600782015481526020016008820160009054906101000a900460ff166002811115611b86577f4e487b7100000000000000000000000000000000000000000000000000000000600052602160045260246000fd5b6002811115611bbe577f4e487b7100000000000000000000000000000000000000000000000000000000600052602160045260246000fd5b815250509050919050565b60008060008373ffffffffffffffffffffffffffffffffffffffff1673ffffffffffffffffffffffffffffffffffffffff168152602001908152602001600020549050919050565b6000670de0b6b3a76400003411611c5d576040517f08c379a0000000000000000000000000000000000000000000000000000000008152600401611c5490614590565b60405180910390fd5b6000611c6883611980565b905060006002811115611ca4577f4e487b7100000000000000000000000000000000000000000000000000000000600052602160045260246000fd5b8160a001516002811115611ce1577f4e487b7100000000000000000000000000000000000000000000000000000000600052602160045260246000fd5b14611ceb57600080fd5b3373ffffffffffffffffffffffffffffffffffffffff16816060015173ffffffffffffffffffffffffffffffffffffffff1614611d5d576040517f08c379a0000000000000000000000000000000000000000000000000000000008152600401611d54906145d0565b60405180910390fd5b6001600d600085815260200190815260200160002060080160006101000a81548160ff02191690836002811115611dbd577f4e487b7100000000000000000000000000000000000000000000000000000000600052602160045260246000fd5b02179055506001600f60003373ffffffffffffffffffffffffffffffffffffffff1673ffffffffffffffffffffffffffffffffffffffff168152602001908152602001600020600085815260200190815260200160002060080160006101000a81548160ff02191690836002811115611e5f577f4e487b7100000000000000000000000000000000000000000000000000000000600052602160045260246000fd5b0217905550806060015173ffffffffffffffffffffffffffffffffffffffff16600e6000836040015173ffffffffffffffffffffffffffffffffffffffff1673ffffffffffffffffffffffffffffffffffffffff168152602001908152602001600020600085815260200190815260200160002060060160009054906101000a900473ffffffffffffffffffffffffffffffffffffffff1673ffffffffffffffffffffffffffffffffffffffff1614611f4d576040517f08c379a0000000000000000000000000000000000000000000000000000000008152600401611f44906144b0565b60405180910390fd5b6001600e6000836040015173ffffffffffffffffffffffffffffffffffffffff1673ffffffffffffffffffffffffffffffffffffffff168152602001908152602001600020600085815260200190815260200160002060080160006101000a81548160ff02191690836002811115611fee577f4e487b7100000000000000000000000000000000000000000000000000000000600052602160045260246000fd5b02179055506001915050919050565b60606004805461200c90614975565b80601f016020809104026020016040519081016040528092919081815260200182805461203890614975565b80156120855780601f1061205a57610100808354040283529160200191612085565b820191906000526020600020905b81548152906001019060200180831161206857829003601f168201915b5050505050905090565b60065481565b600080600160006120a461320a565b73ffffffffffffffffffffffffffffffffffffffff1673ffffffffffffffffffffffffffffffffffffffff16815260200190815260200160002060008573ffffffffffffffffffffffffffffffffffffffff1673ffffffffffffffffffffffffffffffffffffffff16815260200190815260200160002054905082811015612161576040517f08c379a0000000000000000000000000000000000000000000000000000000008152600401612158906145b0565b60405180910390fd5b61217e61216c61320a565b8585846121799190614885565b613212565b600191505092915050565b600061219d61219661320a565b84846133dd565b6001905092915050565b60075481565b60086020528060005260406000206000915090508060000154908060010154908060020180546121dc90614975565b80601f016020809104026020016040519081016040528092919081815260200182805461220890614975565b80156122555780601f1061222a57610100808354040283529160200191612255565b820191906000526020600020905b81548152906001019060200180831161223857829003601f168201915b5050505050908060030160009054906101000a900460ff16905084565b6009602052816000526040600020602052806000526040600020600091509150508060000154908060010154908060020180546122ae90614975565b80601f01602080910402602001604051908101604052809291908181526020018280546122da90614975565b80156123275780601f106122fc57610100808354040283529160200191612327565b820191906000526020600020905b81548152906001019060200180831161230a57829003601f168201915b5050505050908060030160009054906101000a900460ff16905084565b600f6020528160005260406000206020528060005260406000206000915091505080600001549080600101604051806080016040529081600082015481526020016001820154815260200160028201805461239e90614975565b80601f01602080910402602001604051908101604052809291908181526020018280546123ca90614975565b80156124175780601f106123ec57610100808354040283529160200191612417565b820191906000526020600020905b8154815290600101906020018083116123fa57829003601f168201915b505050505081526020016003820160009054906101000a900460ff161515151581525050908060050160009054906101000a900473ffffffffffffffffffffffffffffffffffffffff16908060060160009054906101000a900473ffffffffffffffffffffffffffffffffffffffff16908060070154908060080160009054906101000a900460ff16905086565b600b6020528060005260406000206000915090505481565b6000806124c983611980565b905060016002811115612505577f4e487b7100000000000000000000000000000000000000000000000000000000600052602160045260246000fd5b8160a001516002811115612542577f4e487b7100000000000000000000000000000000000000000000000000000000600052602160045260246000fd5b14806125c2575060006002811115612583577f4e487b7100000000000000000000000000000000000000000000000000000000600052602160045260246000fd5b8160a0015160028111156125c0577f4e487b7100000000000000000000000000000000000000000000000000000000600052602160045260246000fd5b145b6125cb57600080fd5b6001915050919050565b6000600160008473ffffffffffffffffffffffffffffffffffffffff1673ffffffffffffffffffffffffffffffffffffffff16815260200190815260200160002060008373ffffffffffffffffffffffffffffffffffffffff1673ffffffffffffffffffffffffffffffffffffffff16815260200190815260200160002054905092915050565b612664613711565b600f60008373ffffffffffffffffffffffffffffffffffffffff1673ffffffffffffffffffffffffffffffffffffffff16815260200190815260200160002060008481526020019081526020016000206040518060c0016040529081600082015481526020016001820160405180608001604052908160008201548152602001600182015481526020016002820180546126fd90614975565b80601f016020809104026020016040519081016040528092919081815260200182805461272990614975565b80156127765780601f1061274b57610100808354040283529160200191612776565b820191906000526020600020905b81548152906001019060200180831161275957829003601f168201915b505050505081526020016003820160009054906101000a900460ff16151515158152505081526020016005820160009054906101000a900473ffffffffffffffffffffffffffffffffffffffff1673ffffffffffffffffffffffffffffffffffffffff1673ffffffffffffffffffffffffffffffffffffffff1681526020016006820160009054906101000a900473ffffffffffffffffffffffffffffffffffffffff1673ffffffffffffffffffffffffffffffffffffffff1673ffffffffffffffffffffffffffffffffffffffff168152602001600782015481526020016008820160009054906101000a900460ff16600281111561289f577f4e487b7100000000000000000000000000000000000000000000000000000000600052602160045260246000fd5b60028111156128d7577f4e487b7100000000000000000000000000000000000000000000000000000000600052602160045260246000fd5b81525050905092915050565b600e6020528160005260406000206020528060005260406000206000915091505080600001549080600101604051806080016040529081600082015481526020016001820154815260200160028201805461293d90614975565b80601f016020809104026020016040519081016040528092919081815260200182805461296990614975565b80156129b65780601f1061298b576101008083540402835291602001916129b6565b820191906000526020600020905b81548152906001019060200180831161299957829003601f168201915b505050505081526020016003820160009054906101000a900460ff161515151581525050908060050160009054906101000a900473ffffffffffffffffffffffffffffffffffffffff16908060060160009054906101000a900473ffffffffffffffffffffffffffffffffffffffff16908060070154908060080160009054906101000a900460ff16905086565b60008173ffffffffffffffffffffffffffffffffffffffff163373ffffffffffffffffffffffffffffffffffffffff161415612ab5576040517f08c379a0000000000000000000000000000000000000000000000000000000008152600401612aac90614550565b60405180910390fd5b6000600860008681526020019081526020016000206040518060800160405290816000820154815260200160018201548152602001600282018054612af990614975565b80601f0160208091040260200160405190810160405280929190818152602001828054612b2590614975565b8015612b725780601f10612b4757610100808354040283529160200191612b72565b820191906000526020600020905b815481529060010190602001808311612b5557829003601f168201915b505050505081526020016003820160009054906101000a900460ff16151515158152505090506000816000015111612bdf576040517f08c379a0000000000000000000000000000000000000000000000000000000008152600401612bd690614430565b60405180910390fd5b60076000815480929190612bf2906149a7565b919050555060006040518060c0016040528060075481526020018381526020013373ffffffffffffffffffffffffffffffffffffffff1681526020018573ffffffffffffffffffffffffffffffffffffffff16815260200186815260200160006002811115612c8a577f4e487b7100000000000000000000000000000000000000000000000000000000600052602160045260246000fd5b815250905080600d600060075481526020019081526020016000206000820151816000015560208201518160010160008201518160000155602082015181600101556040820151816002019080519060200190612ce892919061368b565b5060608201518160030160006101000a81548160ff021916908315150217905550505060408201518160050160006101000a81548173ffffffffffffffffffffffffffffffffffffffff021916908373ffffffffffffffffffffffffffffffffffffffff16021790555060608201518160060160006101000a81548173ffffffffffffffffffffffffffffffffffffffff021916908373ffffffffffffffffffffffffffffffffffffffff1602179055506080820151816007015560a08201518160080160006101000a81548160ff02191690836002811115612df4577f4e487b7100000000000000000000000000000000000000000000000000000000600052602160045260246000fd5b0217905550905050600b60003373ffffffffffffffffffffffffffffffffffffffff1673ffffffffffffffffffffffffffffffffffffffff1681526020019081526020016000206000815480929190612e4c906149a7565b9190505550600c60008573ffffffffffffffffffffffffffffffffffffffff1673ffffffffffffffffffffffffffffffffffffffff1681526020019081526020016000206000815480929190612ea1906149a7565b919050555080600e60003373ffffffffffffffffffffffffffffffffffffffff1673ffffffffffffffffffffffffffffffffffffffff168152602001908152602001600020600060075481526020019081526020016000206000820151816000015560208201518160010160008201518160000155602082015181600101556040820151816002019080519060200190612f3c92919061368b565b5060608201518160030160006101000a81548160ff021916908315150217905550505060408201518160050160006101000a81548173ffffffffffffffffffffffffffffffffffffffff021916908373ffffffffffffffffffffffffffffffffffffffff16021790555060608201518160060160006101000a81548173ffffffffffffffffffffffffffffffffffffffff021916908373ffffffffffffffffffffffffffffffffffffffff1602179055506080820151816007015560a08201518160080160006101000a81548160ff02191690836002811115613048577f4e487b7100000000000000000000000000000000000000000000000000000000600052602160045260246000fd5b021790555090505080600f60008673ffffffffffffffffffffffffffffffffffffffff1673ffffffffffffffffffffffffffffffffffffffff1681526020019081526020016000206000600754815260200190815260200160002060008201518160000155602082015181600101600082015181600001556020820151816001015560408201518160020190805190602001906130e692919061368b565b5060608201518160030160006101000a81548160ff021916908315150217905550505060408201518160050160006101000a81548173ffffffffffffffffffffffffffffffffffffffff021916908373ffffffffffffffffffffffffffffffffffffffff16021790555060608201518160060160006101000a81548173ffffffffffffffffffffffffffffffffffffffff021916908373ffffffffffffffffffffffffffffffffffffffff1602179055506080820151816007015560a08201518160080160006101000a81548160ff021916908360028111156131f2577f4e487b7100000000000000000000000000000000000000000000000000000000600052602160045260246000fd5b02179055509050508060a00151925050509392505050565b600033905090565b600073ffffffffffffffffffffffffffffffffffffffff168373ffffffffffffffffffffffffffffffffffffffff161415613282576040517f08c379a000000000000000000000000000000000000000000000000000000000815260040161327990614570565b60405180910390fd5b600073ffffffffffffffffffffffffffffffffffffffff168273ffffffffffffffffffffffffffffffffffffffff1614156132f2576040517f08c379a00000000000000000000000000000000000000000000000000000000081526004016132e990614410565b60405180910390fd5b80600160008573ffffffffffffffffffffffffffffffffffffffff1673ffffffffffffffffffffffffffffffffffffffff16815260200190815260200160002060008473ffffffffffffffffffffffffffffffffffffffff1673ffffffffffffffffffffffffffffffffffffffff168152602001908152602001600020819055508173ffffffffffffffffffffffffffffffffffffffff168373ffffffffffffffffffffffffffffffffffffffff167f8c5be1e5ebec7d5bd14f71427d1e84f3dd0314c0f7b2291e5b200ac8c7c3b925836040516133d09190614634565b60405180910390a3505050565b600073ffffffffffffffffffffffffffffffffffffffff168373ffffffffffffffffffffffffffffffffffffffff16141561344d576040517f08c379a000000000000000000000000000000000000000000000000000000000815260040161344490614530565b60405180910390fd5b600073ffffffffffffffffffffffffffffffffffffffff168273ffffffffffffffffffffffffffffffffffffffff1614156134bd576040517f08c379a00000000000000000000000000000000000000000000000000000000081526004016134b4906143f0565b60405180910390fd5b6134c883838361365c565b60008060008573ffffffffffffffffffffffffffffffffffffffff1673ffffffffffffffffffffffffffffffffffffffff1681526020019081526020016000205490508181101561354e576040517f08c379a000000000000000000000000000000000000000000000000000000000815260040161354590614450565b60405180910390fd5b818161355a9190614885565b6000808673ffffffffffffffffffffffffffffffffffffffff1673ffffffffffffffffffffffffffffffffffffffff16815260200190815260200160002081905550816000808573ffffffffffffffffffffffffffffffffffffffff1673ffffffffffffffffffffffffffffffffffffffff16815260200190815260200160002060008282546135ea919061482f565b925050819055508273ffffffffffffffffffffffffffffffffffffffff168473ffffffffffffffffffffffffffffffffffffffff167fddf252ad1be2c89b69c2b068fc378daa952ba7f163c4a11628f55a4df523b3ef8460405161364e9190614634565b60405180910390a350505050565b505050565b60405180608001604052806000815260200160008152602001606081526020016000151581525090565b82805461369790614975565b90600052602060002090601f0160209004810192826136b95760008555613700565b82601f106136d257805160ff1916838001178555613700565b82800160010185558215613700579182015b828111156136ff5782518255916020019190600101906136e4565b5b50905061370d91906137b1565b5090565b6040518060c001604052806000815260200161372b613661565b8152602001600073ffffffffffffffffffffffffffffffffffffffff168152602001600073ffffffffffffffffffffffffffffffffffffffff16815260200160008152602001600060028111156137ab577f4e487b7100000000000000000000000000000000000000000000000000000000600052602160045260246000fd5b81525090565b5b808211156137ca5760008160009055506001016137b2565b5090565b60006137e16137dc846147d2565b6147a1565b9050828152602081018484840111156137f957600080fd5b613804848285614933565b509392505050565b60008135905061381b81614ad1565b92915050565b60008135905061383081614ae8565b92915050565b600082601f83011261384757600080fd5b81356138578482602086016137ce565b91505092915050565b60008135905061386f81614aff565b92915050565b60006020828403121561388757600080fd5b60006138958482850161380c565b91505092915050565b600080604083850312156138b157600080fd5b60006138bf8582860161380c565b92505060206138d08582860161380c565b9150509250929050565b6000806000606084860312156138ef57600080fd5b60006138fd8682870161380c565b935050602061390e8682870161380c565b925050604061391f86828701613860565b9150509250925092565b6000806040838503121561393c57600080fd5b600061394a8582860161380c565b925050602061395b85828601613860565b9150509250929050565b60006020828403121561397757600080fd5b600061398584828501613860565b91505092915050565b600080604083850312156139a157600080fd5b60006139af85828601613860565b92505060206139c08582860161380c565b9150509250929050565b6000806000606084860312156139df57600080fd5b60006139ed86828701613860565b935050602084013567ffffffffffffffff811115613a0a57600080fd5b613a1686828701613836565b9250506040613a2786828701613821565b9150509250925092565b600080600060608486031215613a4657600080fd5b6000613a5486828701613860565b9350506020613a6586828701613860565b9250506040613a768682870161380c565b9150509250925092565b60008060008060808587031215613a9657600080fd5b6000613aa487828801613860565b9450506020613ab587828801613860565b935050604085013567ffffffffffffffff811115613ad257600080fd5b613ade87828801613836565b9250506060613aef87828801613821565b91505092959194509250565b613b04816148b9565b82525050565b613b13816148b9565b82525050565b613b22816148cb565b82525050565b613b31816148cb565b82525050565b613b4081614921565b82525050565b613b4f81614921565b82525050565b6000613b6082614802565b613b6a818561480d565b9350613b7a818560208601614942565b613b8381614aac565b840191505092915050565b6000613b9982614802565b613ba3818561481e565b9350613bb3818560208601614942565b613bbc81614aac565b840191505092915050565b6000613bd460238361481e565b91507f45524332303a207472616e7366657220746f20746865207a65726f206164647260008301527f65737300000000000000000000000000000000000000000000000000000000006020830152604082019050919050565b6000613c3a60228361481e565b91507f45524332303a20617070726f766520746f20746865207a65726f20616464726560008301527f73730000000000000000000000000000000000000000000000000000000000006020830152604082019050919050565b6000613ca0602c8361481e565b91507f456c20646f63756d656e746f206e6f2065786973746520656e206e756573747260008301527f6f7320726567697374726f7300000000000000000000000000000000000000006020830152604082019050919050565b6000613d0660268361481e565b91507f45524332303a207472616e7366657220616d6f756e742065786365656473206260008301527f616c616e636500000000000000000000000000000000000000000000000000006020830152604082019050919050565b6000613d6c603c8361481e565b91507f536f6c6f20656c2064657374696e61746172696f20707565646520416363656460008301527f657220616c207061676f206465206573746520446f63756d656e746f000000006020830152604082019050919050565b6000613dd260248361481e565b91507f456c206e6f6d62726520646562652074656e657220756e206c6172676f206d6960008301527f6e696d6f000000000000000000000000000000000000000000000000000000006020830152604082019050919050565b6000613e38602c8361481e565b91507f456c2064657374696e61746172696f206e6f20636f696e6369646520636f6e2060008301527f656c206465206f726967656e00000000000000000000000000000000000000006020830152604082019050919050565b6000613e9e602a8361481e565b91507f46756e63696f6e616c6964616420736f6c6f207065726d69746964612070617260008301527f6120656c206f776e6572000000000000000000000000000000000000000000006020830152604082019050919050565b6000613f0460318361481e565b91507f456c206d6f6e746f20656e766961646f206465626520736572206d61796f722060008301527f6f20696775616c20616c2070726563696f0000000000000000000000000000006020830152604082019050919050565b6000613f6a60288361481e565b91507f45524332303a207472616e7366657220616d6f756e742065786365656473206160008301527f6c6c6f77616e63650000000000000000000000000000000000000000000000006020830152604082019050919050565b6000613fd060258361481e565b91507f45524332303a207472616e736665722066726f6d20746865207a65726f20616460008301527f64726573730000000000000000000000000000000000000000000000000000006020830152604082019050919050565b600061403660398361481e565b91507f456c20656d69736f722064656c20646f63756d656e746f20646562652073657260008301527f2064697374696e746f20616c2064657374696e61746172696f000000000000006020830152604082019050919050565b600061409c60248361481e565b91507f45524332303a20617070726f76652066726f6d20746865207a65726f2061646460008301527f72657373000000000000000000000000000000000000000000000000000000006020830152604082019050919050565b600061410260128361481e565b91507f4d6f6e746f20696e737566696369656e746500000000000000000000000000006000830152602082019050919050565b600061414260258361481e565b91507f45524332303a2064656372656173656420616c6c6f77616e63652062656c6f7760008301527f207a65726f0000000000000000000000000000000000000000000000000000006020830152604082019050919050565b60006141a8602f8361481e565b91507f536f6c6f20656c2064657374696e61746172696f20707565646520616365707460008301527f617220656c20446f63756d656e746f00000000000000000000000000000000006020830152604082019050919050565b600060c0830160008301516142196000860182614350565b5060208301518482036020860152614231828261428a565b91505060408301516142466040860182613afb565b5060608301516142596060860182613afb565b50608083015161426c6080860182614350565b5060a083015161427f60a0860182613b37565b508091505092915050565b60006080830160008301516142a26000860182614350565b5060208301516142b56020860182614350565b50604083015184820360408601526142cd8282613b55565b91505060608301516142e26060860182613b19565b508091505092915050565b60006080830160008301516143056000860182614350565b5060208301516143186020860182614350565b50604083015184820360408601526143308282613b55565b91505060608301516143456060860182613b19565b508091505092915050565b6143598161490a565b82525050565b6143688161490a565b82525050565b61437781614914565b82525050565b60006020820190506143926000830184613b0a565b92915050565b60006020820190506143ad6000830184613b28565b92915050565b60006020820190506143c86000830184613b46565b92915050565b600060208201905081810360008301526143e88184613b8e565b905092915050565b6000602082019050818103600083015261440981613bc7565b9050919050565b6000602082019050818103600083015261442981613c2d565b9050919050565b6000602082019050818103600083015261444981613c93565b9050919050565b6000602082019050818103600083015261446981613cf9565b9050919050565b6000602082019050818103600083015261448981613d5f565b9050919050565b600060208201905081810360008301526144a981613dc5565b9050919050565b600060208201905081810360008301526144c981613e2b565b9050919050565b600060208201905081810360008301526144e981613e91565b9050919050565b6000602082019050818103600083015261450981613ef7565b9050919050565b6000602082019050818103600083015261452981613f5d565b9050919050565b6000602082019050818103600083015261454981613fc3565b9050919050565b6000602082019050818103600083015261456981614029565b9050919050565b600060208201905081810360008301526145898161408f565b9050919050565b600060208201905081810360008301526145a9816140f5565b9050919050565b600060208201905081810360008301526145c981614135565b9050919050565b600060208201905081810360008301526145e98161419b565b9050919050565b6000602082019050818103600083015261460a8184614201565b905092915050565b6000602082019050818103600083015261462c81846142ed565b905092915050565b6000602082019050614649600083018461435f565b92915050565b6000604082019050614664600083018561435f565b6146716020830184613b0a565b9392505050565b600060c08201905061468d600083018961435f565b818103602083015261469f81886142ed565b90506146ae6040830187613b0a565b6146bb6060830186613b0a565b6146c8608083018561435f565b6146d560a0830184613b46565b979650505050505050565b60006080820190506146f5600083018761435f565b614702602083018661435f565b81810360408301526147148185613b8e565b90506147236060830184613b28565b95945050505050565b600060a082019050614741600083018861435f565b61474e602083018761435f565b81810360408301526147608186613b8e565b905061476f6060830185613b28565b61477c6080830184613b0a565b9695505050505050565b600060208201905061479b600083018461436e565b92915050565b6000604051905081810181811067ffffffffffffffff821117156147c8576147c7614a7d565b5b8060405250919050565b600067ffffffffffffffff8211156147ed576147ec614a7d565b5b601f19601f8301169050602081019050919050565b600081519050919050565b600082825260208201905092915050565b600082825260208201905092915050565b600061483a8261490a565b91506148458361490a565b9250827fffffffffffffffffffffffffffffffffffffffffffffffffffffffffffffffff0382111561487a576148796149f0565b5b828201905092915050565b60006148908261490a565b915061489b8361490a565b9250828210156148ae576148ad6149f0565b5b828203905092915050565b60006148c4826148ea565b9050919050565b60008115159050919050565b60008190506148e582614abd565b919050565b600073ffffffffffffffffffffffffffffffffffffffff82169050919050565b6000819050919050565b600060ff82169050919050565b600061492c826148d7565b9050919050565b82818337600083830152505050565b60005b83811015614960578082015181840152602081019050614945565b8381111561496f576000848401525b50505050565b6000600282049050600182168061498d57607f821691505b602082108114156149a1576149a0614a4e565b5b50919050565b60006149b28261490a565b91507fffffffffffffffffffffffffffffffffffffffffffffffffffffffffffffffff8214156149e5576149e46149f0565b5b600182019050919050565b7f4e487b7100000000000000000000000000000000000000000000000000000000600052601160045260246000fd5b7f4e487b7100000000000000000000000000000000000000000000000000000000600052602160045260246000fd5b7f4e487b7100000000000000000000000000000000000000000000000000000000600052602260045260246000fd5b7f4e487b7100000000000000000000000000000000000000000000000000000000600052604160045260246000fd5b6000601f19601f8301169050919050565b60038110614ace57614acd614a1f565b5b50565b614ada816148b9565b8114614ae557600080fd5b50565b614af1816148cb565b8114614afc57600080fd5b50565b614b088161490a565b8114614b1357600080fd5b5056fea26469706673582212208dbf946e5a8ec04defef4ec3233ad9ff6cfeda6914c1a8dd6a271f49a3d08af164736f6c63430008000033",
  "immutableReferences": {},
  "source": "// SPDX-License-Identifier: MIT\r\npragma solidity ^0.8.0;\r\n\r\nimport \"./CLPToken.sol\";\r\n\r\ncontract Notaria is CLPToken() {\r\n    address private owner;\r\n    uint public documentsCount = 0;\r\n    uint public documentosNotariaCount = 0;\r\n    enum EstadoDocumentoNotaria{ ABIERTO, ACEPTADO, FINALIZADO }\r\n\r\n    struct Documento{ \r\n        uint id;\r\n        uint precio;\r\n        string nombre;\r\n        bool estado;\r\n    }\r\n\r\n    struct DocumentoNotaria{\r\n        uint id;\r\n        Documento documento;\r\n        address owner;\r\n        address destinatario;\r\n        uint precio;\r\n        EstadoDocumentoNotaria estado;\r\n    }\r\n\r\n    mapping(uint => Documento) public documentos;\r\n    mapping(address => mapping(uint => Documento)) public documentosCliente;\r\n    mapping(address => uint) public totalDocumentosCliente;\r\n\r\n    mapping(address => uint) public totalDocumentosEmisor;\r\n    mapping(address => uint) public totalDocumentosDestinatario;\r\n    \r\n    mapping(uint => DocumentoNotaria) public documentosNotaria;\r\n    mapping(address => mapping(uint => DocumentoNotaria)) public documentosNotariaEmisor;\r\n    mapping(address => mapping(uint => DocumentoNotaria)) public documentosNotariaDestinatario;\r\n    \r\n    event DocumentoAdded(uint id, uint precio, string nombre, bool estado, address owner);\r\n    event DocumentoNotariaAdded(uint id, Documento documento, string nombre,  address owner, uint precio);\r\n    event DocumentoComprado(uint id, address owner);\r\n    \r\n    constructor() {\r\n        owner = msg.sender;\r\n    }\r\n\r\n    function AddDocumento(uint _precio, string memory _nombre, bool _estado) public payable{\r\n        require(msg.sender == owner, \"Funcionalidad solo permitida para el owner\");\r\n        require(bytes(_nombre).length > 0, \"El nombre debe tener un largo minimo\");\r\n        documentsCount++;\r\n        documentos[documentsCount] = Documento(documentsCount, _precio,_nombre,_estado);       \r\n        \r\n        emit DocumentoAdded(documentsCount,_precio, _nombre, _estado, msg.sender);\r\n    }\r\n    \r\n    function AddDocumentoNotaria(uint _idDocumento, uint _precio, address _destinatario) public payable returns(EstadoDocumentoNotaria){\r\n        require(msg.sender != _destinatario, \"El emisor del documento debe ser distinto al destinatario\");\r\n        Documento memory doc = documentos[_idDocumento];\r\n        require(doc.id > 0, \"El documento no existe en nuestros registros\");\r\n        documentosNotariaCount++;\r\n        DocumentoNotaria memory docNotaria = DocumentoNotaria(documentosNotariaCount, doc, msg.sender, _destinatario, _precio, EstadoDocumentoNotaria.ABIERTO);\r\n        documentosNotaria[documentosNotariaCount] = docNotaria;\r\n        totalDocumentosEmisor[msg.sender]++;\r\n        totalDocumentosDestinatario[_destinatario]++;\r\n        documentosNotariaEmisor[msg.sender][documentosNotariaCount] = docNotaria;\r\n        documentosNotariaDestinatario[_destinatario][documentosNotariaCount] = docNotaria;        \r\n        return docNotaria.estado;\r\n    }\r\n    \r\n    function AceptaDocumentoNotaria(uint _idDocumento) public payable returns (bool){\r\n        require(msg.value > 1 ether, \"Monto insuficiente\");\r\n        DocumentoNotaria memory _docNotaria = GetDocumentoNotaria(_idDocumento);\r\n        require(_docNotaria.estado == EstadoDocumentoNotaria.ABIERTO);\r\n        require(_docNotaria.destinatario == msg.sender, \"Solo el destinatario puede aceptar el Documento\");\r\n        \r\n        documentosNotaria[_idDocumento].estado = EstadoDocumentoNotaria.ACEPTADO;\r\n        \r\n        documentosNotariaDestinatario[msg.sender][_idDocumento].estado = EstadoDocumentoNotaria.ACEPTADO;\r\n        \r\n        require(documentosNotariaEmisor[_docNotaria.owner][_idDocumento].destinatario == _docNotaria.destinatario, \"El destinatario no coincide con el de origen\");\r\n        documentosNotariaEmisor[_docNotaria.owner][_idDocumento].estado = EstadoDocumentoNotaria.ACEPTADO;\r\n        \r\n        return true;\r\n    }\r\n    \r\n    function FinalizaDocumentoNotaria(uint _idDocumento) public payable returns (bool){\r\n        require(msg.value > 1 ether, \"Monto insuficiente\");\r\n        DocumentoNotaria memory _docNotaria = GetDocumentoNotaria(_idDocumento);\r\n        require(_docNotaria.estado == EstadoDocumentoNotaria.ACEPTADO);\r\n        require(_docNotaria.destinatario == msg.sender, \"Solo el destinatario puede Acceder al pago de este Documento\");\r\n        \r\n        require(msg.value >= _docNotaria.precio, \"El monto enviado debe ser mayor o igual al precio\");\r\n        documentosNotaria[_idDocumento].estado = EstadoDocumentoNotaria.FINALIZADO;\r\n        documentosNotariaDestinatario[msg.sender][_idDocumento].estado = EstadoDocumentoNotaria.FINALIZADO;\r\n        require(documentosNotariaEmisor[_docNotaria.owner][_idDocumento].destinatario == _docNotaria.destinatario, \"El destinatario no coincide con el de origen\");\r\n        \r\n        documentosNotariaEmisor[_docNotaria.owner][_idDocumento].estado = EstadoDocumentoNotaria.FINALIZADO;\r\n        payable(_docNotaria.owner).transfer(msg.value);\r\n        return true;\r\n    }\r\n    \r\n    function RechazaDocumentoNotaria(uint _idDocumento) public payable returns (bool){\r\n        DocumentoNotaria memory _docNotaria = GetDocumentoNotaria(_idDocumento);\r\n        require(_docNotaria.estado == EstadoDocumentoNotaria.ACEPTADO || _docNotaria.estado == EstadoDocumentoNotaria.ABIERTO);\r\n        return true;\r\n    }\r\n    \r\n    /*\r\n    function CancelaDocumentoNotaria(uint _idDocumento) public payable returns (bool){\r\n        require(msg.value > 1 ether, \"Monto insuficiente\");\r\n        Documento memory doc = GetDocumento(_idDocumento);\r\n        return true;\r\n    }\r\n    */\r\n    \r\n    function GetDocumento(uint _idDocumento) public view returns(Documento memory doc){\r\n        doc = documentos[_idDocumento];\r\n        return doc;\r\n    }\r\n    \r\n    function GetDocumentoNotaria(uint _idDocumento) public view returns(DocumentoNotaria memory doc){\r\n        doc = documentosNotaria[_idDocumento];\r\n        return doc;\r\n    }\r\n    \r\n    function GetDocumentoNotariaEmisor(uint _idDocumento, address _direccion) public view returns(DocumentoNotaria memory doc){\r\n        doc = documentosNotariaEmisor[_direccion][_idDocumento];\r\n        return doc;\r\n    }\r\n    \r\n    function GetDocumentoNotariaReceptor(uint _idDocumento, address _direccion) public view returns(DocumentoNotaria memory doc){\r\n        doc = documentosNotariaDestinatario[_direccion][_idDocumento];\r\n        return doc;\r\n    }\r\n\r\n    function AddDocumentoCliente(uint _id, uint _precio, string memory _nombre, bool _estado) public {\r\n        documentosCliente[msg.sender][_id] = Documento(_id, _precio, _nombre, _estado);\r\n    }\r\n\r\n    function compraDocumento(uint _id) external payable {\r\n        Documento memory _documento = documentos[_id];\r\n        // Valida que el Documento tenga un ID mayor que 0\r\n        require(_documento.id > 0);\r\n        // Requiere que haya suficiente ETH en la transaccion\r\n        require(msg.value >= _documento.precio);\r\n        //Transfiere el precio del Documento\r\n        payable((msg.sender)).transfer(msg.value);\r\n        //Suma 1 al mapping de Documentos x Cliente\r\n        totalDocumentosCliente[msg.sender]++;\r\n        //Agrega el documento comprado al mapping de Documentos Comprados x Cliente\r\n        AddDocumentoCliente(_documento.id, _documento.precio, _documento.nombre, _documento.estado);\r\n        // Dispara el evento\r\n        emit DocumentoComprado(_id, msg.sender);\r\n    }  \r\n    \r\n    function GetOwner() public view returns (address){\r\n        return owner;\r\n    }\r\n\r\n    modifier isOwner(){\r\n        require(msg.sender == owner);\r\n        _;\r\n    } \r\n\r\n    receive() external payable {} \r\n}",
  "sourcePath": "D:/Curso Solidity Avanzado BlockChain Academy/proyecto-react/contracts/Notaria.sol",
  "compiler": {
    "name": "solc",
    "version": "0.8.0+commit.c7dfd78e.Emscripten.clang"
  },
  "schemaVersion": "3.3.4",
  "updatedAt": "2021-07-17T20:01:06.286Z",
  "networkType": "ethereum",
  "devdoc": {
    "kind": "dev",
    "methods": {
      "allowance(address,address)": {
        "details": "See {IERC20-allowance}."
      },
      "approve(address,uint256)": {
        "details": "See {IERC20-approve}. Requirements: - `spender` cannot be the zero address."
      },
      "balanceOf(address)": {
        "details": "See {IERC20-balanceOf}."
      },
      "decimals()": {
        "details": "Returns the number of decimals used to get its user representation. For example, if `decimals` equals `2`, a balance of `505` tokens should be displayed to a user as `5,05` (`505 / 10 ** 2`). Tokens usually opt for a value of 18, imitating the relationship between Ether and Wei. This is the value {ERC20} uses, unless this function is overridden; NOTE: This information is only used for _display_ purposes: it in no way affects any of the arithmetic of the contract, including {IERC20-balanceOf} and {IERC20-transfer}."
      },
      "decreaseAllowance(address,uint256)": {
        "details": "Atomically decreases the allowance granted to `spender` by the caller. This is an alternative to {approve} that can be used as a mitigation for problems described in {IERC20-approve}. Emits an {Approval} event indicating the updated allowance. Requirements: - `spender` cannot be the zero address. - `spender` must have allowance for the caller of at least `subtractedValue`."
      },
      "increaseAllowance(address,uint256)": {
        "details": "Atomically increases the allowance granted to `spender` by the caller. This is an alternative to {approve} that can be used as a mitigation for problems described in {IERC20-approve}. Emits an {Approval} event indicating the updated allowance. Requirements: - `spender` cannot be the zero address."
      },
      "name()": {
        "details": "Returns the name of the token."
      },
      "symbol()": {
        "details": "Returns the symbol of the token, usually a shorter version of the name."
      },
      "totalSupply()": {
        "details": "See {IERC20-totalSupply}."
      },
      "transfer(address,uint256)": {
        "details": "See {IERC20-transfer}. Requirements: - `recipient` cannot be the zero address. - the caller must have a balance of at least `amount`."
      },
      "transferFrom(address,address,uint256)": {
        "details": "See {IERC20-transferFrom}. Emits an {Approval} event indicating the updated allowance. This is not required by the EIP. See the note at the beginning of {ERC20}. Requirements: - `sender` and `recipient` cannot be the zero address. - `sender` must have a balance of at least `amount`. - the caller must have allowance for ``sender``'s tokens of at least `amount`."
      }
    },
    "version": 1
  },
  "userdoc": {
    "kind": "user",
    "methods": {},
    "version": 1
  }
}