{
  "contractName": "Notaria",
  "abi": [
    {
      "inputs": [
        {
          "internalType": "contract IERC20",
          "name": "_token",
          "type": "address"
        }
      ],
      "stateMutability": "nonpayable",
      "type": "constructor"
    },
    {
      "anonymous": false,
      "inputs": [
        {
          "indexed": false,
          "internalType": "uint256",
          "name": "id",
          "type": "uint256"
        },
        {
          "indexed": false,
          "internalType": "uint256",
          "name": "precio",
          "type": "uint256"
        },
        {
          "indexed": false,
          "internalType": "string",
          "name": "nombre",
          "type": "string"
        },
        {
          "indexed": false,
          "internalType": "bool",
          "name": "estado",
          "type": "bool"
        },
        {
          "indexed": false,
          "internalType": "address",
          "name": "owner",
          "type": "address"
        }
      ],
      "name": "DocumentoAdded",
      "type": "event"
    },
    {
      "anonymous": false,
      "inputs": [
        {
          "indexed": false,
          "internalType": "uint256",
          "name": "id",
          "type": "uint256"
        },
        {
          "indexed": false,
          "internalType": "address",
          "name": "owner",
          "type": "address"
        }
      ],
      "name": "DocumentoComprado",
      "type": "event"
    },
    {
      "anonymous": false,
      "inputs": [
        {
          "indexed": false,
          "internalType": "uint256",
          "name": "id",
          "type": "uint256"
        },
        {
          "components": [
            {
              "internalType": "uint256",
              "name": "id",
              "type": "uint256"
            },
            {
              "internalType": "uint256",
              "name": "precio",
              "type": "uint256"
            },
            {
              "internalType": "string",
              "name": "nombre",
              "type": "string"
            },
            {
              "internalType": "bool",
              "name": "estado",
              "type": "bool"
            }
          ],
          "indexed": false,
          "internalType": "struct Notaria.Documento",
          "name": "documento",
          "type": "tuple"
        },
        {
          "indexed": false,
          "internalType": "string",
          "name": "nombre",
          "type": "string"
        },
        {
          "indexed": false,
          "internalType": "address",
          "name": "owner",
          "type": "address"
        },
        {
          "indexed": false,
          "internalType": "uint256",
          "name": "precio",
          "type": "uint256"
        }
      ],
      "name": "DocumentoNotariaAdded",
      "type": "event"
    },
    {
      "anonymous": false,
      "inputs": [
        {
          "indexed": false,
          "internalType": "address",
          "name": "recipient",
          "type": "address"
        }
      ],
      "name": "premioTokenDado",
      "type": "event"
    },
    {
      "inputs": [
        {
          "internalType": "uint256",
          "name": "",
          "type": "uint256"
        }
      ],
      "name": "documentos",
      "outputs": [
        {
          "internalType": "uint256",
          "name": "id",
          "type": "uint256"
        },
        {
          "internalType": "uint256",
          "name": "precio",
          "type": "uint256"
        },
        {
          "internalType": "string",
          "name": "nombre",
          "type": "string"
        },
        {
          "internalType": "bool",
          "name": "estado",
          "type": "bool"
        }
      ],
      "stateMutability": "view",
      "type": "function"
    },
    {
      "inputs": [
        {
          "internalType": "uint256",
          "name": "",
          "type": "uint256"
        }
      ],
      "name": "documentosNotaria",
      "outputs": [
        {
          "internalType": "uint256",
          "name": "id",
          "type": "uint256"
        },
        {
          "components": [
            {
              "internalType": "uint256",
              "name": "id",
              "type": "uint256"
            },
            {
              "internalType": "uint256",
              "name": "precio",
              "type": "uint256"
            },
            {
              "internalType": "string",
              "name": "nombre",
              "type": "string"
            },
            {
              "internalType": "bool",
              "name": "estado",
              "type": "bool"
            }
          ],
          "internalType": "struct Notaria.Documento",
          "name": "documento",
          "type": "tuple"
        },
        {
          "internalType": "address",
          "name": "owner",
          "type": "address"
        },
        {
          "internalType": "address",
          "name": "destinatario",
          "type": "address"
        },
        {
          "internalType": "uint256",
          "name": "precio",
          "type": "uint256"
        },
        {
          "internalType": "enum Notaria.EstadoDocumentoNotaria",
          "name": "estado",
          "type": "uint8"
        }
      ],
      "stateMutability": "view",
      "type": "function"
    },
    {
      "inputs": [],
      "name": "documentosNotariaCount",
      "outputs": [
        {
          "internalType": "uint256",
          "name": "",
          "type": "uint256"
        }
      ],
      "stateMutability": "view",
      "type": "function"
    },
    {
      "inputs": [
        {
          "internalType": "address",
          "name": "",
          "type": "address"
        },
        {
          "internalType": "uint256",
          "name": "",
          "type": "uint256"
        }
      ],
      "name": "documentosNotariaDestinatario",
      "outputs": [
        {
          "internalType": "uint256",
          "name": "id",
          "type": "uint256"
        },
        {
          "components": [
            {
              "internalType": "uint256",
              "name": "id",
              "type": "uint256"
            },
            {
              "internalType": "uint256",
              "name": "precio",
              "type": "uint256"
            },
            {
              "internalType": "string",
              "name": "nombre",
              "type": "string"
            },
            {
              "internalType": "bool",
              "name": "estado",
              "type": "bool"
            }
          ],
          "internalType": "struct Notaria.Documento",
          "name": "documento",
          "type": "tuple"
        },
        {
          "internalType": "address",
          "name": "owner",
          "type": "address"
        },
        {
          "internalType": "address",
          "name": "destinatario",
          "type": "address"
        },
        {
          "internalType": "uint256",
          "name": "precio",
          "type": "uint256"
        },
        {
          "internalType": "enum Notaria.EstadoDocumentoNotaria",
          "name": "estado",
          "type": "uint8"
        }
      ],
      "stateMutability": "view",
      "type": "function"
    },
    {
      "inputs": [
        {
          "internalType": "address",
          "name": "",
          "type": "address"
        },
        {
          "internalType": "uint256",
          "name": "",
          "type": "uint256"
        }
      ],
      "name": "documentosNotariaEmisor",
      "outputs": [
        {
          "internalType": "uint256",
          "name": "id",
          "type": "uint256"
        },
        {
          "components": [
            {
              "internalType": "uint256",
              "name": "id",
              "type": "uint256"
            },
            {
              "internalType": "uint256",
              "name": "precio",
              "type": "uint256"
            },
            {
              "internalType": "string",
              "name": "nombre",
              "type": "string"
            },
            {
              "internalType": "bool",
              "name": "estado",
              "type": "bool"
            }
          ],
          "internalType": "struct Notaria.Documento",
          "name": "documento",
          "type": "tuple"
        },
        {
          "internalType": "address",
          "name": "owner",
          "type": "address"
        },
        {
          "internalType": "address",
          "name": "destinatario",
          "type": "address"
        },
        {
          "internalType": "uint256",
          "name": "precio",
          "type": "uint256"
        },
        {
          "internalType": "enum Notaria.EstadoDocumentoNotaria",
          "name": "estado",
          "type": "uint8"
        }
      ],
      "stateMutability": "view",
      "type": "function"
    },
    {
      "inputs": [],
      "name": "documentsCount",
      "outputs": [
        {
          "internalType": "uint256",
          "name": "",
          "type": "uint256"
        }
      ],
      "stateMutability": "view",
      "type": "function"
    },
    {
      "inputs": [],
      "name": "owner",
      "outputs": [
        {
          "internalType": "address",
          "name": "",
          "type": "address"
        }
      ],
      "stateMutability": "view",
      "type": "function"
    },
    {
      "inputs": [
        {
          "internalType": "address",
          "name": "",
          "type": "address"
        }
      ],
      "name": "totalDocumentosDestinatario",
      "outputs": [
        {
          "internalType": "uint256",
          "name": "",
          "type": "uint256"
        }
      ],
      "stateMutability": "view",
      "type": "function"
    },
    {
      "inputs": [
        {
          "internalType": "address",
          "name": "",
          "type": "address"
        }
      ],
      "name": "totalDocumentosEmisor",
      "outputs": [
        {
          "internalType": "uint256",
          "name": "",
          "type": "uint256"
        }
      ],
      "stateMutability": "view",
      "type": "function"
    },
    {
      "stateMutability": "payable",
      "type": "receive"
    },
    {
      "inputs": [],
      "name": "ValidaDisponibilidadPremio",
      "outputs": [
        {
          "internalType": "bool",
          "name": "",
          "type": "bool"
        }
      ],
      "stateMutability": "view",
      "type": "function"
    },
    {
      "inputs": [
        {
          "internalType": "uint256",
          "name": "_precio",
          "type": "uint256"
        },
        {
          "internalType": "string",
          "name": "_nombre",
          "type": "string"
        },
        {
          "internalType": "bool",
          "name": "_estado",
          "type": "bool"
        }
      ],
      "name": "AddDocumento",
      "outputs": [],
      "stateMutability": "payable",
      "type": "function"
    },
    {
      "inputs": [
        {
          "internalType": "uint256",
          "name": "_idDocumento",
          "type": "uint256"
        },
        {
          "internalType": "uint256",
          "name": "_precio",
          "type": "uint256"
        },
        {
          "internalType": "address",
          "name": "_destinatario",
          "type": "address"
        }
      ],
      "name": "AddDocumentoNotaria",
      "outputs": [
        {
          "internalType": "enum Notaria.EstadoDocumentoNotaria",
          "name": "",
          "type": "uint8"
        }
      ],
      "stateMutability": "payable",
      "type": "function"
    },
    {
      "inputs": [
        {
          "internalType": "uint256",
          "name": "_idDocumento",
          "type": "uint256"
        }
      ],
      "name": "AceptaDocumentoNotaria",
      "outputs": [
        {
          "internalType": "bool",
          "name": "",
          "type": "bool"
        }
      ],
      "stateMutability": "nonpayable",
      "type": "function"
    },
    {
      "inputs": [
        {
          "internalType": "uint256",
          "name": "_idDocumento",
          "type": "uint256"
        }
      ],
      "name": "FinalizaDocumentoNotaria",
      "outputs": [
        {
          "internalType": "bool",
          "name": "",
          "type": "bool"
        }
      ],
      "stateMutability": "payable",
      "type": "function"
    },
    {
      "inputs": [
        {
          "internalType": "uint256",
          "name": "_idDocumento",
          "type": "uint256"
        }
      ],
      "name": "RechazaDocumentoNotaria",
      "outputs": [
        {
          "internalType": "bool",
          "name": "",
          "type": "bool"
        }
      ],
      "stateMutability": "payable",
      "type": "function"
    },
    {
      "inputs": [
        {
          "internalType": "uint256",
          "name": "_idDocumento",
          "type": "uint256"
        }
      ],
      "name": "GetDocumento",
      "outputs": [
        {
          "components": [
            {
              "internalType": "uint256",
              "name": "id",
              "type": "uint256"
            },
            {
              "internalType": "uint256",
              "name": "precio",
              "type": "uint256"
            },
            {
              "internalType": "string",
              "name": "nombre",
              "type": "string"
            },
            {
              "internalType": "bool",
              "name": "estado",
              "type": "bool"
            }
          ],
          "internalType": "struct Notaria.Documento",
          "name": "doc",
          "type": "tuple"
        }
      ],
      "stateMutability": "view",
      "type": "function"
    },
    {
      "inputs": [
        {
          "internalType": "uint256",
          "name": "_idDocumento",
          "type": "uint256"
        }
      ],
      "name": "GetDocumentoNotaria",
      "outputs": [
        {
          "components": [
            {
              "internalType": "uint256",
              "name": "id",
              "type": "uint256"
            },
            {
              "components": [
                {
                  "internalType": "uint256",
                  "name": "id",
                  "type": "uint256"
                },
                {
                  "internalType": "uint256",
                  "name": "precio",
                  "type": "uint256"
                },
                {
                  "internalType": "string",
                  "name": "nombre",
                  "type": "string"
                },
                {
                  "internalType": "bool",
                  "name": "estado",
                  "type": "bool"
                }
              ],
              "internalType": "struct Notaria.Documento",
              "name": "documento",
              "type": "tuple"
            },
            {
              "internalType": "address",
              "name": "owner",
              "type": "address"
            },
            {
              "internalType": "address",
              "name": "destinatario",
              "type": "address"
            },
            {
              "internalType": "uint256",
              "name": "precio",
              "type": "uint256"
            },
            {
              "internalType": "enum Notaria.EstadoDocumentoNotaria",
              "name": "estado",
              "type": "uint8"
            }
          ],
          "internalType": "struct Notaria.DocumentoNotaria",
          "name": "doc",
          "type": "tuple"
        }
      ],
      "stateMutability": "view",
      "type": "function"
    },
    {
      "inputs": [
        {
          "internalType": "uint256",
          "name": "_idDocumento",
          "type": "uint256"
        },
        {
          "internalType": "address",
          "name": "_direccion",
          "type": "address"
        }
      ],
      "name": "GetDocumentoNotariaEmisor",
      "outputs": [
        {
          "components": [
            {
              "internalType": "uint256",
              "name": "id",
              "type": "uint256"
            },
            {
              "components": [
                {
                  "internalType": "uint256",
                  "name": "id",
                  "type": "uint256"
                },
                {
                  "internalType": "uint256",
                  "name": "precio",
                  "type": "uint256"
                },
                {
                  "internalType": "string",
                  "name": "nombre",
                  "type": "string"
                },
                {
                  "internalType": "bool",
                  "name": "estado",
                  "type": "bool"
                }
              ],
              "internalType": "struct Notaria.Documento",
              "name": "documento",
              "type": "tuple"
            },
            {
              "internalType": "address",
              "name": "owner",
              "type": "address"
            },
            {
              "internalType": "address",
              "name": "destinatario",
              "type": "address"
            },
            {
              "internalType": "uint256",
              "name": "precio",
              "type": "uint256"
            },
            {
              "internalType": "enum Notaria.EstadoDocumentoNotaria",
              "name": "estado",
              "type": "uint8"
            }
          ],
          "internalType": "struct Notaria.DocumentoNotaria",
          "name": "doc",
          "type": "tuple"
        }
      ],
      "stateMutability": "view",
      "type": "function"
    },
    {
      "inputs": [
        {
          "internalType": "uint256",
          "name": "_idDocumento",
          "type": "uint256"
        },
        {
          "internalType": "address",
          "name": "_direccion",
          "type": "address"
        }
      ],
      "name": "GetDocumentoNotariaDestinatario",
      "outputs": [
        {
          "components": [
            {
              "internalType": "uint256",
              "name": "id",
              "type": "uint256"
            },
            {
              "components": [
                {
                  "internalType": "uint256",
                  "name": "id",
                  "type": "uint256"
                },
                {
                  "internalType": "uint256",
                  "name": "precio",
                  "type": "uint256"
                },
                {
                  "internalType": "string",
                  "name": "nombre",
                  "type": "string"
                },
                {
                  "internalType": "bool",
                  "name": "estado",
                  "type": "bool"
                }
              ],
              "internalType": "struct Notaria.Documento",
              "name": "documento",
              "type": "tuple"
            },
            {
              "internalType": "address",
              "name": "owner",
              "type": "address"
            },
            {
              "internalType": "address",
              "name": "destinatario",
              "type": "address"
            },
            {
              "internalType": "uint256",
              "name": "precio",
              "type": "uint256"
            },
            {
              "internalType": "enum Notaria.EstadoDocumentoNotaria",
              "name": "estado",
              "type": "uint8"
            }
          ],
          "internalType": "struct Notaria.DocumentoNotaria",
          "name": "doc",
          "type": "tuple"
        }
      ],
      "stateMutability": "view",
      "type": "function"
    },
    {
      "inputs": [],
      "name": "GetOwner",
      "outputs": [
        {
          "internalType": "address",
          "name": "",
          "type": "address"
        }
      ],
      "stateMutability": "view",
      "type": "function"
    }
  ],
  "bytecode": "0x6080604052600060015560006002553480156200001b57600080fd5b5060405162003b3f38038062003b3f8339818101604052810190620000419190620000e0565b80600360006101000a81548173ffffffffffffffffffffffffffffffffffffffff021916908373ffffffffffffffffffffffffffffffffffffffff160217905550336000806101000a81548173ffffffffffffffffffffffffffffffffffffffff021916908373ffffffffffffffffffffffffffffffffffffffff160217905550506200016e565b600081519050620000da8162000154565b92915050565b600060208284031215620000f357600080fd5b60006200010384828501620000c9565b91505092915050565b6000620001198262000134565b9050919050565b60006200012d826200010c565b9050919050565b600073ffffffffffffffffffffffffffffffffffffffff82169050919050565b6200015f8162000120565b81146200016b57600080fd5b50565b6139c1806200017e6000396000f3fe6080604052600436106101235760003560e01c80638da5cb5b116100a0578063c67dbe8c11610064578063c67dbe8c14610442578063cddb534d14610484578063d99b73d8146104c1578063f6556d3b146104f1578063fb699fa3146105335761012a565b80638da5cb5b1461034457806395e52d981461036f578063b5732a961461039a578063b908db70146103d7578063bb674f20146104025761012a565b80633166aa9b116100e75780633166aa9b146102325780633bfa2e241461026f57806351a8cf901461029f5780635dc74f78146102ca5780638d9520e6146103075761012a565b80630ae50a391461012f578063194e19b01461015a5780631beeba561461019c5780631c03fafc146101d95780632c62c7be146102165761012a565b3661012a57005b600080fd5b34801561013b57600080fd5b50610144610563565b6040516101519190613354565b60405180910390f35b34801561016657600080fd5b50610181600480360381019061017c9190612bd8565b61058c565b6040516101939695949392919061358d565b60405180910390f35b3480156101a857600080fd5b506101c360048036038101906101be9190612bd8565b6106e0565b6040516101d09190613550565b60405180910390f35b3480156101e557600080fd5b5061020060048036038101906101fb9190612b4a565b6107ce565b60405161020d9190613572565b60405180910390f35b610230600480360381019061022b9190612c66565b6107e6565b005b34801561023e57600080fd5b5061025960048036038101906102549190612c2a565b6109a4565b604051610266919061352e565b60405180910390f35b61028960048036038101906102849190612bd8565b610c2b565b6040516102969190613398565b60405180910390f35b3480156102ab57600080fd5b506102b46110a4565b6040516102c19190613398565b60405180910390f35b3480156102d657600080fd5b506102f160048036038101906102ec9190612bd8565b611176565b6040516102fe919061352e565b60405180910390f35b34801561031357600080fd5b5061032e60048036038101906103299190612bd8565b6113bf565b60405161033b9190613398565b60405180910390f35b34801561035057600080fd5b5061035961177d565b6040516103669190613354565b60405180910390f35b34801561037b57600080fd5b506103846117a1565b6040516103919190613572565b60405180910390f35b3480156103a657600080fd5b506103c160048036038101906103bc9190612c2a565b6117a7565b6040516103ce919061352e565b60405180910390f35b3480156103e357600080fd5b506103ec611a2e565b6040516103f99190613572565b60405180910390f35b34801561040e57600080fd5b5061042960048036038101906104249190612bd8565b611a34565b60405161043994939291906135f5565b60405180910390f35b34801561044e57600080fd5b5061046960048036038101906104649190612b73565b611af9565b60405161047b9695949392919061358d565b60405180910390f35b34801561049057600080fd5b506104ab60048036038101906104a69190612b4a565b611c5a565b6040516104b89190613572565b60405180910390f35b6104db60048036038101906104d69190612bd8565b611c72565b6040516104e89190613398565b60405180910390f35b3480156104fd57600080fd5b5061051860048036038101906105139190612b73565b611d8a565b60405161052a9695949392919061358d565b60405180910390f35b61054d60048036038101906105489190612ccd565b611eeb565b60405161055a91906133b3565b60405180910390f35b60008060009054906101000a900473ffffffffffffffffffffffffffffffffffffffff16905090565b60076020528060005260406000206000915090508060000154908060010160405180608001604052908160008201548152602001600182015481526020016002820180546105d9906137ea565b80601f0160208091040260200160405190810160405280929190818152602001828054610605906137ea565b80156106525780601f1061062757610100808354040283529160200191610652565b820191906000526020600020905b81548152906001019060200180831161063557829003601f168201915b505050505081526020016003820160009054906101000a900460ff161515151581525050908060050160009054906101000a900473ffffffffffffffffffffffffffffffffffffffff16908060060160009054906101000a900473ffffffffffffffffffffffffffffffffffffffff16908060070154908060080160009054906101000a900460ff16905086565b6106e861290c565b60046000838152602001908152602001600020604051806080016040529081600082015481526020016001820154815260200160028201805461072a906137ea565b80601f0160208091040260200160405190810160405280929190818152602001828054610756906137ea565b80156107a35780601f10610778576101008083540402835291602001916107a3565b820191906000526020600020905b81548152906001019060200180831161078657829003601f168201915b505050505081526020016003820160009054906101000a900460ff1615151515815250509050919050565b60066020528060005260406000206000915090505481565b60008054906101000a900473ffffffffffffffffffffffffffffffffffffffff1673ffffffffffffffffffffffffffffffffffffffff163373ffffffffffffffffffffffffffffffffffffffff1614610874576040517f08c379a000000000000000000000000000000000000000000000000000000000815260040161086b9061346e565b60405180910390fd5b60008251116108b8576040517f08c379a00000000000000000000000000000000000000000000000000000000081526004016108af9061342e565b60405180910390fd5b600160008154809291906108cb9061381c565b9190505550604051806080016040528060015481526020018481526020018381526020018215158152506004600060015481526020019081526020016000206000820151816000015560208201518160010155604082015181600201908051906020019061093a929190612936565b5060608201518160030160006101000a81548160ff0219169083151502179055509050507f5d11aed1842005d2aad4bd5cd443eb580b0abd53c28f7b77bfeef1b321ee594e60015484848433604051610997959493929190613641565b60405180910390a1505050565b6109ac6129bc565b600860008373ffffffffffffffffffffffffffffffffffffffff1673ffffffffffffffffffffffffffffffffffffffff16815260200190815260200160002060008481526020019081526020016000206040518060c001604052908160008201548152602001600182016040518060800160405290816000820154815260200160018201548152602001600282018054610a45906137ea565b80601f0160208091040260200160405190810160405280929190818152602001828054610a71906137ea565b8015610abe5780601f10610a9357610100808354040283529160200191610abe565b820191906000526020600020905b815481529060010190602001808311610aa157829003601f168201915b505050505081526020016003820160009054906101000a900460ff16151515158152505081526020016005820160009054906101000a900473ffffffffffffffffffffffffffffffffffffffff1673ffffffffffffffffffffffffffffffffffffffff1673ffffffffffffffffffffffffffffffffffffffff1681526020016006820160009054906101000a900473ffffffffffffffffffffffffffffffffffffffff1673ffffffffffffffffffffffffffffffffffffffff1673ffffffffffffffffffffffffffffffffffffffff168152602001600782015481526020016008820160009054906101000a900460ff166002811115610be7577f4e487b7100000000000000000000000000000000000000000000000000000000600052602160045260246000fd5b6002811115610c1f577f4e487b7100000000000000000000000000000000000000000000000000000000600052602160045260246000fd5b81525050905092915050565b600080610c3783611176565b905080608001513411610c7f576040517f08c379a0000000000000000000000000000000000000000000000000000000008152600401610c76906134ce565b60405180910390fd5b60016002811115610cb9577f4e487b7100000000000000000000000000000000000000000000000000000000600052602160045260246000fd5b8160a001516002811115610cf6577f4e487b7100000000000000000000000000000000000000000000000000000000600052602160045260246000fd5b14610d0057600080fd5b3373ffffffffffffffffffffffffffffffffffffffff16816060015173ffffffffffffffffffffffffffffffffffffffff1614610d72576040517f08c379a0000000000000000000000000000000000000000000000000000000008152600401610d699061340e565b60405180910390fd5b8060800151341015610db9576040517f08c379a0000000000000000000000000000000000000000000000000000000008152600401610db09061348e565b60405180910390fd5b60026007600085815260200190815260200160002060080160006101000a81548160ff02191690836002811115610e19577f4e487b7100000000000000000000000000000000000000000000000000000000600052602160045260246000fd5b02179055506002600960003373ffffffffffffffffffffffffffffffffffffffff1673ffffffffffffffffffffffffffffffffffffffff168152602001908152602001600020600085815260200190815260200160002060080160006101000a81548160ff02191690836002811115610ebb577f4e487b7100000000000000000000000000000000000000000000000000000000600052602160045260246000fd5b0217905550806060015173ffffffffffffffffffffffffffffffffffffffff1660086000836040015173ffffffffffffffffffffffffffffffffffffffff1673ffffffffffffffffffffffffffffffffffffffff168152602001908152602001600020600085815260200190815260200160002060060160009054906101000a900473ffffffffffffffffffffffffffffffffffffffff1673ffffffffffffffffffffffffffffffffffffffff1614610fa9576040517f08c379a0000000000000000000000000000000000000000000000000000000008152600401610fa09061344e565b60405180910390fd5b600260086000836040015173ffffffffffffffffffffffffffffffffffffffff1673ffffffffffffffffffffffffffffffffffffffff168152602001908152602001600020600085815260200190815260200160002060080160006101000a81548160ff0219169083600281111561104a577f4e487b7100000000000000000000000000000000000000000000000000000000600052602160045260246000fd5b0217905550806040015173ffffffffffffffffffffffffffffffffffffffff166108fc349081150290604051600060405180830381858888f19350505050158015611099573d6000803e3d6000fd5b506001915050919050565b600080600360009054906101000a900473ffffffffffffffffffffffffffffffffffffffff1673ffffffffffffffffffffffffffffffffffffffff166370a08231306040518263ffffffff1660e01b81526004016111029190613354565b60206040518083038186803b15801561111a57600080fd5b505afa15801561112e573d6000803e3d6000fd5b505050506040513d601f19601f820116820180604052508101906111529190612c01565b9050678ac7230489e80000811061116d576001915050611173565b60009150505b90565b61117e6129bc565b600760008381526020019081526020016000206040518060c0016040529081600082015481526020016001820160405180608001604052908160008201548152602001600182015481526020016002820180546111da906137ea565b80601f0160208091040260200160405190810160405280929190818152602001828054611206906137ea565b80156112535780601f1061122857610100808354040283529160200191611253565b820191906000526020600020905b81548152906001019060200180831161123657829003601f168201915b505050505081526020016003820160009054906101000a900460ff16151515158152505081526020016005820160009054906101000a900473ffffffffffffffffffffffffffffffffffffffff1673ffffffffffffffffffffffffffffffffffffffff1673ffffffffffffffffffffffffffffffffffffffff1681526020016006820160009054906101000a900473ffffffffffffffffffffffffffffffffffffffff1673ffffffffffffffffffffffffffffffffffffffff1673ffffffffffffffffffffffffffffffffffffffff168152602001600782015481526020016008820160009054906101000a900460ff16600281111561137c577f4e487b7100000000000000000000000000000000000000000000000000000000600052602160045260246000fd5b60028111156113b4577f4e487b7100000000000000000000000000000000000000000000000000000000600052602160045260246000fd5b815250509050919050565b6000806113cb83611176565b905060006002811115611407577f4e487b7100000000000000000000000000000000000000000000000000000000600052602160045260246000fd5b8160a001516002811115611444577f4e487b7100000000000000000000000000000000000000000000000000000000600052602160045260246000fd5b1461144e57600080fd5b3373ffffffffffffffffffffffffffffffffffffffff16816060015173ffffffffffffffffffffffffffffffffffffffff16146114c0576040517f08c379a00000000000000000000000000000000000000000000000000000000081526004016114b79061350e565b60405180910390fd5b60016007600085815260200190815260200160002060080160006101000a81548160ff02191690836002811115611520577f4e487b7100000000000000000000000000000000000000000000000000000000600052602160045260246000fd5b02179055506001600960003373ffffffffffffffffffffffffffffffffffffffff1673ffffffffffffffffffffffffffffffffffffffff168152602001908152602001600020600085815260200190815260200160002060080160006101000a81548160ff021916908360028111156115c2577f4e487b7100000000000000000000000000000000000000000000000000000000600052602160045260246000fd5b0217905550806060015173ffffffffffffffffffffffffffffffffffffffff1660086000836040015173ffffffffffffffffffffffffffffffffffffffff1673ffffffffffffffffffffffffffffffffffffffff168152602001908152602001600020600085815260200190815260200160002060060160009054906101000a900473ffffffffffffffffffffffffffffffffffffffff1673ffffffffffffffffffffffffffffffffffffffff16146116b0576040517f08c379a00000000000000000000000000000000000000000000000000000000081526004016116a79061344e565b60405180910390fd5b600160086000836040015173ffffffffffffffffffffffffffffffffffffffff1673ffffffffffffffffffffffffffffffffffffffff168152602001908152602001600020600085815260200190815260200160002060080160006101000a81548160ff02191690836002811115611751577f4e487b7100000000000000000000000000000000000000000000000000000000600052602160045260246000fd5b0217905550600115156117626110a4565b1515141561177357611772612720565b5b6001915050919050565b60008054906101000a900473ffffffffffffffffffffffffffffffffffffffff1681565b60015481565b6117af6129bc565b600960008373ffffffffffffffffffffffffffffffffffffffff1673ffffffffffffffffffffffffffffffffffffffff16815260200190815260200160002060008481526020019081526020016000206040518060c001604052908160008201548152602001600182016040518060800160405290816000820154815260200160018201548152602001600282018054611848906137ea565b80601f0160208091040260200160405190810160405280929190818152602001828054611874906137ea565b80156118c15780601f10611896576101008083540402835291602001916118c1565b820191906000526020600020905b8154815290600101906020018083116118a457829003601f168201915b505050505081526020016003820160009054906101000a900460ff16151515158152505081526020016005820160009054906101000a900473ffffffffffffffffffffffffffffffffffffffff1673ffffffffffffffffffffffffffffffffffffffff1673ffffffffffffffffffffffffffffffffffffffff1681526020016006820160009054906101000a900473ffffffffffffffffffffffffffffffffffffffff1673ffffffffffffffffffffffffffffffffffffffff1673ffffffffffffffffffffffffffffffffffffffff168152602001600782015481526020016008820160009054906101000a900460ff1660028111156119ea577f4e487b7100000000000000000000000000000000000000000000000000000000600052602160045260246000fd5b6002811115611a22577f4e487b7100000000000000000000000000000000000000000000000000000000600052602160045260246000fd5b81525050905092915050565b60025481565b6004602052806000526040600020600091509050806000015490806001015490806002018054611a63906137ea565b80601f0160208091040260200160405190810160405280929190818152602001828054611a8f906137ea565b8015611adc5780601f10611ab157610100808354040283529160200191611adc565b820191906000526020600020905b815481529060010190602001808311611abf57829003601f168201915b5050505050908060030160009054906101000a900460ff16905084565b600960205281600052604060002060205280600052604060002060009150915050806000015490806001016040518060800160405290816000820154815260200160018201548152602001600282018054611b53906137ea565b80601f0160208091040260200160405190810160405280929190818152602001828054611b7f906137ea565b8015611bcc5780601f10611ba157610100808354040283529160200191611bcc565b820191906000526020600020905b815481529060010190602001808311611baf57829003601f168201915b505050505081526020016003820160009054906101000a900460ff161515151581525050908060050160009054906101000a900473ffffffffffffffffffffffffffffffffffffffff16908060060160009054906101000a900473ffffffffffffffffffffffffffffffffffffffff16908060070154908060080160009054906101000a900460ff16905086565b60056020528060005260406000206000915090505481565b600080611c7e83611176565b905060016002811115611cba577f4e487b7100000000000000000000000000000000000000000000000000000000600052602160045260246000fd5b8160a001516002811115611cf7577f4e487b7100000000000000000000000000000000000000000000000000000000600052602160045260246000fd5b1480611d77575060006002811115611d38577f4e487b7100000000000000000000000000000000000000000000000000000000600052602160045260246000fd5b8160a001516002811115611d75577f4e487b7100000000000000000000000000000000000000000000000000000000600052602160045260246000fd5b145b611d8057600080fd5b6001915050919050565b600860205281600052604060002060205280600052604060002060009150915050806000015490806001016040518060800160405290816000820154815260200160018201548152602001600282018054611de4906137ea565b80601f0160208091040260200160405190810160405280929190818152602001828054611e10906137ea565b8015611e5d5780601f10611e3257610100808354040283529160200191611e5d565b820191906000526020600020905b815481529060010190602001808311611e4057829003601f168201915b505050505081526020016003820160009054906101000a900460ff161515151581525050908060050160009054906101000a900473ffffffffffffffffffffffffffffffffffffffff16908060060160009054906101000a900473ffffffffffffffffffffffffffffffffffffffff16908060070154908060080160009054906101000a900460ff16905086565b60008073ffffffffffffffffffffffffffffffffffffffff163373ffffffffffffffffffffffffffffffffffffffff161415611f5c576040517f08c379a0000000000000000000000000000000000000000000000000000000008152600401611f53906133ee565b60405180910390fd5b8173ffffffffffffffffffffffffffffffffffffffff163373ffffffffffffffffffffffffffffffffffffffff161415611fcb576040517f08c379a0000000000000000000000000000000000000000000000000000000008152600401611fc2906134ae565b60405180910390fd5b600060046000868152602001908152602001600020604051806080016040529081600082015481526020016001820154815260200160028201805461200f906137ea565b80601f016020809104026020016040519081016040528092919081815260200182805461203b906137ea565b80156120885780601f1061205d57610100808354040283529160200191612088565b820191906000526020600020905b81548152906001019060200180831161206b57829003601f168201915b505050505081526020016003820160009054906101000a900460ff161515151581525050905060008160000151116120f5576040517f08c379a00000000000000000000000000000000000000000000000000000000081526004016120ec906133ce565b60405180910390fd5b600260008154809291906121089061381c565b919050555060006040518060c0016040528060025481526020018381526020013373ffffffffffffffffffffffffffffffffffffffff1681526020018573ffffffffffffffffffffffffffffffffffffffff168152602001868152602001600060028111156121a0577f4e487b7100000000000000000000000000000000000000000000000000000000600052602160045260246000fd5b81525090508060076000600254815260200190815260200160002060008201518160000155602082015181600101600082015181600001556020820151816001015560408201518160020190805190602001906121fe929190612936565b5060608201518160030160006101000a81548160ff021916908315150217905550505060408201518160050160006101000a81548173ffffffffffffffffffffffffffffffffffffffff021916908373ffffffffffffffffffffffffffffffffffffffff16021790555060608201518160060160006101000a81548173ffffffffffffffffffffffffffffffffffffffff021916908373ffffffffffffffffffffffffffffffffffffffff1602179055506080820151816007015560a08201518160080160006101000a81548160ff0219169083600281111561230a577f4e487b7100000000000000000000000000000000000000000000000000000000600052602160045260246000fd5b0217905550905050600560003373ffffffffffffffffffffffffffffffffffffffff1673ffffffffffffffffffffffffffffffffffffffff16815260200190815260200160002060008154809291906123629061381c565b9190505550600660008573ffffffffffffffffffffffffffffffffffffffff1673ffffffffffffffffffffffffffffffffffffffff16815260200190815260200160002060008154809291906123b79061381c565b919050555080600860003373ffffffffffffffffffffffffffffffffffffffff1673ffffffffffffffffffffffffffffffffffffffff168152602001908152602001600020600060025481526020019081526020016000206000820151816000015560208201518160010160008201518160000155602082015181600101556040820151816002019080519060200190612452929190612936565b5060608201518160030160006101000a81548160ff021916908315150217905550505060408201518160050160006101000a81548173ffffffffffffffffffffffffffffffffffffffff021916908373ffffffffffffffffffffffffffffffffffffffff16021790555060608201518160060160006101000a81548173ffffffffffffffffffffffffffffffffffffffff021916908373ffffffffffffffffffffffffffffffffffffffff1602179055506080820151816007015560a08201518160080160006101000a81548160ff0219169083600281111561255e577f4e487b7100000000000000000000000000000000000000000000000000000000600052602160045260246000fd5b021790555090505080600960008673ffffffffffffffffffffffffffffffffffffffff1673ffffffffffffffffffffffffffffffffffffffff1681526020019081526020016000206000600254815260200190815260200160002060008201518160000155602082015181600101600082015181600001556020820151816001015560408201518160020190805190602001906125fc929190612936565b5060608201518160030160006101000a81548160ff021916908315150217905550505060408201518160050160006101000a81548173ffffffffffffffffffffffffffffffffffffffff021916908373ffffffffffffffffffffffffffffffffffffffff16021790555060608201518160060160006101000a81548173ffffffffffffffffffffffffffffffffffffffff021916908373ffffffffffffffffffffffffffffffffffffffff1602179055506080820151816007015560a08201518160080160006101000a81548160ff02191690836002811115612708577f4e487b7100000000000000000000000000000000000000000000000000000000600052602160045260246000fd5b02179055509050508060a00151925050509392505050565b6000600360009054906101000a900473ffffffffffffffffffffffffffffffffffffffff1673ffffffffffffffffffffffffffffffffffffffff166370a08231306040518263ffffffff1660e01b815260040161277d9190613354565b60206040518083038186803b15801561279557600080fd5b505afa1580156127a9573d6000803e3d6000fd5b505050506040513d601f19601f820116820180604052508101906127cd9190612c01565b9050678ac7230489e8000081101561281a576040517f08c379a0000000000000000000000000000000000000000000000000000000008152600401612811906134ee565b60405180910390fd5b600360009054906101000a900473ffffffffffffffffffffffffffffffffffffffff1673ffffffffffffffffffffffffffffffffffffffff1663a9059cbb33678ac7230489e800006040518363ffffffff1660e01b815260040161287f92919061336f565b602060405180830381600087803b15801561289957600080fd5b505af11580156128ad573d6000803e3d6000fd5b505050506040513d601f19601f820116820180604052508101906128d19190612baf565b507f7f1b1d4c13ec5ec7f238dce036cc6fa16068f0b9013ca915898afa496daac0ad336040516129019190613354565b60405180910390a150565b60405180608001604052806000815260200160008152602001606081526020016000151581525090565b828054612942906137ea565b90600052602060002090601f01602090048101928261296457600085556129ab565b82601f1061297d57805160ff19168380011785556129ab565b828001600101855582156129ab579182015b828111156129aa57825182559160200191906001019061298f565b5b5090506129b89190612a5c565b5090565b6040518060c00160405280600081526020016129d661290c565b8152602001600073ffffffffffffffffffffffffffffffffffffffff168152602001600073ffffffffffffffffffffffffffffffffffffffff1681526020016000815260200160006002811115612a56577f4e487b7100000000000000000000000000000000000000000000000000000000600052602160045260246000fd5b81525090565b5b80821115612a75576000816000905550600101612a5d565b5090565b6000612a8c612a87846136cc565b61369b565b905082815260208101848484011115612aa457600080fd5b612aaf8482856137a8565b509392505050565b600081359050612ac681613946565b92915050565b600081359050612adb8161395d565b92915050565b600081519050612af08161395d565b92915050565b600082601f830112612b0757600080fd5b8135612b17848260208601612a79565b91505092915050565b600081359050612b2f81613974565b92915050565b600081519050612b4481613974565b92915050565b600060208284031215612b5c57600080fd5b6000612b6a84828501612ab7565b91505092915050565b60008060408385031215612b8657600080fd5b6000612b9485828601612ab7565b9250506020612ba585828601612b20565b9150509250929050565b600060208284031215612bc157600080fd5b6000612bcf84828501612ae1565b91505092915050565b600060208284031215612bea57600080fd5b6000612bf884828501612b20565b91505092915050565b600060208284031215612c1357600080fd5b6000612c2184828501612b35565b91505092915050565b60008060408385031215612c3d57600080fd5b6000612c4b85828601612b20565b9250506020612c5c85828601612ab7565b9150509250929050565b600080600060608486031215612c7b57600080fd5b6000612c8986828701612b20565b935050602084013567ffffffffffffffff811115612ca657600080fd5b612cb286828701612af6565b9250506040612cc386828701612acc565b9150509250925092565b600080600060608486031215612ce257600080fd5b6000612cf086828701612b20565b9350506020612d0186828701612b20565b9250506040612d1286828701612ab7565b9150509250925092565b612d2581613729565b82525050565b612d3481613729565b82525050565b612d438161373b565b82525050565b612d528161373b565b82525050565b612d6181613784565b82525050565b612d7081613784565b82525050565b612d7f81613796565b82525050565b6000612d90826136fc565b612d9a8185613707565b9350612daa8185602086016137b7565b612db381613921565b840191505092915050565b6000612dc9826136fc565b612dd38185613718565b9350612de38185602086016137b7565b612dec81613921565b840191505092915050565b6000612e04602c83613718565b91507f456c20646f63756d656e746f206e6f2065786973746520656e206e756573747260008301527f6f7320726567697374726f7300000000000000000000000000000000000000006020830152604082019050919050565b6000612e6a601f83613718565b91507f456c2064657374696e61746172696f2064656265207365722076616c69646f006000830152602082019050919050565b6000612eaa603c83613718565b91507f536f6c6f20656c2064657374696e61746172696f20707565646520416363656460008301527f657220616c207061676f206465206573746520446f63756d656e746f000000006020830152604082019050919050565b6000612f10602483613718565b91507f456c206e6f6d62726520646562652074656e657220756e206c6172676f206d6960008301527f6e696d6f000000000000000000000000000000000000000000000000000000006020830152604082019050919050565b6000612f76602c83613718565b91507f456c2064657374696e61746172696f206e6f20636f696e6369646520636f6e2060008301527f656c206465206f726967656e00000000000000000000000000000000000000006020830152604082019050919050565b6000612fdc602a83613718565b91507f46756e63696f6e616c6964616420736f6c6f207065726d69746964612070617260008301527f6120656c206f776e6572000000000000000000000000000000000000000000006020830152604082019050919050565b6000613042603183613718565b91507f456c206d6f6e746f20656e766961646f206465626520736572206d61796f722060008301527f6f20696775616c20616c2070726563696f0000000000000000000000000000006020830152604082019050919050565b60006130a8603983613718565b91507f456c20656d69736f722064656c20646f63756d656e746f20646562652073657260008301527f2064697374696e746f20616c2064657374696e61746172696f000000000000006020830152604082019050919050565b600061310e601283613718565b91507f4d6f6e746f20696e737566696369656e746500000000000000000000000000006000830152602082019050919050565b600061314e601983613718565b91507f4e6f2068617920737566696369656e74657320746f6b656e73000000000000006000830152602082019050919050565b600061318e602f83613718565b91507f536f6c6f20656c2064657374696e61746172696f20707565646520616365707460008301527f617220656c20446f63756d656e746f00000000000000000000000000000000006020830152604082019050919050565b600060c0830160008301516131ff6000860182613336565b50602083015184820360208601526132178282613270565b915050604083015161322c6040860182612d1c565b50606083015161323f6060860182612d1c565b5060808301516132526080860182613336565b5060a083015161326560a0860182612d58565b508091505092915050565b60006080830160008301516132886000860182613336565b50602083015161329b6020860182613336565b50604083015184820360408601526132b38282612d85565b91505060608301516132c86060860182612d3a565b508091505092915050565b60006080830160008301516132eb6000860182613336565b5060208301516132fe6020860182613336565b50604083015184820360408601526133168282612d85565b915050606083015161332b6060860182612d3a565b508091505092915050565b61333f8161377a565b82525050565b61334e8161377a565b82525050565b60006020820190506133696000830184612d2b565b92915050565b60006040820190506133846000830185612d2b565b6133916020830184612d76565b9392505050565b60006020820190506133ad6000830184612d49565b92915050565b60006020820190506133c86000830184612d67565b92915050565b600060208201905081810360008301526133e781612df7565b9050919050565b6000602082019050818103600083015261340781612e5d565b9050919050565b6000602082019050818103600083015261342781612e9d565b9050919050565b6000602082019050818103600083015261344781612f03565b9050919050565b6000602082019050818103600083015261346781612f69565b9050919050565b6000602082019050818103600083015261348781612fcf565b9050919050565b600060208201905081810360008301526134a781613035565b9050919050565b600060208201905081810360008301526134c78161309b565b9050919050565b600060208201905081810360008301526134e781613101565b9050919050565b6000602082019050818103600083015261350781613141565b9050919050565b6000602082019050818103600083015261352781613181565b9050919050565b6000602082019050818103600083015261354881846131e7565b905092915050565b6000602082019050818103600083015261356a81846132d3565b905092915050565b60006020820190506135876000830184613345565b92915050565b600060c0820190506135a26000830189613345565b81810360208301526135b481886132d3565b90506135c36040830187612d2b565b6135d06060830186612d2b565b6135dd6080830185613345565b6135ea60a0830184612d67565b979650505050505050565b600060808201905061360a6000830187613345565b6136176020830186613345565b81810360408301526136298185612dbe565b90506136386060830184612d49565b95945050505050565b600060a0820190506136566000830188613345565b6136636020830187613345565b81810360408301526136758186612dbe565b90506136846060830185612d49565b6136916080830184612d2b565b9695505050505050565b6000604051905081810181811067ffffffffffffffff821117156136c2576136c16138f2565b5b8060405250919050565b600067ffffffffffffffff8211156136e7576136e66138f2565b5b601f19601f8301169050602081019050919050565b600081519050919050565b600082825260208201905092915050565b600082825260208201905092915050565b60006137348261375a565b9050919050565b60008115159050919050565b600081905061375582613932565b919050565b600073ffffffffffffffffffffffffffffffffffffffff82169050919050565b6000819050919050565b600061378f82613747565b9050919050565b60006137a18261377a565b9050919050565b82818337600083830152505050565b60005b838110156137d55780820151818401526020810190506137ba565b838111156137e4576000848401525b50505050565b6000600282049050600182168061380257607f821691505b60208210811415613816576138156138c3565b5b50919050565b60006138278261377a565b91507fffffffffffffffffffffffffffffffffffffffffffffffffffffffffffffffff82141561385a57613859613865565b5b600182019050919050565b7f4e487b7100000000000000000000000000000000000000000000000000000000600052601160045260246000fd5b7f4e487b7100000000000000000000000000000000000000000000000000000000600052602160045260246000fd5b7f4e487b7100000000000000000000000000000000000000000000000000000000600052602260045260246000fd5b7f4e487b7100000000000000000000000000000000000000000000000000000000600052604160045260246000fd5b6000601f19601f8301169050919050565b6003811061394357613942613894565b5b50565b61394f81613729565b811461395a57600080fd5b50565b6139668161373b565b811461397157600080fd5b50565b61397d8161377a565b811461398857600080fd5b5056fea26469706673582212206d860cd5d3c84f7e22550e9fa067be98ff6f30adc9882c1824399747179047ea64736f6c63430008000033",
  "immutableReferences": {},
  "source": "// SPDX-License-Identifier: MIT\r\npragma solidity ^0.8.0;\r\n\r\nimport \"./CLPToken.sol\";\r\n\r\ncontract Notaria  {\r\n    address public owner;\r\n    uint public documentsCount = 0;\r\n    uint public documentosNotariaCount = 0;\r\n    IERC20 private token;\r\n    enum EstadoDocumentoNotaria{ ABIERTO, ACEPTADO, FINALIZADO }\r\n\r\n    struct Documento{ \r\n        uint id;\r\n        uint precio;\r\n        string nombre;\r\n        bool estado;\r\n    }\r\n\r\n    struct DocumentoNotaria{\r\n        uint id;\r\n        Documento documento;\r\n        address owner;\r\n        address destinatario;\r\n        uint precio;\r\n        EstadoDocumentoNotaria estado;\r\n    }\r\n\r\n    mapping(uint => Documento) public documentos;\r\n\r\n    mapping(address => uint) public totalDocumentosEmisor;\r\n    mapping(address => uint) public totalDocumentosDestinatario;\r\n    \r\n    mapping(uint => DocumentoNotaria) public documentosNotaria;\r\n    mapping(address => mapping(uint => DocumentoNotaria)) public documentosNotariaEmisor;\r\n    mapping(address => mapping(uint => DocumentoNotaria)) public documentosNotariaDestinatario;\r\n    \r\n    event DocumentoAdded(uint id, uint precio, string nombre, bool estado, address owner);\r\n    event DocumentoNotariaAdded(uint id, Documento documento, string nombre,  address owner, uint precio);\r\n    event DocumentoComprado(uint id, address owner);\r\n    event premioTokenDado(address recipient);\r\n    \r\n    constructor(IERC20 _token) {\r\n        token = _token;\r\n        owner = msg.sender;\r\n    }\r\n\r\n    function EnviarPremioToken() private {\r\n        uint256 amountToWithDrawal = token.balanceOf(address(this));\r\n        require(amountToWithDrawal >= 10000000000000000000, \"No hay suficientes tokens\");\r\n        token.transfer(msg.sender, 10000000000000000000);   \r\n        emit premioTokenDado(msg.sender);\r\n    } \r\n\r\n    function ValidaDisponibilidadPremio() public view returns (bool){\r\n        uint256 amountToWithDrawal = token.balanceOf(address(this));\r\n        if(amountToWithDrawal >= 10000000000000000000){\r\n            return true;\r\n        }else{\r\n            return false;\r\n        }\r\n    }\r\n\r\n    function AddDocumento(uint _precio, string memory _nombre, bool _estado) public payable{\r\n        require(msg.sender == owner, \"Funcionalidad solo permitida para el owner\");\r\n        require(bytes(_nombre).length > 0, \"El nombre debe tener un largo minimo\");\r\n        documentsCount++;\r\n        documentos[documentsCount] = Documento(documentsCount, _precio,_nombre,_estado);       \r\n        \r\n        emit DocumentoAdded(documentsCount,_precio, _nombre, _estado, msg.sender);\r\n    }\r\n    \r\n    function AddDocumentoNotaria(uint _idDocumento, uint _precio, address _destinatario) public payable returns(EstadoDocumentoNotaria){\r\n        require(msg.sender != address(0), \"El destinatario debe ser valido\");\r\n        require(msg.sender != _destinatario, \"El emisor del documento debe ser distinto al destinatario\");\r\n        Documento memory doc = documentos[_idDocumento];\r\n        require(doc.id > 0, \"El documento no existe en nuestros registros\");\r\n        documentosNotariaCount++;\r\n        DocumentoNotaria memory docNotaria = DocumentoNotaria(documentosNotariaCount, doc, msg.sender, _destinatario, _precio, EstadoDocumentoNotaria.ABIERTO);\r\n        documentosNotaria[documentosNotariaCount] = docNotaria;\r\n\r\n        totalDocumentosEmisor[msg.sender]++;\r\n        totalDocumentosDestinatario[_destinatario]++;\r\n        documentosNotariaEmisor[msg.sender][documentosNotariaCount] = docNotaria;\r\n        documentosNotariaDestinatario[_destinatario][documentosNotariaCount] = docNotaria;   \r\n \r\n        return docNotaria.estado;\r\n    }\r\n    \r\n    function AceptaDocumentoNotaria(uint _idDocumento) public returns (bool){\r\n        \r\n        DocumentoNotaria memory _docNotaria = GetDocumentoNotaria(_idDocumento);\r\n        //require(msg.value > _docNotaria.precio , \"Monto insuficiente\");\r\n        require(_docNotaria.estado == EstadoDocumentoNotaria.ABIERTO);\r\n        require(_docNotaria.destinatario == msg.sender, \"Solo el destinatario puede aceptar el Documento\");        \r\n        documentosNotaria[_idDocumento].estado = EstadoDocumentoNotaria.ACEPTADO;        \r\n        documentosNotariaDestinatario[msg.sender][_idDocumento].estado = EstadoDocumentoNotaria.ACEPTADO;        \r\n        require(documentosNotariaEmisor[_docNotaria.owner][_idDocumento].destinatario == _docNotaria.destinatario, \"El destinatario no coincide con el de origen\");\r\n        documentosNotariaEmisor[_docNotaria.owner][_idDocumento].estado = EstadoDocumentoNotaria.ACEPTADO;\r\n\r\n        if(ValidaDisponibilidadPremio() == true){\r\n            EnviarPremioToken();\r\n        }        \r\n        return true;\r\n    }\r\n    \r\n    function FinalizaDocumentoNotaria(uint _idDocumento) public payable returns (bool){\r\n        \r\n        DocumentoNotaria memory _docNotaria = GetDocumentoNotaria(_idDocumento);\r\n        require(msg.value > _docNotaria.precio , \"Monto insuficiente\");\r\n        require(_docNotaria.estado == EstadoDocumentoNotaria.ACEPTADO);\r\n        require(_docNotaria.destinatario == msg.sender, \"Solo el destinatario puede Acceder al pago de este Documento\");\r\n        \r\n        require(msg.value >= _docNotaria.precio, \"El monto enviado debe ser mayor o igual al precio\");\r\n        documentosNotaria[_idDocumento].estado = EstadoDocumentoNotaria.FINALIZADO;\r\n        documentosNotariaDestinatario[msg.sender][_idDocumento].estado = EstadoDocumentoNotaria.FINALIZADO;\r\n        require(documentosNotariaEmisor[_docNotaria.owner][_idDocumento].destinatario == _docNotaria.destinatario, \"El destinatario no coincide con el de origen\");\r\n        \r\n        documentosNotariaEmisor[_docNotaria.owner][_idDocumento].estado = EstadoDocumentoNotaria.FINALIZADO;\r\n        payable(_docNotaria.owner).transfer(msg.value);        \r\n        return true;\r\n    }\r\n    \r\n    function RechazaDocumentoNotaria(uint _idDocumento) public payable returns (bool){\r\n        DocumentoNotaria memory _docNotaria = GetDocumentoNotaria(_idDocumento);\r\n        require(_docNotaria.estado == EstadoDocumentoNotaria.ACEPTADO || _docNotaria.estado == EstadoDocumentoNotaria.ABIERTO);\r\n        return true;\r\n    }   \r\n\r\n    \r\n    function GetDocumento(uint _idDocumento) public view returns(Documento memory doc){\r\n        doc = documentos[_idDocumento];\r\n        return doc;\r\n    }\r\n    \r\n    function GetDocumentoNotaria(uint _idDocumento) public view returns(DocumentoNotaria memory doc){\r\n        doc = documentosNotaria[_idDocumento];\r\n        return doc;\r\n    }\r\n    \r\n    function GetDocumentoNotariaEmisor(uint _idDocumento, address _direccion) public view returns(DocumentoNotaria memory doc){\r\n        doc = documentosNotariaEmisor[_direccion][_idDocumento];\r\n        return doc;\r\n    }\r\n    \r\n    function GetDocumentoNotariaDestinatario(uint _idDocumento, address _direccion) public view returns(DocumentoNotaria memory doc){\r\n        doc = documentosNotariaDestinatario[_direccion][_idDocumento];\r\n        return doc;\r\n    } \r\n    \r\n    function GetOwner() public view returns (address){\r\n        return owner;\r\n    }\r\n\r\n    modifier isOwner(){\r\n        require(msg.sender == owner);\r\n        _;\r\n    } \r\n\r\n    receive() external payable {} \r\n}",
  "sourcePath": "D:/Curso Solidity Avanzado BlockChain Academy/proyecto-react/contracts/Notaria.sol",
  "compiler": {
    "name": "solc",
    "version": "0.8.0+commit.c7dfd78e.Emscripten.clang"
  },
  "schemaVersion": "3.3.4",
  "updatedAt": "2021-08-08T22:56:59.988Z",
  "devdoc": {
    "kind": "dev",
    "methods": {},
    "version": 1
  },
  "userdoc": {
    "kind": "user",
    "methods": {},
    "version": 1
  }
}