{
  "contractName": "Notaria",
  "abi": [
    {
      "inputs": [],
      "stateMutability": "nonpayable",
      "type": "constructor"
    },
    {
      "anonymous": false,
      "inputs": [
        {
          "indexed": true,
          "internalType": "address",
          "name": "owner",
          "type": "address"
        },
        {
          "indexed": true,
          "internalType": "address",
          "name": "spender",
          "type": "address"
        },
        {
          "indexed": false,
          "internalType": "uint256",
          "name": "value",
          "type": "uint256"
        }
      ],
      "name": "Approval",
      "type": "event"
    },
    {
      "anonymous": false,
      "inputs": [
        {
          "indexed": false,
          "internalType": "uint256",
          "name": "id",
          "type": "uint256"
        },
        {
          "indexed": false,
          "internalType": "uint256",
          "name": "precio",
          "type": "uint256"
        },
        {
          "indexed": false,
          "internalType": "string",
          "name": "nombre",
          "type": "string"
        },
        {
          "indexed": false,
          "internalType": "bool",
          "name": "estado",
          "type": "bool"
        },
        {
          "indexed": false,
          "internalType": "address",
          "name": "owner",
          "type": "address"
        }
      ],
      "name": "DocumentoAdded",
      "type": "event"
    },
    {
      "anonymous": false,
      "inputs": [
        {
          "indexed": false,
          "internalType": "uint256",
          "name": "id",
          "type": "uint256"
        },
        {
          "indexed": false,
          "internalType": "address",
          "name": "owner",
          "type": "address"
        }
      ],
      "name": "DocumentoComprado",
      "type": "event"
    },
    {
      "anonymous": false,
      "inputs": [
        {
          "indexed": false,
          "internalType": "uint256",
          "name": "id",
          "type": "uint256"
        },
        {
          "components": [
            {
              "internalType": "uint256",
              "name": "id",
              "type": "uint256"
            },
            {
              "internalType": "uint256",
              "name": "precio",
              "type": "uint256"
            },
            {
              "internalType": "string",
              "name": "nombre",
              "type": "string"
            },
            {
              "internalType": "bool",
              "name": "estado",
              "type": "bool"
            }
          ],
          "indexed": false,
          "internalType": "struct Notaria.Documento",
          "name": "documento",
          "type": "tuple"
        },
        {
          "indexed": false,
          "internalType": "string",
          "name": "nombre",
          "type": "string"
        },
        {
          "indexed": false,
          "internalType": "address",
          "name": "owner",
          "type": "address"
        },
        {
          "indexed": false,
          "internalType": "uint256",
          "name": "precio",
          "type": "uint256"
        }
      ],
      "name": "DocumentoNotariaAdded",
      "type": "event"
    },
    {
      "anonymous": false,
      "inputs": [
        {
          "indexed": true,
          "internalType": "address",
          "name": "from",
          "type": "address"
        },
        {
          "indexed": true,
          "internalType": "address",
          "name": "to",
          "type": "address"
        },
        {
          "indexed": false,
          "internalType": "uint256",
          "name": "value",
          "type": "uint256"
        }
      ],
      "name": "Transfer",
      "type": "event"
    },
    {
      "inputs": [
        {
          "internalType": "address",
          "name": "owner",
          "type": "address"
        },
        {
          "internalType": "address",
          "name": "spender",
          "type": "address"
        }
      ],
      "name": "allowance",
      "outputs": [
        {
          "internalType": "uint256",
          "name": "",
          "type": "uint256"
        }
      ],
      "stateMutability": "view",
      "type": "function",
      "constant": true
    },
    {
      "inputs": [
        {
          "internalType": "address",
          "name": "spender",
          "type": "address"
        },
        {
          "internalType": "uint256",
          "name": "amount",
          "type": "uint256"
        }
      ],
      "name": "approve",
      "outputs": [
        {
          "internalType": "bool",
          "name": "",
          "type": "bool"
        }
      ],
      "stateMutability": "nonpayable",
      "type": "function"
    },
    {
      "inputs": [
        {
          "internalType": "address",
          "name": "account",
          "type": "address"
        }
      ],
      "name": "balanceOf",
      "outputs": [
        {
          "internalType": "uint256",
          "name": "",
          "type": "uint256"
        }
      ],
      "stateMutability": "view",
      "type": "function",
      "constant": true
    },
    {
      "inputs": [],
      "name": "decimals",
      "outputs": [
        {
          "internalType": "uint8",
          "name": "",
          "type": "uint8"
        }
      ],
      "stateMutability": "view",
      "type": "function",
      "constant": true
    },
    {
      "inputs": [
        {
          "internalType": "address",
          "name": "spender",
          "type": "address"
        },
        {
          "internalType": "uint256",
          "name": "subtractedValue",
          "type": "uint256"
        }
      ],
      "name": "decreaseAllowance",
      "outputs": [
        {
          "internalType": "bool",
          "name": "",
          "type": "bool"
        }
      ],
      "stateMutability": "nonpayable",
      "type": "function"
    },
    {
      "inputs": [
        {
          "internalType": "uint256",
          "name": "",
          "type": "uint256"
        }
      ],
      "name": "documentos",
      "outputs": [
        {
          "internalType": "uint256",
          "name": "id",
          "type": "uint256"
        },
        {
          "internalType": "uint256",
          "name": "precio",
          "type": "uint256"
        },
        {
          "internalType": "string",
          "name": "nombre",
          "type": "string"
        },
        {
          "internalType": "bool",
          "name": "estado",
          "type": "bool"
        }
      ],
      "stateMutability": "view",
      "type": "function",
      "constant": true
    },
    {
      "inputs": [
        {
          "internalType": "uint256",
          "name": "",
          "type": "uint256"
        }
      ],
      "name": "documentosNotaria",
      "outputs": [
        {
          "internalType": "uint256",
          "name": "id",
          "type": "uint256"
        },
        {
          "components": [
            {
              "internalType": "uint256",
              "name": "id",
              "type": "uint256"
            },
            {
              "internalType": "uint256",
              "name": "precio",
              "type": "uint256"
            },
            {
              "internalType": "string",
              "name": "nombre",
              "type": "string"
            },
            {
              "internalType": "bool",
              "name": "estado",
              "type": "bool"
            }
          ],
          "internalType": "struct Notaria.Documento",
          "name": "documento",
          "type": "tuple"
        },
        {
          "internalType": "address",
          "name": "owner",
          "type": "address"
        },
        {
          "internalType": "address",
          "name": "destinatario",
          "type": "address"
        },
        {
          "internalType": "uint256",
          "name": "precio",
          "type": "uint256"
        },
        {
          "internalType": "enum Notaria.EstadoDocumentoNotaria",
          "name": "estado",
          "type": "uint8"
        }
      ],
      "stateMutability": "view",
      "type": "function",
      "constant": true
    },
    {
      "inputs": [],
      "name": "documentosNotariaCount",
      "outputs": [
        {
          "internalType": "uint256",
          "name": "",
          "type": "uint256"
        }
      ],
      "stateMutability": "view",
      "type": "function",
      "constant": true
    },
    {
      "inputs": [
        {
          "internalType": "address",
          "name": "",
          "type": "address"
        },
        {
          "internalType": "uint256",
          "name": "",
          "type": "uint256"
        }
      ],
      "name": "documentosNotariaDestinatario",
      "outputs": [
        {
          "internalType": "uint256",
          "name": "id",
          "type": "uint256"
        },
        {
          "components": [
            {
              "internalType": "uint256",
              "name": "id",
              "type": "uint256"
            },
            {
              "internalType": "uint256",
              "name": "precio",
              "type": "uint256"
            },
            {
              "internalType": "string",
              "name": "nombre",
              "type": "string"
            },
            {
              "internalType": "bool",
              "name": "estado",
              "type": "bool"
            }
          ],
          "internalType": "struct Notaria.Documento",
          "name": "documento",
          "type": "tuple"
        },
        {
          "internalType": "address",
          "name": "owner",
          "type": "address"
        },
        {
          "internalType": "address",
          "name": "destinatario",
          "type": "address"
        },
        {
          "internalType": "uint256",
          "name": "precio",
          "type": "uint256"
        },
        {
          "internalType": "enum Notaria.EstadoDocumentoNotaria",
          "name": "estado",
          "type": "uint8"
        }
      ],
      "stateMutability": "view",
      "type": "function",
      "constant": true
    },
    {
      "inputs": [
        {
          "internalType": "address",
          "name": "",
          "type": "address"
        },
        {
          "internalType": "uint256",
          "name": "",
          "type": "uint256"
        }
      ],
      "name": "documentosNotariaEmisor",
      "outputs": [
        {
          "internalType": "uint256",
          "name": "id",
          "type": "uint256"
        },
        {
          "components": [
            {
              "internalType": "uint256",
              "name": "id",
              "type": "uint256"
            },
            {
              "internalType": "uint256",
              "name": "precio",
              "type": "uint256"
            },
            {
              "internalType": "string",
              "name": "nombre",
              "type": "string"
            },
            {
              "internalType": "bool",
              "name": "estado",
              "type": "bool"
            }
          ],
          "internalType": "struct Notaria.Documento",
          "name": "documento",
          "type": "tuple"
        },
        {
          "internalType": "address",
          "name": "owner",
          "type": "address"
        },
        {
          "internalType": "address",
          "name": "destinatario",
          "type": "address"
        },
        {
          "internalType": "uint256",
          "name": "precio",
          "type": "uint256"
        },
        {
          "internalType": "enum Notaria.EstadoDocumentoNotaria",
          "name": "estado",
          "type": "uint8"
        }
      ],
      "stateMutability": "view",
      "type": "function",
      "constant": true
    },
    {
      "inputs": [],
      "name": "documentsCount",
      "outputs": [
        {
          "internalType": "uint256",
          "name": "",
          "type": "uint256"
        }
      ],
      "stateMutability": "view",
      "type": "function",
      "constant": true
    },
    {
      "inputs": [
        {
          "internalType": "address",
          "name": "spender",
          "type": "address"
        },
        {
          "internalType": "uint256",
          "name": "addedValue",
          "type": "uint256"
        }
      ],
      "name": "increaseAllowance",
      "outputs": [
        {
          "internalType": "bool",
          "name": "",
          "type": "bool"
        }
      ],
      "stateMutability": "nonpayable",
      "type": "function"
    },
    {
      "inputs": [],
      "name": "name",
      "outputs": [
        {
          "internalType": "string",
          "name": "",
          "type": "string"
        }
      ],
      "stateMutability": "view",
      "type": "function",
      "constant": true
    },
    {
      "inputs": [],
      "name": "symbol",
      "outputs": [
        {
          "internalType": "string",
          "name": "",
          "type": "string"
        }
      ],
      "stateMutability": "view",
      "type": "function",
      "constant": true
    },
    {
      "inputs": [
        {
          "internalType": "address",
          "name": "",
          "type": "address"
        }
      ],
      "name": "totalDocumentosDestinatario",
      "outputs": [
        {
          "internalType": "uint256",
          "name": "",
          "type": "uint256"
        }
      ],
      "stateMutability": "view",
      "type": "function",
      "constant": true
    },
    {
      "inputs": [
        {
          "internalType": "address",
          "name": "",
          "type": "address"
        }
      ],
      "name": "totalDocumentosEmisor",
      "outputs": [
        {
          "internalType": "uint256",
          "name": "",
          "type": "uint256"
        }
      ],
      "stateMutability": "view",
      "type": "function",
      "constant": true
    },
    {
      "inputs": [],
      "name": "totalSupply",
      "outputs": [
        {
          "internalType": "uint256",
          "name": "",
          "type": "uint256"
        }
      ],
      "stateMutability": "view",
      "type": "function",
      "constant": true
    },
    {
      "inputs": [
        {
          "internalType": "address",
          "name": "recipient",
          "type": "address"
        },
        {
          "internalType": "uint256",
          "name": "amount",
          "type": "uint256"
        }
      ],
      "name": "transfer",
      "outputs": [
        {
          "internalType": "bool",
          "name": "",
          "type": "bool"
        }
      ],
      "stateMutability": "nonpayable",
      "type": "function"
    },
    {
      "inputs": [
        {
          "internalType": "address",
          "name": "sender",
          "type": "address"
        },
        {
          "internalType": "address",
          "name": "recipient",
          "type": "address"
        },
        {
          "internalType": "uint256",
          "name": "amount",
          "type": "uint256"
        }
      ],
      "name": "transferFrom",
      "outputs": [
        {
          "internalType": "bool",
          "name": "",
          "type": "bool"
        }
      ],
      "stateMutability": "nonpayable",
      "type": "function"
    },
    {
      "stateMutability": "payable",
      "type": "receive",
      "payable": true
    },
    {
      "inputs": [
        {
          "internalType": "uint256",
          "name": "_precio",
          "type": "uint256"
        },
        {
          "internalType": "string",
          "name": "_nombre",
          "type": "string"
        },
        {
          "internalType": "bool",
          "name": "_estado",
          "type": "bool"
        }
      ],
      "name": "AddDocumento",
      "outputs": [],
      "stateMutability": "payable",
      "type": "function",
      "payable": true
    },
    {
      "inputs": [
        {
          "internalType": "uint256",
          "name": "_idDocumento",
          "type": "uint256"
        },
        {
          "internalType": "uint256",
          "name": "_precio",
          "type": "uint256"
        },
        {
          "internalType": "address",
          "name": "_destinatario",
          "type": "address"
        }
      ],
      "name": "AddDocumentoNotaria",
      "outputs": [
        {
          "internalType": "enum Notaria.EstadoDocumentoNotaria",
          "name": "",
          "type": "uint8"
        }
      ],
      "stateMutability": "payable",
      "type": "function",
      "payable": true
    },
    {
      "inputs": [
        {
          "internalType": "uint256",
          "name": "_idDocumento",
          "type": "uint256"
        }
      ],
      "name": "AceptaDocumentoNotaria",
      "outputs": [
        {
          "internalType": "bool",
          "name": "",
          "type": "bool"
        }
      ],
      "stateMutability": "payable",
      "type": "function",
      "payable": true
    },
    {
      "inputs": [
        {
          "internalType": "uint256",
          "name": "_idDocumento",
          "type": "uint256"
        }
      ],
      "name": "FinalizaDocumentoNotaria",
      "outputs": [
        {
          "internalType": "bool",
          "name": "",
          "type": "bool"
        }
      ],
      "stateMutability": "payable",
      "type": "function",
      "payable": true
    },
    {
      "inputs": [
        {
          "internalType": "uint256",
          "name": "_idDocumento",
          "type": "uint256"
        }
      ],
      "name": "RechazaDocumentoNotaria",
      "outputs": [
        {
          "internalType": "bool",
          "name": "",
          "type": "bool"
        }
      ],
      "stateMutability": "payable",
      "type": "function",
      "payable": true
    },
    {
      "inputs": [
        {
          "internalType": "uint256",
          "name": "_idDocumento",
          "type": "uint256"
        }
      ],
      "name": "GetDocumento",
      "outputs": [
        {
          "components": [
            {
              "internalType": "uint256",
              "name": "id",
              "type": "uint256"
            },
            {
              "internalType": "uint256",
              "name": "precio",
              "type": "uint256"
            },
            {
              "internalType": "string",
              "name": "nombre",
              "type": "string"
            },
            {
              "internalType": "bool",
              "name": "estado",
              "type": "bool"
            }
          ],
          "internalType": "struct Notaria.Documento",
          "name": "doc",
          "type": "tuple"
        }
      ],
      "stateMutability": "view",
      "type": "function",
      "constant": true
    },
    {
      "inputs": [
        {
          "internalType": "uint256",
          "name": "_idDocumento",
          "type": "uint256"
        }
      ],
      "name": "GetDocumentoNotaria",
      "outputs": [
        {
          "components": [
            {
              "internalType": "uint256",
              "name": "id",
              "type": "uint256"
            },
            {
              "components": [
                {
                  "internalType": "uint256",
                  "name": "id",
                  "type": "uint256"
                },
                {
                  "internalType": "uint256",
                  "name": "precio",
                  "type": "uint256"
                },
                {
                  "internalType": "string",
                  "name": "nombre",
                  "type": "string"
                },
                {
                  "internalType": "bool",
                  "name": "estado",
                  "type": "bool"
                }
              ],
              "internalType": "struct Notaria.Documento",
              "name": "documento",
              "type": "tuple"
            },
            {
              "internalType": "address",
              "name": "owner",
              "type": "address"
            },
            {
              "internalType": "address",
              "name": "destinatario",
              "type": "address"
            },
            {
              "internalType": "uint256",
              "name": "precio",
              "type": "uint256"
            },
            {
              "internalType": "enum Notaria.EstadoDocumentoNotaria",
              "name": "estado",
              "type": "uint8"
            }
          ],
          "internalType": "struct Notaria.DocumentoNotaria",
          "name": "doc",
          "type": "tuple"
        }
      ],
      "stateMutability": "view",
      "type": "function",
      "constant": true
    },
    {
      "inputs": [
        {
          "internalType": "uint256",
          "name": "_idDocumento",
          "type": "uint256"
        },
        {
          "internalType": "address",
          "name": "_direccion",
          "type": "address"
        }
      ],
      "name": "GetDocumentoNotariaEmisor",
      "outputs": [
        {
          "components": [
            {
              "internalType": "uint256",
              "name": "id",
              "type": "uint256"
            },
            {
              "components": [
                {
                  "internalType": "uint256",
                  "name": "id",
                  "type": "uint256"
                },
                {
                  "internalType": "uint256",
                  "name": "precio",
                  "type": "uint256"
                },
                {
                  "internalType": "string",
                  "name": "nombre",
                  "type": "string"
                },
                {
                  "internalType": "bool",
                  "name": "estado",
                  "type": "bool"
                }
              ],
              "internalType": "struct Notaria.Documento",
              "name": "documento",
              "type": "tuple"
            },
            {
              "internalType": "address",
              "name": "owner",
              "type": "address"
            },
            {
              "internalType": "address",
              "name": "destinatario",
              "type": "address"
            },
            {
              "internalType": "uint256",
              "name": "precio",
              "type": "uint256"
            },
            {
              "internalType": "enum Notaria.EstadoDocumentoNotaria",
              "name": "estado",
              "type": "uint8"
            }
          ],
          "internalType": "struct Notaria.DocumentoNotaria",
          "name": "doc",
          "type": "tuple"
        }
      ],
      "stateMutability": "view",
      "type": "function",
      "constant": true
    },
    {
      "inputs": [
        {
          "internalType": "uint256",
          "name": "_idDocumento",
          "type": "uint256"
        },
        {
          "internalType": "address",
          "name": "_direccion",
          "type": "address"
        }
      ],
      "name": "GetDocumentoNotariaDestinatario",
      "outputs": [
        {
          "components": [
            {
              "internalType": "uint256",
              "name": "id",
              "type": "uint256"
            },
            {
              "components": [
                {
                  "internalType": "uint256",
                  "name": "id",
                  "type": "uint256"
                },
                {
                  "internalType": "uint256",
                  "name": "precio",
                  "type": "uint256"
                },
                {
                  "internalType": "string",
                  "name": "nombre",
                  "type": "string"
                },
                {
                  "internalType": "bool",
                  "name": "estado",
                  "type": "bool"
                }
              ],
              "internalType": "struct Notaria.Documento",
              "name": "documento",
              "type": "tuple"
            },
            {
              "internalType": "address",
              "name": "owner",
              "type": "address"
            },
            {
              "internalType": "address",
              "name": "destinatario",
              "type": "address"
            },
            {
              "internalType": "uint256",
              "name": "precio",
              "type": "uint256"
            },
            {
              "internalType": "enum Notaria.EstadoDocumentoNotaria",
              "name": "estado",
              "type": "uint8"
            }
          ],
          "internalType": "struct Notaria.DocumentoNotaria",
          "name": "doc",
          "type": "tuple"
        }
      ],
      "stateMutability": "view",
      "type": "function",
      "constant": true
    },
    {
      "inputs": [],
      "name": "GetOwner",
      "outputs": [
        {
          "internalType": "address",
          "name": "",
          "type": "address"
        }
      ],
      "stateMutability": "view",
      "type": "function",
      "constant": true
    }
  ],
  "bytecode": "0x6080604052600060065560006007553480156200001b57600080fd5b506040518060400160405280600d81526020017f4368696c65616e20546f6b656e000000000000000000000000000000000000008152506040518060400160405280600481526020017f434c5054000000000000000000000000000000000000000000000000000000008152508160039080519060200190620000a092919062000281565b508060049080519060200190620000b992919062000281565b505050620000d0336127106200011760201b60201c565b33600560006101000a81548173ffffffffffffffffffffffffffffffffffffffff021916908373ffffffffffffffffffffffffffffffffffffffff160217905550620004cf565b600073ffffffffffffffffffffffffffffffffffffffff168273ffffffffffffffffffffffffffffffffffffffff1614156200018a576040517f08c379a0000000000000000000000000000000000000000000000000000000008152600401620001819062000384565b60405180910390fd5b6200019e600083836200027c60201b60201c565b8060026000828254620001b29190620003d4565b92505081905550806000808473ffffffffffffffffffffffffffffffffffffffff1673ffffffffffffffffffffffffffffffffffffffff1681526020019081526020016000206000828254620002099190620003d4565b925050819055508173ffffffffffffffffffffffffffffffffffffffff16600073ffffffffffffffffffffffffffffffffffffffff167fddf252ad1be2c89b69c2b068fc378daa952ba7f163c4a11628f55a4df523b3ef83604051620002709190620003a6565b60405180910390a35050565b505050565b8280546200028f906200043b565b90600052602060002090601f016020900481019282620002b35760008555620002ff565b82601f10620002ce57805160ff1916838001178555620002ff565b82800160010185558215620002ff579182015b82811115620002fe578251825591602001919060010190620002e1565b5b5090506200030e919062000312565b5090565b5b808211156200032d57600081600090555060010162000313565b5090565b600062000340601f83620003c3565b91507f45524332303a206d696e7420746f20746865207a65726f2061646472657373006000830152602082019050919050565b6200037e8162000431565b82525050565b600060208201905081810360008301526200039f8162000331565b9050919050565b6000602082019050620003bd600083018462000373565b92915050565b600082825260208201905092915050565b6000620003e18262000431565b9150620003ee8362000431565b9250827fffffffffffffffffffffffffffffffffffffffffffffffffffffffffffffffff0382111562000426576200042562000471565b5b828201905092915050565b6000819050919050565b600060028204905060018216806200045457607f821691505b602082108114156200046b576200046a620004a0565b5b50919050565b7f4e487b7100000000000000000000000000000000000000000000000000000000600052601160045260246000fd5b7f4e487b7100000000000000000000000000000000000000000000000000000000600052602260045260246000fd5b6145ff80620004df6000396000f3fe6080604052600436106101c65760003560e01c806370a08231116100f7578063b908db7011610095578063d99b73d811610064578063d99b73d81461071b578063dd62ed3e1461074b578063f6556d3b14610788578063fb699fa3146107ca576101cd565b8063b908db7014610631578063bb674f201461065c578063c67dbe8c1461069c578063cddb534d146106de576101cd565b806395e52d98116100d157806395e52d981461054f578063a457c2d71461057a578063a9059cbb146105b7578063b5732a96146105f4576101cd565b806370a08231146104b75780638d9520e6146104f457806395d89b4114610524576101cd565b806323b872dd116101645780633166aa9b1161013e5780633166aa9b146103d0578063395093511461040d5780633bfa2e241461044a5780635dc74f781461047a576101cd565b806323b872dd1461034c5780632c62c7be14610389578063313ce567146103a5576101cd565b806318160ddd116101a057806318160ddd14610265578063194e19b0146102905780631beeba56146102d25780631c03fafc1461030f576101cd565b806306fdde03146101d2578063095ea7b3146101fd5780630ae50a391461023a576101cd565b366101cd57005b600080fd5b3480156101de57600080fd5b506101e76107fa565b6040516101f49190613eaa565b60405180910390f35b34801561020957600080fd5b50610224600480360381019061021f9190613480565b61088c565b6040516102319190613e74565b60405180910390f35b34801561024657600080fd5b5061024f6108aa565b60405161025c9190613e59565b60405180910390f35b34801561027157600080fd5b5061027a6108d4565b6040516102879190614110565b60405180910390f35b34801561029c57600080fd5b506102b760048036038101906102b291906134bc565b6108de565b6040516102c99695949392919061412b565b60405180910390f35b3480156102de57600080fd5b506102f960048036038101906102f491906134bc565b610a32565b60405161030691906140ee565b60405180910390f35b34801561031b57600080fd5b50610336600480360381019061033191906133cc565b610b20565b6040516103439190614110565b60405180910390f35b34801561035857600080fd5b50610373600480360381019061036e9190613431565b610b38565b6040516103809190613e74565b60405180910390f35b6103a3600480360381019061039e9190613521565b610c39565b005b3480156103b157600080fd5b506103ba610df9565b6040516103c79190614239565b60405180910390f35b3480156103dc57600080fd5b506103f760048036038101906103f291906134e5565b610e02565b60405161040491906140cc565b60405180910390f35b34801561041957600080fd5b50610434600480360381019061042f9190613480565b611089565b6040516104419190613e74565b60405180910390f35b610464600480360381019061045f91906134bc565b611135565b6040516104719190613e74565b60405180910390f35b34801561048657600080fd5b506104a1600480360381019061049c91906134bc565b6115ae565b6040516104ae91906140cc565b60405180910390f35b3480156104c357600080fd5b506104de60048036038101906104d991906133cc565b6117f7565b6040516104eb9190614110565b60405180910390f35b61050e600480360381019061050991906134bc565b61183f565b60405161051b9190613e74565b60405180910390f35b34801561053057600080fd5b50610539611c26565b6040516105469190613eaa565b60405180910390f35b34801561055b57600080fd5b50610564611cb8565b6040516105719190614110565b60405180910390f35b34801561058657600080fd5b506105a1600480360381019061059c9190613480565b611cbe565b6040516105ae9190613e74565b60405180910390f35b3480156105c357600080fd5b506105de60048036038101906105d99190613480565b611db2565b6040516105eb9190613e74565b60405180910390f35b34801561060057600080fd5b5061061b600480360381019061061691906134e5565b611dd0565b60405161062891906140cc565b60405180910390f35b34801561063d57600080fd5b50610646612057565b6040516106539190614110565b60405180910390f35b34801561066857600080fd5b50610683600480360381019061067e91906134bc565b61205d565b6040516106939493929190614193565b60405180910390f35b3480156106a857600080fd5b506106c360048036038101906106be9190613480565b612122565b6040516106d59695949392919061412b565b60405180910390f35b3480156106ea57600080fd5b50610705600480360381019061070091906133cc565b612283565b6040516107129190614110565b60405180910390f35b610735600480360381019061073091906134bc565b61229b565b6040516107429190613e74565b60405180910390f35b34801561075757600080fd5b50610772600480360381019061076d91906133f5565b6123b3565b60405161077f9190614110565b60405180910390f35b34801561079457600080fd5b506107af60048036038101906107aa9190613480565b61243a565b6040516107c19695949392919061412b565b60405180910390f35b6107e460048036038101906107df9190613588565b61259b565b6040516107f19190613e8f565b60405180910390f35b60606003805461080990614428565b80601f016020809104026020016040519081016040528092919081815260200182805461083590614428565b80156108825780601f1061085757610100808354040283529160200191610882565b820191906000526020600020905b81548152906001019060200180831161086557829003601f168201915b5050505050905090565b60006108a0610899612d61565b8484612d69565b6001905092915050565b6000600560009054906101000a900473ffffffffffffffffffffffffffffffffffffffff16905090565b6000600254905090565b600b60205280600052604060002060009150905080600001549080600101604051806080016040529081600082015481526020016001820154815260200160028201805461092b90614428565b80601f016020809104026020016040519081016040528092919081815260200182805461095790614428565b80156109a45780601f10610979576101008083540402835291602001916109a4565b820191906000526020600020905b81548152906001019060200180831161098757829003601f168201915b505050505081526020016003820160009054906101000a900460ff161515151581525050908060050160009054906101000a900473ffffffffffffffffffffffffffffffffffffffff16908060060160009054906101000a900473ffffffffffffffffffffffffffffffffffffffff16908060070154908060080160009054906101000a900460ff16905086565b610a3a6131b8565b600860008381526020019081526020016000206040518060800160405290816000820154815260200160018201548152602001600282018054610a7c90614428565b80601f0160208091040260200160405190810160405280929190818152602001828054610aa890614428565b8015610af55780601f10610aca57610100808354040283529160200191610af5565b820191906000526020600020905b815481529060010190602001808311610ad857829003601f168201915b505050505081526020016003820160009054906101000a900460ff1615151515815250509050919050565b600a6020528060005260406000206000915090505481565b6000610b45848484612f34565b6000600160008673ffffffffffffffffffffffffffffffffffffffff1673ffffffffffffffffffffffffffffffffffffffff1681526020019081526020016000206000610b90612d61565b73ffffffffffffffffffffffffffffffffffffffff1673ffffffffffffffffffffffffffffffffffffffff16815260200190815260200160002054905082811015610c10576040517f08c379a0000000000000000000000000000000000000000000000000000000008152600401610c0790613fec565b60405180910390fd5b610c2d85610c1c612d61565b8584610c289190614338565b612d69565b60019150509392505050565b600560009054906101000a900473ffffffffffffffffffffffffffffffffffffffff1673ffffffffffffffffffffffffffffffffffffffff163373ffffffffffffffffffffffffffffffffffffffff1614610cc9576040517f08c379a0000000000000000000000000000000000000000000000000000000008152600401610cc090613fac565b60405180910390fd5b6000825111610d0d576040517f08c379a0000000000000000000000000000000000000000000000000000000008152600401610d0490613f6c565b60405180910390fd5b60066000815480929190610d209061445a565b91905055506040518060800160405280600654815260200184815260200183815260200182151581525060086000600654815260200190815260200160002060008201518160000155602082015181600101556040820151816002019080519060200190610d8f9291906131e2565b5060608201518160030160006101000a81548160ff0219169083151502179055509050507f5d11aed1842005d2aad4bd5cd443eb580b0abd53c28f7b77bfeef1b321ee594e60065484848433604051610dec9594939291906141df565b60405180910390a1505050565b60006012905090565b610e0a613268565b600c60008373ffffffffffffffffffffffffffffffffffffffff1673ffffffffffffffffffffffffffffffffffffffff16815260200190815260200160002060008481526020019081526020016000206040518060c001604052908160008201548152602001600182016040518060800160405290816000820154815260200160018201548152602001600282018054610ea390614428565b80601f0160208091040260200160405190810160405280929190818152602001828054610ecf90614428565b8015610f1c5780601f10610ef157610100808354040283529160200191610f1c565b820191906000526020600020905b815481529060010190602001808311610eff57829003601f168201915b505050505081526020016003820160009054906101000a900460ff16151515158152505081526020016005820160009054906101000a900473ffffffffffffffffffffffffffffffffffffffff1673ffffffffffffffffffffffffffffffffffffffff1673ffffffffffffffffffffffffffffffffffffffff1681526020016006820160009054906101000a900473ffffffffffffffffffffffffffffffffffffffff1673ffffffffffffffffffffffffffffffffffffffff1673ffffffffffffffffffffffffffffffffffffffff168152602001600782015481526020016008820160009054906101000a900460ff166002811115611045577f4e487b7100000000000000000000000000000000000000000000000000000000600052602160045260246000fd5b600281111561107d577f4e487b7100000000000000000000000000000000000000000000000000000000600052602160045260246000fd5b81525050905092915050565b600061112b611096612d61565b8484600160006110a4612d61565b73ffffffffffffffffffffffffffffffffffffffff1673ffffffffffffffffffffffffffffffffffffffff16815260200190815260200160002060008873ffffffffffffffffffffffffffffffffffffffff1673ffffffffffffffffffffffffffffffffffffffff1681526020019081526020016000205461112691906142e2565b612d69565b6001905092915050565b600080611141836115ae565b905080608001513411611189576040517f08c379a00000000000000000000000000000000000000000000000000000000081526004016111809061406c565b60405180910390fd5b600160028111156111c3577f4e487b7100000000000000000000000000000000000000000000000000000000600052602160045260246000fd5b8160a001516002811115611200577f4e487b7100000000000000000000000000000000000000000000000000000000600052602160045260246000fd5b1461120a57600080fd5b3373ffffffffffffffffffffffffffffffffffffffff16816060015173ffffffffffffffffffffffffffffffffffffffff161461127c576040517f08c379a000000000000000000000000000000000000000000000000000000000815260040161127390613f4c565b60405180910390fd5b80608001513410156112c3576040517f08c379a00000000000000000000000000000000000000000000000000000000081526004016112ba90613fcc565b60405180910390fd5b6002600b600085815260200190815260200160002060080160006101000a81548160ff02191690836002811115611323577f4e487b7100000000000000000000000000000000000000000000000000000000600052602160045260246000fd5b02179055506002600d60003373ffffffffffffffffffffffffffffffffffffffff1673ffffffffffffffffffffffffffffffffffffffff168152602001908152602001600020600085815260200190815260200160002060080160006101000a81548160ff021916908360028111156113c5577f4e487b7100000000000000000000000000000000000000000000000000000000600052602160045260246000fd5b0217905550806060015173ffffffffffffffffffffffffffffffffffffffff16600c6000836040015173ffffffffffffffffffffffffffffffffffffffff1673ffffffffffffffffffffffffffffffffffffffff168152602001908152602001600020600085815260200190815260200160002060060160009054906101000a900473ffffffffffffffffffffffffffffffffffffffff1673ffffffffffffffffffffffffffffffffffffffff16146114b3576040517f08c379a00000000000000000000000000000000000000000000000000000000081526004016114aa90613f8c565b60405180910390fd5b6002600c6000836040015173ffffffffffffffffffffffffffffffffffffffff1673ffffffffffffffffffffffffffffffffffffffff168152602001908152602001600020600085815260200190815260200160002060080160006101000a81548160ff02191690836002811115611554577f4e487b7100000000000000000000000000000000000000000000000000000000600052602160045260246000fd5b0217905550806040015173ffffffffffffffffffffffffffffffffffffffff166108fc349081150290604051600060405180830381858888f193505050501580156115a3573d6000803e3d6000fd5b506001915050919050565b6115b6613268565b600b60008381526020019081526020016000206040518060c00160405290816000820154815260200160018201604051806080016040529081600082015481526020016001820154815260200160028201805461161290614428565b80601f016020809104026020016040519081016040528092919081815260200182805461163e90614428565b801561168b5780601f106116605761010080835404028352916020019161168b565b820191906000526020600020905b81548152906001019060200180831161166e57829003601f168201915b505050505081526020016003820160009054906101000a900460ff16151515158152505081526020016005820160009054906101000a900473ffffffffffffffffffffffffffffffffffffffff1673ffffffffffffffffffffffffffffffffffffffff1673ffffffffffffffffffffffffffffffffffffffff1681526020016006820160009054906101000a900473ffffffffffffffffffffffffffffffffffffffff1673ffffffffffffffffffffffffffffffffffffffff1673ffffffffffffffffffffffffffffffffffffffff168152602001600782015481526020016008820160009054906101000a900460ff1660028111156117b4577f4e487b7100000000000000000000000000000000000000000000000000000000600052602160045260246000fd5b60028111156117ec577f4e487b7100000000000000000000000000000000000000000000000000000000600052602160045260246000fd5b815250509050919050565b60008060008373ffffffffffffffffffffffffffffffffffffffff1673ffffffffffffffffffffffffffffffffffffffff168152602001908152602001600020549050919050565b60008061184b836115ae565b905080608001513411611893576040517f08c379a000000000000000000000000000000000000000000000000000000000815260040161188a9061406c565b60405180910390fd5b600060028111156118cd577f4e487b7100000000000000000000000000000000000000000000000000000000600052602160045260246000fd5b8160a00151600281111561190a577f4e487b7100000000000000000000000000000000000000000000000000000000600052602160045260246000fd5b1461191457600080fd5b3373ffffffffffffffffffffffffffffffffffffffff16816060015173ffffffffffffffffffffffffffffffffffffffff1614611986576040517f08c379a000000000000000000000000000000000000000000000000000000000815260040161197d906140ac565b60405180910390fd5b6001600b600085815260200190815260200160002060080160006101000a81548160ff021916908360028111156119e6577f4e487b7100000000000000000000000000000000000000000000000000000000600052602160045260246000fd5b02179055506001600d60003373ffffffffffffffffffffffffffffffffffffffff1673ffffffffffffffffffffffffffffffffffffffff168152602001908152602001600020600085815260200190815260200160002060080160006101000a81548160ff02191690836002811115611a88577f4e487b7100000000000000000000000000000000000000000000000000000000600052602160045260246000fd5b0217905550806060015173ffffffffffffffffffffffffffffffffffffffff16600c6000836040015173ffffffffffffffffffffffffffffffffffffffff1673ffffffffffffffffffffffffffffffffffffffff168152602001908152602001600020600085815260200190815260200160002060060160009054906101000a900473ffffffffffffffffffffffffffffffffffffffff1673ffffffffffffffffffffffffffffffffffffffff1614611b76576040517f08c379a0000000000000000000000000000000000000000000000000000000008152600401611b6d90613f8c565b60405180910390fd5b6001600c6000836040015173ffffffffffffffffffffffffffffffffffffffff1673ffffffffffffffffffffffffffffffffffffffff168152602001908152602001600020600085815260200190815260200160002060080160006101000a81548160ff02191690836002811115611c17577f4e487b7100000000000000000000000000000000000000000000000000000000600052602160045260246000fd5b02179055506001915050919050565b606060048054611c3590614428565b80601f0160208091040260200160405190810160405280929190818152602001828054611c6190614428565b8015611cae5780601f10611c8357610100808354040283529160200191611cae565b820191906000526020600020905b815481529060010190602001808311611c9157829003601f168201915b5050505050905090565b60065481565b60008060016000611ccd612d61565b73ffffffffffffffffffffffffffffffffffffffff1673ffffffffffffffffffffffffffffffffffffffff16815260200190815260200160002060008573ffffffffffffffffffffffffffffffffffffffff1673ffffffffffffffffffffffffffffffffffffffff16815260200190815260200160002054905082811015611d8a576040517f08c379a0000000000000000000000000000000000000000000000000000000008152600401611d819061408c565b60405180910390fd5b611da7611d95612d61565b858584611da29190614338565b612d69565b600191505092915050565b6000611dc6611dbf612d61565b8484612f34565b6001905092915050565b611dd8613268565b600d60008373ffffffffffffffffffffffffffffffffffffffff1673ffffffffffffffffffffffffffffffffffffffff16815260200190815260200160002060008481526020019081526020016000206040518060c001604052908160008201548152602001600182016040518060800160405290816000820154815260200160018201548152602001600282018054611e7190614428565b80601f0160208091040260200160405190810160405280929190818152602001828054611e9d90614428565b8015611eea5780601f10611ebf57610100808354040283529160200191611eea565b820191906000526020600020905b815481529060010190602001808311611ecd57829003601f168201915b505050505081526020016003820160009054906101000a900460ff16151515158152505081526020016005820160009054906101000a900473ffffffffffffffffffffffffffffffffffffffff1673ffffffffffffffffffffffffffffffffffffffff1673ffffffffffffffffffffffffffffffffffffffff1681526020016006820160009054906101000a900473ffffffffffffffffffffffffffffffffffffffff1673ffffffffffffffffffffffffffffffffffffffff1673ffffffffffffffffffffffffffffffffffffffff168152602001600782015481526020016008820160009054906101000a900460ff166002811115612013577f4e487b7100000000000000000000000000000000000000000000000000000000600052602160045260246000fd5b600281111561204b577f4e487b7100000000000000000000000000000000000000000000000000000000600052602160045260246000fd5b81525050905092915050565b60075481565b600860205280600052604060002060009150905080600001549080600101549080600201805461208c90614428565b80601f01602080910402602001604051908101604052809291908181526020018280546120b890614428565b80156121055780601f106120da57610100808354040283529160200191612105565b820191906000526020600020905b8154815290600101906020018083116120e857829003601f168201915b5050505050908060030160009054906101000a900460ff16905084565b600d6020528160005260406000206020528060005260406000206000915091505080600001549080600101604051806080016040529081600082015481526020016001820154815260200160028201805461217c90614428565b80601f01602080910402602001604051908101604052809291908181526020018280546121a890614428565b80156121f55780601f106121ca576101008083540402835291602001916121f5565b820191906000526020600020905b8154815290600101906020018083116121d857829003601f168201915b505050505081526020016003820160009054906101000a900460ff161515151581525050908060050160009054906101000a900473ffffffffffffffffffffffffffffffffffffffff16908060060160009054906101000a900473ffffffffffffffffffffffffffffffffffffffff16908060070154908060080160009054906101000a900460ff16905086565b60096020528060005260406000206000915090505481565b6000806122a7836115ae565b9050600160028111156122e3577f4e487b7100000000000000000000000000000000000000000000000000000000600052602160045260246000fd5b8160a001516002811115612320577f4e487b7100000000000000000000000000000000000000000000000000000000600052602160045260246000fd5b14806123a0575060006002811115612361577f4e487b7100000000000000000000000000000000000000000000000000000000600052602160045260246000fd5b8160a00151600281111561239e577f4e487b7100000000000000000000000000000000000000000000000000000000600052602160045260246000fd5b145b6123a957600080fd5b6001915050919050565b6000600160008473ffffffffffffffffffffffffffffffffffffffff1673ffffffffffffffffffffffffffffffffffffffff16815260200190815260200160002060008373ffffffffffffffffffffffffffffffffffffffff1673ffffffffffffffffffffffffffffffffffffffff16815260200190815260200160002054905092915050565b600c6020528160005260406000206020528060005260406000206000915091505080600001549080600101604051806080016040529081600082015481526020016001820154815260200160028201805461249490614428565b80601f01602080910402602001604051908101604052809291908181526020018280546124c090614428565b801561250d5780601f106124e25761010080835404028352916020019161250d565b820191906000526020600020905b8154815290600101906020018083116124f057829003601f168201915b505050505081526020016003820160009054906101000a900460ff161515151581525050908060050160009054906101000a900473ffffffffffffffffffffffffffffffffffffffff16908060060160009054906101000a900473ffffffffffffffffffffffffffffffffffffffff16908060070154908060080160009054906101000a900460ff16905086565b60008173ffffffffffffffffffffffffffffffffffffffff163373ffffffffffffffffffffffffffffffffffffffff16141561260c576040517f08c379a00000000000000000000000000000000000000000000000000000000081526004016126039061402c565b60405180910390fd5b600060086000868152602001908152602001600020604051806080016040529081600082015481526020016001820154815260200160028201805461265090614428565b80601f016020809104026020016040519081016040528092919081815260200182805461267c90614428565b80156126c95780601f1061269e576101008083540402835291602001916126c9565b820191906000526020600020905b8154815290600101906020018083116126ac57829003601f168201915b505050505081526020016003820160009054906101000a900460ff16151515158152505090506000816000015111612736576040517f08c379a000000000000000000000000000000000000000000000000000000000815260040161272d90613f0c565b60405180910390fd5b600760008154809291906127499061445a565b919050555060006040518060c0016040528060075481526020018381526020013373ffffffffffffffffffffffffffffffffffffffff1681526020018573ffffffffffffffffffffffffffffffffffffffff168152602001868152602001600060028111156127e1577f4e487b7100000000000000000000000000000000000000000000000000000000600052602160045260246000fd5b815250905080600b60006007548152602001908152602001600020600082015181600001556020820151816001016000820151816000015560208201518160010155604082015181600201908051906020019061283f9291906131e2565b5060608201518160030160006101000a81548160ff021916908315150217905550505060408201518160050160006101000a81548173ffffffffffffffffffffffffffffffffffffffff021916908373ffffffffffffffffffffffffffffffffffffffff16021790555060608201518160060160006101000a81548173ffffffffffffffffffffffffffffffffffffffff021916908373ffffffffffffffffffffffffffffffffffffffff1602179055506080820151816007015560a08201518160080160006101000a81548160ff0219169083600281111561294b577f4e487b7100000000000000000000000000000000000000000000000000000000600052602160045260246000fd5b0217905550905050600960003373ffffffffffffffffffffffffffffffffffffffff1673ffffffffffffffffffffffffffffffffffffffff16815260200190815260200160002060008154809291906129a39061445a565b9190505550600a60008573ffffffffffffffffffffffffffffffffffffffff1673ffffffffffffffffffffffffffffffffffffffff16815260200190815260200160002060008154809291906129f89061445a565b919050555080600c60003373ffffffffffffffffffffffffffffffffffffffff1673ffffffffffffffffffffffffffffffffffffffff168152602001908152602001600020600060075481526020019081526020016000206000820151816000015560208201518160010160008201518160000155602082015181600101556040820151816002019080519060200190612a939291906131e2565b5060608201518160030160006101000a81548160ff021916908315150217905550505060408201518160050160006101000a81548173ffffffffffffffffffffffffffffffffffffffff021916908373ffffffffffffffffffffffffffffffffffffffff16021790555060608201518160060160006101000a81548173ffffffffffffffffffffffffffffffffffffffff021916908373ffffffffffffffffffffffffffffffffffffffff1602179055506080820151816007015560a08201518160080160006101000a81548160ff02191690836002811115612b9f577f4e487b7100000000000000000000000000000000000000000000000000000000600052602160045260246000fd5b021790555090505080600d60008673ffffffffffffffffffffffffffffffffffffffff1673ffffffffffffffffffffffffffffffffffffffff168152602001908152602001600020600060075481526020019081526020016000206000820151816000015560208201518160010160008201518160000155602082015181600101556040820151816002019080519060200190612c3d9291906131e2565b5060608201518160030160006101000a81548160ff021916908315150217905550505060408201518160050160006101000a81548173ffffffffffffffffffffffffffffffffffffffff021916908373ffffffffffffffffffffffffffffffffffffffff16021790555060608201518160060160006101000a81548173ffffffffffffffffffffffffffffffffffffffff021916908373ffffffffffffffffffffffffffffffffffffffff1602179055506080820151816007015560a08201518160080160006101000a81548160ff02191690836002811115612d49577f4e487b7100000000000000000000000000000000000000000000000000000000600052602160045260246000fd5b02179055509050508060a00151925050509392505050565b600033905090565b600073ffffffffffffffffffffffffffffffffffffffff168373ffffffffffffffffffffffffffffffffffffffff161415612dd9576040517f08c379a0000000000000000000000000000000000000000000000000000000008152600401612dd09061404c565b60405180910390fd5b600073ffffffffffffffffffffffffffffffffffffffff168273ffffffffffffffffffffffffffffffffffffffff161415612e49576040517f08c379a0000000000000000000000000000000000000000000000000000000008152600401612e4090613eec565b60405180910390fd5b80600160008573ffffffffffffffffffffffffffffffffffffffff1673ffffffffffffffffffffffffffffffffffffffff16815260200190815260200160002060008473ffffffffffffffffffffffffffffffffffffffff1673ffffffffffffffffffffffffffffffffffffffff168152602001908152602001600020819055508173ffffffffffffffffffffffffffffffffffffffff168373ffffffffffffffffffffffffffffffffffffffff167f8c5be1e5ebec7d5bd14f71427d1e84f3dd0314c0f7b2291e5b200ac8c7c3b92583604051612f279190614110565b60405180910390a3505050565b600073ffffffffffffffffffffffffffffffffffffffff168373ffffffffffffffffffffffffffffffffffffffff161415612fa4576040517f08c379a0000000000000000000000000000000000000000000000000000000008152600401612f9b9061400c565b60405180910390fd5b600073ffffffffffffffffffffffffffffffffffffffff168273ffffffffffffffffffffffffffffffffffffffff161415613014576040517f08c379a000000000000000000000000000000000000000000000000000000000815260040161300b90613ecc565b60405180910390fd5b61301f8383836131b3565b60008060008573ffffffffffffffffffffffffffffffffffffffff1673ffffffffffffffffffffffffffffffffffffffff168152602001908152602001600020549050818110156130a5576040517f08c379a000000000000000000000000000000000000000000000000000000000815260040161309c90613f2c565b60405180910390fd5b81816130b19190614338565b6000808673ffffffffffffffffffffffffffffffffffffffff1673ffffffffffffffffffffffffffffffffffffffff16815260200190815260200160002081905550816000808573ffffffffffffffffffffffffffffffffffffffff1673ffffffffffffffffffffffffffffffffffffffff168152602001908152602001600020600082825461314191906142e2565b925050819055508273ffffffffffffffffffffffffffffffffffffffff168473ffffffffffffffffffffffffffffffffffffffff167fddf252ad1be2c89b69c2b068fc378daa952ba7f163c4a11628f55a4df523b3ef846040516131a59190614110565b60405180910390a350505050565b505050565b60405180608001604052806000815260200160008152602001606081526020016000151581525090565b8280546131ee90614428565b90600052602060002090601f0160209004810192826132105760008555613257565b82601f1061322957805160ff1916838001178555613257565b82800160010185558215613257579182015b8281111561325657825182559160200191906001019061323b565b5b5090506132649190613308565b5090565b6040518060c00160405280600081526020016132826131b8565b8152602001600073ffffffffffffffffffffffffffffffffffffffff168152602001600073ffffffffffffffffffffffffffffffffffffffff1681526020016000815260200160006002811115613302577f4e487b7100000000000000000000000000000000000000000000000000000000600052602160045260246000fd5b81525090565b5b80821115613321576000816000905550600101613309565b5090565b600061333861333384614285565b614254565b90508281526020810184848401111561335057600080fd5b61335b8482856143e6565b509392505050565b60008135905061337281614584565b92915050565b6000813590506133878161459b565b92915050565b600082601f83011261339e57600080fd5b81356133ae848260208601613325565b91505092915050565b6000813590506133c6816145b2565b92915050565b6000602082840312156133de57600080fd5b60006133ec84828501613363565b91505092915050565b6000806040838503121561340857600080fd5b600061341685828601613363565b925050602061342785828601613363565b9150509250929050565b60008060006060848603121561344657600080fd5b600061345486828701613363565b935050602061346586828701613363565b9250506040613476868287016133b7565b9150509250925092565b6000806040838503121561349357600080fd5b60006134a185828601613363565b92505060206134b2858286016133b7565b9150509250929050565b6000602082840312156134ce57600080fd5b60006134dc848285016133b7565b91505092915050565b600080604083850312156134f857600080fd5b6000613506858286016133b7565b925050602061351785828601613363565b9150509250929050565b60008060006060848603121561353657600080fd5b6000613544868287016133b7565b935050602084013567ffffffffffffffff81111561356157600080fd5b61356d8682870161338d565b925050604061357e86828701613378565b9150509250925092565b60008060006060848603121561359d57600080fd5b60006135ab868287016133b7565b93505060206135bc868287016133b7565b92505060406135cd86828701613363565b9150509250925092565b6135e08161436c565b82525050565b6135ef8161436c565b82525050565b6135fe8161437e565b82525050565b61360d8161437e565b82525050565b61361c816143d4565b82525050565b61362b816143d4565b82525050565b600061363c826142b5565b61364681856142c0565b93506136568185602086016143f5565b61365f8161455f565b840191505092915050565b6000613675826142b5565b61367f81856142d1565b935061368f8185602086016143f5565b6136988161455f565b840191505092915050565b60006136b06023836142d1565b91507f45524332303a207472616e7366657220746f20746865207a65726f206164647260008301527f65737300000000000000000000000000000000000000000000000000000000006020830152604082019050919050565b60006137166022836142d1565b91507f45524332303a20617070726f766520746f20746865207a65726f20616464726560008301527f73730000000000000000000000000000000000000000000000000000000000006020830152604082019050919050565b600061377c602c836142d1565b91507f456c20646f63756d656e746f206e6f2065786973746520656e206e756573747260008301527f6f7320726567697374726f7300000000000000000000000000000000000000006020830152604082019050919050565b60006137e26026836142d1565b91507f45524332303a207472616e7366657220616d6f756e742065786365656473206260008301527f616c616e636500000000000000000000000000000000000000000000000000006020830152604082019050919050565b6000613848603c836142d1565b91507f536f6c6f20656c2064657374696e61746172696f20707565646520416363656460008301527f657220616c207061676f206465206573746520446f63756d656e746f000000006020830152604082019050919050565b60006138ae6024836142d1565b91507f456c206e6f6d62726520646562652074656e657220756e206c6172676f206d6960008301527f6e696d6f000000000000000000000000000000000000000000000000000000006020830152604082019050919050565b6000613914602c836142d1565b91507f456c2064657374696e61746172696f206e6f20636f696e6369646520636f6e2060008301527f656c206465206f726967656e00000000000000000000000000000000000000006020830152604082019050919050565b600061397a602a836142d1565b91507f46756e63696f6e616c6964616420736f6c6f207065726d69746964612070617260008301527f6120656c206f776e6572000000000000000000000000000000000000000000006020830152604082019050919050565b60006139e06031836142d1565b91507f456c206d6f6e746f20656e766961646f206465626520736572206d61796f722060008301527f6f20696775616c20616c2070726563696f0000000000000000000000000000006020830152604082019050919050565b6000613a466028836142d1565b91507f45524332303a207472616e7366657220616d6f756e742065786365656473206160008301527f6c6c6f77616e63650000000000000000000000000000000000000000000000006020830152604082019050919050565b6000613aac6025836142d1565b91507f45524332303a207472616e736665722066726f6d20746865207a65726f20616460008301527f64726573730000000000000000000000000000000000000000000000000000006020830152604082019050919050565b6000613b126039836142d1565b91507f456c20656d69736f722064656c20646f63756d656e746f20646562652073657260008301527f2064697374696e746f20616c2064657374696e61746172696f000000000000006020830152604082019050919050565b6000613b786024836142d1565b91507f45524332303a20617070726f76652066726f6d20746865207a65726f2061646460008301527f72657373000000000000000000000000000000000000000000000000000000006020830152604082019050919050565b6000613bde6012836142d1565b91507f4d6f6e746f20696e737566696369656e746500000000000000000000000000006000830152602082019050919050565b6000613c1e6025836142d1565b91507f45524332303a2064656372656173656420616c6c6f77616e63652062656c6f7760008301527f207a65726f0000000000000000000000000000000000000000000000000000006020830152604082019050919050565b6000613c84602f836142d1565b91507f536f6c6f20656c2064657374696e61746172696f20707565646520616365707460008301527f617220656c20446f63756d656e746f00000000000000000000000000000000006020830152604082019050919050565b600060c083016000830151613cf56000860182613e2c565b5060208301518482036020860152613d0d8282613d66565b9150506040830151613d2260408601826135d7565b506060830151613d3560608601826135d7565b506080830151613d486080860182613e2c565b5060a0830151613d5b60a0860182613613565b508091505092915050565b6000608083016000830151613d7e6000860182613e2c565b506020830151613d916020860182613e2c565b5060408301518482036040860152613da98282613631565b9150506060830151613dbe60608601826135f5565b508091505092915050565b6000608083016000830151613de16000860182613e2c565b506020830151613df46020860182613e2c565b5060408301518482036040860152613e0c8282613631565b9150506060830151613e2160608601826135f5565b508091505092915050565b613e35816143bd565b82525050565b613e44816143bd565b82525050565b613e53816143c7565b82525050565b6000602082019050613e6e60008301846135e6565b92915050565b6000602082019050613e896000830184613604565b92915050565b6000602082019050613ea46000830184613622565b92915050565b60006020820190508181036000830152613ec4818461366a565b905092915050565b60006020820190508181036000830152613ee5816136a3565b9050919050565b60006020820190508181036000830152613f0581613709565b9050919050565b60006020820190508181036000830152613f258161376f565b9050919050565b60006020820190508181036000830152613f45816137d5565b9050919050565b60006020820190508181036000830152613f658161383b565b9050919050565b60006020820190508181036000830152613f85816138a1565b9050919050565b60006020820190508181036000830152613fa581613907565b9050919050565b60006020820190508181036000830152613fc58161396d565b9050919050565b60006020820190508181036000830152613fe5816139d3565b9050919050565b6000602082019050818103600083015261400581613a39565b9050919050565b6000602082019050818103600083015261402581613a9f565b9050919050565b6000602082019050818103600083015261404581613b05565b9050919050565b6000602082019050818103600083015261406581613b6b565b9050919050565b6000602082019050818103600083015261408581613bd1565b9050919050565b600060208201905081810360008301526140a581613c11565b9050919050565b600060208201905081810360008301526140c581613c77565b9050919050565b600060208201905081810360008301526140e68184613cdd565b905092915050565b600060208201905081810360008301526141088184613dc9565b905092915050565b60006020820190506141256000830184613e3b565b92915050565b600060c0820190506141406000830189613e3b565b81810360208301526141528188613dc9565b905061416160408301876135e6565b61416e60608301866135e6565b61417b6080830185613e3b565b61418860a0830184613622565b979650505050505050565b60006080820190506141a86000830187613e3b565b6141b56020830186613e3b565b81810360408301526141c7818561366a565b90506141d66060830184613604565b95945050505050565b600060a0820190506141f46000830188613e3b565b6142016020830187613e3b565b8181036040830152614213818661366a565b90506142226060830185613604565b61422f60808301846135e6565b9695505050505050565b600060208201905061424e6000830184613e4a565b92915050565b6000604051905081810181811067ffffffffffffffff8211171561427b5761427a614530565b5b8060405250919050565b600067ffffffffffffffff8211156142a05761429f614530565b5b601f19601f8301169050602081019050919050565b600081519050919050565b600082825260208201905092915050565b600082825260208201905092915050565b60006142ed826143bd565b91506142f8836143bd565b9250827fffffffffffffffffffffffffffffffffffffffffffffffffffffffffffffffff0382111561432d5761432c6144a3565b5b828201905092915050565b6000614343826143bd565b915061434e836143bd565b925082821015614361576143606144a3565b5b828203905092915050565b60006143778261439d565b9050919050565b60008115159050919050565b600081905061439882614570565b919050565b600073ffffffffffffffffffffffffffffffffffffffff82169050919050565b6000819050919050565b600060ff82169050919050565b60006143df8261438a565b9050919050565b82818337600083830152505050565b60005b838110156144135780820151818401526020810190506143f8565b83811115614422576000848401525b50505050565b6000600282049050600182168061444057607f821691505b6020821081141561445457614453614501565b5b50919050565b6000614465826143bd565b91507fffffffffffffffffffffffffffffffffffffffffffffffffffffffffffffffff821415614498576144976144a3565b5b600182019050919050565b7f4e487b7100000000000000000000000000000000000000000000000000000000600052601160045260246000fd5b7f4e487b7100000000000000000000000000000000000000000000000000000000600052602160045260246000fd5b7f4e487b7100000000000000000000000000000000000000000000000000000000600052602260045260246000fd5b7f4e487b7100000000000000000000000000000000000000000000000000000000600052604160045260246000fd5b6000601f19601f8301169050919050565b60038110614581576145806144d2565b5b50565b61458d8161436c565b811461459857600080fd5b50565b6145a48161437e565b81146145af57600080fd5b50565b6145bb816143bd565b81146145c657600080fd5b5056fea2646970667358221220c0ef6d2dfb0393c1a39e540a286f34e3a215f9f0525117705d131c32ae804d8a64736f6c63430008000033",
  "immutableReferences": {},
  "source": "// SPDX-License-Identifier: MIT\r\npragma solidity ^0.8.0;\r\n\r\nimport \"./CLPToken.sol\";\r\n\r\ncontract Notaria is CLPToken() {\r\n    address private owner;\r\n    uint public documentsCount = 0;\r\n    uint public documentosNotariaCount = 0;\r\n    enum EstadoDocumentoNotaria{ ABIERTO, ACEPTADO, FINALIZADO }\r\n\r\n    struct Documento{ \r\n        uint id;\r\n        uint precio;\r\n        string nombre;\r\n        bool estado;\r\n    }\r\n\r\n    struct DocumentoNotaria{\r\n        uint id;\r\n        Documento documento;\r\n        address owner;\r\n        address destinatario;\r\n        uint precio;\r\n        EstadoDocumentoNotaria estado;\r\n    }\r\n\r\n    mapping(uint => Documento) public documentos;\r\n\r\n\r\n    mapping(address => uint) public totalDocumentosEmisor;\r\n    mapping(address => uint) public totalDocumentosDestinatario;\r\n    \r\n    mapping(uint => DocumentoNotaria) public documentosNotaria;\r\n    mapping(address => mapping(uint => DocumentoNotaria)) public documentosNotariaEmisor;\r\n    mapping(address => mapping(uint => DocumentoNotaria)) public documentosNotariaDestinatario;\r\n    \r\n    event DocumentoAdded(uint id, uint precio, string nombre, bool estado, address owner);\r\n    event DocumentoNotariaAdded(uint id, Documento documento, string nombre,  address owner, uint precio);\r\n    event DocumentoComprado(uint id, address owner);\r\n    \r\n    constructor() {\r\n        owner = msg.sender;\r\n    }\r\n\r\n    function AddDocumento(uint _precio, string memory _nombre, bool _estado) public payable{\r\n        require(msg.sender == owner, \"Funcionalidad solo permitida para el owner\");\r\n        require(bytes(_nombre).length > 0, \"El nombre debe tener un largo minimo\");\r\n        documentsCount++;\r\n        documentos[documentsCount] = Documento(documentsCount, _precio,_nombre,_estado);       \r\n        \r\n        emit DocumentoAdded(documentsCount,_precio, _nombre, _estado, msg.sender);\r\n    }\r\n    \r\n    function AddDocumentoNotaria(uint _idDocumento, uint _precio, address _destinatario) public payable returns(EstadoDocumentoNotaria){\r\n        require(msg.sender != _destinatario, \"El emisor del documento debe ser distinto al destinatario\");\r\n        Documento memory doc = documentos[_idDocumento];\r\n        require(doc.id > 0, \"El documento no existe en nuestros registros\");\r\n        documentosNotariaCount++;\r\n        DocumentoNotaria memory docNotaria = DocumentoNotaria(documentosNotariaCount, doc, msg.sender, _destinatario, _precio, EstadoDocumentoNotaria.ABIERTO);\r\n        documentosNotaria[documentosNotariaCount] = docNotaria;\r\n\r\n        totalDocumentosEmisor[msg.sender]++;\r\n        totalDocumentosDestinatario[_destinatario]++;\r\n        documentosNotariaEmisor[msg.sender][documentosNotariaCount] = docNotaria;\r\n        documentosNotariaDestinatario[_destinatario][documentosNotariaCount] = docNotaria;        \r\n        return docNotaria.estado;\r\n    }\r\n    \r\n    function AceptaDocumentoNotaria(uint _idDocumento) public payable returns (bool){\r\n        \r\n        DocumentoNotaria memory _docNotaria = GetDocumentoNotaria(_idDocumento);\r\n        require(msg.value > _docNotaria.precio , \"Monto insuficiente\");\r\n        require(_docNotaria.estado == EstadoDocumentoNotaria.ABIERTO);\r\n        require(_docNotaria.destinatario == msg.sender, \"Solo el destinatario puede aceptar el Documento\");\r\n        \r\n        documentosNotaria[_idDocumento].estado = EstadoDocumentoNotaria.ACEPTADO;\r\n        \r\n        documentosNotariaDestinatario[msg.sender][_idDocumento].estado = EstadoDocumentoNotaria.ACEPTADO;\r\n        \r\n        require(documentosNotariaEmisor[_docNotaria.owner][_idDocumento].destinatario == _docNotaria.destinatario, \"El destinatario no coincide con el de origen\");\r\n        documentosNotariaEmisor[_docNotaria.owner][_idDocumento].estado = EstadoDocumentoNotaria.ACEPTADO;\r\n        \r\n        return true;\r\n    }\r\n    \r\n    function FinalizaDocumentoNotaria(uint _idDocumento) public payable returns (bool){\r\n        \r\n        DocumentoNotaria memory _docNotaria = GetDocumentoNotaria(_idDocumento);\r\n        require(msg.value > _docNotaria.precio , \"Monto insuficiente\");\r\n        require(_docNotaria.estado == EstadoDocumentoNotaria.ACEPTADO);\r\n        require(_docNotaria.destinatario == msg.sender, \"Solo el destinatario puede Acceder al pago de este Documento\");\r\n        \r\n        require(msg.value >= _docNotaria.precio, \"El monto enviado debe ser mayor o igual al precio\");\r\n        documentosNotaria[_idDocumento].estado = EstadoDocumentoNotaria.FINALIZADO;\r\n        documentosNotariaDestinatario[msg.sender][_idDocumento].estado = EstadoDocumentoNotaria.FINALIZADO;\r\n        require(documentosNotariaEmisor[_docNotaria.owner][_idDocumento].destinatario == _docNotaria.destinatario, \"El destinatario no coincide con el de origen\");\r\n        \r\n        documentosNotariaEmisor[_docNotaria.owner][_idDocumento].estado = EstadoDocumentoNotaria.FINALIZADO;\r\n        payable(_docNotaria.owner).transfer(msg.value);\r\n        return true;\r\n    }\r\n    \r\n    function RechazaDocumentoNotaria(uint _idDocumento) public payable returns (bool){\r\n        DocumentoNotaria memory _docNotaria = GetDocumentoNotaria(_idDocumento);\r\n        require(_docNotaria.estado == EstadoDocumentoNotaria.ACEPTADO || _docNotaria.estado == EstadoDocumentoNotaria.ABIERTO);\r\n        return true;\r\n    }\r\n    \r\n    /*\r\n    function CancelaDocumentoNotaria(uint _idDocumento) public payable returns (bool){\r\n        require(msg.value > 1 ether, \"Monto insuficiente\");\r\n        Documento memory doc = GetDocumento(_idDocumento);\r\n        return true;\r\n    }\r\n    */\r\n    \r\n    function GetDocumento(uint _idDocumento) public view returns(Documento memory doc){\r\n        doc = documentos[_idDocumento];\r\n        return doc;\r\n    }\r\n    \r\n    function GetDocumentoNotaria(uint _idDocumento) public view returns(DocumentoNotaria memory doc){\r\n        doc = documentosNotaria[_idDocumento];\r\n        return doc;\r\n    }\r\n    \r\n    function GetDocumentoNotariaEmisor(uint _idDocumento, address _direccion) public view returns(DocumentoNotaria memory doc){\r\n        doc = documentosNotariaEmisor[_direccion][_idDocumento];\r\n        return doc;\r\n    }\r\n    \r\n    function GetDocumentoNotariaDestinatario(uint _idDocumento, address _direccion) public view returns(DocumentoNotaria memory doc){\r\n        doc = documentosNotariaDestinatario[_direccion][_idDocumento];\r\n        return doc;\r\n    }\r\n\r\n \r\n    \r\n    function GetOwner() public view returns (address){\r\n        return owner;\r\n    }\r\n\r\n    modifier isOwner(){\r\n        require(msg.sender == owner);\r\n        _;\r\n    } \r\n\r\n    receive() external payable {} \r\n}",
  "sourcePath": "D:/Curso Solidity Avanzado BlockChain Academy/proyecto-react/contracts/Notaria.sol",
  "compiler": {
    "name": "solc",
    "version": "0.8.0+commit.c7dfd78e.Emscripten.clang"
  },
  "schemaVersion": "3.3.4",
  "updatedAt": "2021-07-18T19:54:09.430Z",
  "networkType": "ethereum",
  "devdoc": {
    "kind": "dev",
    "methods": {
      "allowance(address,address)": {
        "details": "See {IERC20-allowance}."
      },
      "approve(address,uint256)": {
        "details": "See {IERC20-approve}. Requirements: - `spender` cannot be the zero address."
      },
      "balanceOf(address)": {
        "details": "See {IERC20-balanceOf}."
      },
      "decimals()": {
        "details": "Returns the number of decimals used to get its user representation. For example, if `decimals` equals `2`, a balance of `505` tokens should be displayed to a user as `5,05` (`505 / 10 ** 2`). Tokens usually opt for a value of 18, imitating the relationship between Ether and Wei. This is the value {ERC20} uses, unless this function is overridden; NOTE: This information is only used for _display_ purposes: it in no way affects any of the arithmetic of the contract, including {IERC20-balanceOf} and {IERC20-transfer}."
      },
      "decreaseAllowance(address,uint256)": {
        "details": "Atomically decreases the allowance granted to `spender` by the caller. This is an alternative to {approve} that can be used as a mitigation for problems described in {IERC20-approve}. Emits an {Approval} event indicating the updated allowance. Requirements: - `spender` cannot be the zero address. - `spender` must have allowance for the caller of at least `subtractedValue`."
      },
      "increaseAllowance(address,uint256)": {
        "details": "Atomically increases the allowance granted to `spender` by the caller. This is an alternative to {approve} that can be used as a mitigation for problems described in {IERC20-approve}. Emits an {Approval} event indicating the updated allowance. Requirements: - `spender` cannot be the zero address."
      },
      "name()": {
        "details": "Returns the name of the token."
      },
      "symbol()": {
        "details": "Returns the symbol of the token, usually a shorter version of the name."
      },
      "totalSupply()": {
        "details": "See {IERC20-totalSupply}."
      },
      "transfer(address,uint256)": {
        "details": "See {IERC20-transfer}. Requirements: - `recipient` cannot be the zero address. - the caller must have a balance of at least `amount`."
      },
      "transferFrom(address,address,uint256)": {
        "details": "See {IERC20-transferFrom}. Emits an {Approval} event indicating the updated allowance. This is not required by the EIP. See the note at the beginning of {ERC20}. Requirements: - `sender` and `recipient` cannot be the zero address. - `sender` must have a balance of at least `amount`. - the caller must have allowance for ``sender``'s tokens of at least `amount`."
      }
    },
    "version": 1
  },
  "userdoc": {
    "kind": "user",
    "methods": {},
    "version": 1
  }
}