{
  "contractName": "Notaria",
  "abi": [
    {
      "inputs": [],
      "stateMutability": "nonpayable",
      "type": "constructor"
    },
    {
      "anonymous": false,
      "inputs": [
        {
          "indexed": true,
          "internalType": "address",
          "name": "owner",
          "type": "address"
        },
        {
          "indexed": true,
          "internalType": "address",
          "name": "spender",
          "type": "address"
        },
        {
          "indexed": false,
          "internalType": "uint256",
          "name": "value",
          "type": "uint256"
        }
      ],
      "name": "Approval",
      "type": "event"
    },
    {
      "anonymous": false,
      "inputs": [
        {
          "indexed": false,
          "internalType": "uint256",
          "name": "id",
          "type": "uint256"
        },
        {
          "indexed": false,
          "internalType": "uint256",
          "name": "precio",
          "type": "uint256"
        },
        {
          "indexed": false,
          "internalType": "string",
          "name": "nombre",
          "type": "string"
        },
        {
          "indexed": false,
          "internalType": "bool",
          "name": "estado",
          "type": "bool"
        },
        {
          "indexed": false,
          "internalType": "address",
          "name": "owner",
          "type": "address"
        }
      ],
      "name": "DocumentoAdded",
      "type": "event"
    },
    {
      "anonymous": false,
      "inputs": [
        {
          "indexed": false,
          "internalType": "uint256",
          "name": "id",
          "type": "uint256"
        },
        {
          "indexed": false,
          "internalType": "address",
          "name": "owner",
          "type": "address"
        }
      ],
      "name": "DocumentoComprado",
      "type": "event"
    },
    {
      "anonymous": false,
      "inputs": [
        {
          "indexed": false,
          "internalType": "uint256",
          "name": "id",
          "type": "uint256"
        },
        {
          "components": [
            {
              "internalType": "uint256",
              "name": "id",
              "type": "uint256"
            },
            {
              "internalType": "uint256",
              "name": "precio",
              "type": "uint256"
            },
            {
              "internalType": "string",
              "name": "nombre",
              "type": "string"
            },
            {
              "internalType": "bool",
              "name": "estado",
              "type": "bool"
            }
          ],
          "indexed": false,
          "internalType": "struct Notaria.Documento",
          "name": "documento",
          "type": "tuple"
        },
        {
          "indexed": false,
          "internalType": "string",
          "name": "nombre",
          "type": "string"
        },
        {
          "indexed": false,
          "internalType": "address",
          "name": "owner",
          "type": "address"
        },
        {
          "indexed": false,
          "internalType": "uint256",
          "name": "precio",
          "type": "uint256"
        }
      ],
      "name": "DocumentoNotariaAdded",
      "type": "event"
    },
    {
      "anonymous": false,
      "inputs": [
        {
          "indexed": true,
          "internalType": "address",
          "name": "from",
          "type": "address"
        },
        {
          "indexed": true,
          "internalType": "address",
          "name": "to",
          "type": "address"
        },
        {
          "indexed": false,
          "internalType": "uint256",
          "name": "value",
          "type": "uint256"
        }
      ],
      "name": "Transfer",
      "type": "event"
    },
    {
      "inputs": [
        {
          "internalType": "address",
          "name": "owner",
          "type": "address"
        },
        {
          "internalType": "address",
          "name": "spender",
          "type": "address"
        }
      ],
      "name": "allowance",
      "outputs": [
        {
          "internalType": "uint256",
          "name": "",
          "type": "uint256"
        }
      ],
      "stateMutability": "view",
      "type": "function",
      "constant": true
    },
    {
      "inputs": [
        {
          "internalType": "address",
          "name": "spender",
          "type": "address"
        },
        {
          "internalType": "uint256",
          "name": "amount",
          "type": "uint256"
        }
      ],
      "name": "approve",
      "outputs": [
        {
          "internalType": "bool",
          "name": "",
          "type": "bool"
        }
      ],
      "stateMutability": "nonpayable",
      "type": "function"
    },
    {
      "inputs": [
        {
          "internalType": "address",
          "name": "account",
          "type": "address"
        }
      ],
      "name": "balanceOf",
      "outputs": [
        {
          "internalType": "uint256",
          "name": "",
          "type": "uint256"
        }
      ],
      "stateMutability": "view",
      "type": "function",
      "constant": true
    },
    {
      "inputs": [],
      "name": "decimals",
      "outputs": [
        {
          "internalType": "uint8",
          "name": "",
          "type": "uint8"
        }
      ],
      "stateMutability": "view",
      "type": "function",
      "constant": true
    },
    {
      "inputs": [
        {
          "internalType": "address",
          "name": "spender",
          "type": "address"
        },
        {
          "internalType": "uint256",
          "name": "subtractedValue",
          "type": "uint256"
        }
      ],
      "name": "decreaseAllowance",
      "outputs": [
        {
          "internalType": "bool",
          "name": "",
          "type": "bool"
        }
      ],
      "stateMutability": "nonpayable",
      "type": "function"
    },
    {
      "inputs": [
        {
          "internalType": "uint256",
          "name": "",
          "type": "uint256"
        }
      ],
      "name": "documentos",
      "outputs": [
        {
          "internalType": "uint256",
          "name": "id",
          "type": "uint256"
        },
        {
          "internalType": "uint256",
          "name": "precio",
          "type": "uint256"
        },
        {
          "internalType": "string",
          "name": "nombre",
          "type": "string"
        },
        {
          "internalType": "bool",
          "name": "estado",
          "type": "bool"
        }
      ],
      "stateMutability": "view",
      "type": "function",
      "constant": true
    },
    {
      "inputs": [
        {
          "internalType": "address",
          "name": "",
          "type": "address"
        },
        {
          "internalType": "uint256",
          "name": "",
          "type": "uint256"
        }
      ],
      "name": "documentosCliente",
      "outputs": [
        {
          "internalType": "uint256",
          "name": "id",
          "type": "uint256"
        },
        {
          "internalType": "uint256",
          "name": "precio",
          "type": "uint256"
        },
        {
          "internalType": "string",
          "name": "nombre",
          "type": "string"
        },
        {
          "internalType": "bool",
          "name": "estado",
          "type": "bool"
        }
      ],
      "stateMutability": "view",
      "type": "function",
      "constant": true
    },
    {
      "inputs": [
        {
          "internalType": "uint256",
          "name": "",
          "type": "uint256"
        }
      ],
      "name": "documentosNotaria",
      "outputs": [
        {
          "internalType": "uint256",
          "name": "id",
          "type": "uint256"
        },
        {
          "components": [
            {
              "internalType": "uint256",
              "name": "id",
              "type": "uint256"
            },
            {
              "internalType": "uint256",
              "name": "precio",
              "type": "uint256"
            },
            {
              "internalType": "string",
              "name": "nombre",
              "type": "string"
            },
            {
              "internalType": "bool",
              "name": "estado",
              "type": "bool"
            }
          ],
          "internalType": "struct Notaria.Documento",
          "name": "documento",
          "type": "tuple"
        },
        {
          "internalType": "address",
          "name": "owner",
          "type": "address"
        },
        {
          "internalType": "address",
          "name": "destinatario",
          "type": "address"
        },
        {
          "internalType": "uint256",
          "name": "precio",
          "type": "uint256"
        },
        {
          "internalType": "enum Notaria.EstadoDocumentoNotaria",
          "name": "estado",
          "type": "uint8"
        }
      ],
      "stateMutability": "view",
      "type": "function",
      "constant": true
    },
    {
      "inputs": [],
      "name": "documentosNotariaCount",
      "outputs": [
        {
          "internalType": "uint256",
          "name": "",
          "type": "uint256"
        }
      ],
      "stateMutability": "view",
      "type": "function",
      "constant": true
    },
    {
      "inputs": [
        {
          "internalType": "address",
          "name": "",
          "type": "address"
        },
        {
          "internalType": "uint256",
          "name": "",
          "type": "uint256"
        }
      ],
      "name": "documentosNotariaDestinatario",
      "outputs": [
        {
          "internalType": "uint256",
          "name": "id",
          "type": "uint256"
        },
        {
          "components": [
            {
              "internalType": "uint256",
              "name": "id",
              "type": "uint256"
            },
            {
              "internalType": "uint256",
              "name": "precio",
              "type": "uint256"
            },
            {
              "internalType": "string",
              "name": "nombre",
              "type": "string"
            },
            {
              "internalType": "bool",
              "name": "estado",
              "type": "bool"
            }
          ],
          "internalType": "struct Notaria.Documento",
          "name": "documento",
          "type": "tuple"
        },
        {
          "internalType": "address",
          "name": "owner",
          "type": "address"
        },
        {
          "internalType": "address",
          "name": "destinatario",
          "type": "address"
        },
        {
          "internalType": "uint256",
          "name": "precio",
          "type": "uint256"
        },
        {
          "internalType": "enum Notaria.EstadoDocumentoNotaria",
          "name": "estado",
          "type": "uint8"
        }
      ],
      "stateMutability": "view",
      "type": "function",
      "constant": true
    },
    {
      "inputs": [
        {
          "internalType": "address",
          "name": "",
          "type": "address"
        },
        {
          "internalType": "uint256",
          "name": "",
          "type": "uint256"
        }
      ],
      "name": "documentosNotariaEmisor",
      "outputs": [
        {
          "internalType": "uint256",
          "name": "id",
          "type": "uint256"
        },
        {
          "components": [
            {
              "internalType": "uint256",
              "name": "id",
              "type": "uint256"
            },
            {
              "internalType": "uint256",
              "name": "precio",
              "type": "uint256"
            },
            {
              "internalType": "string",
              "name": "nombre",
              "type": "string"
            },
            {
              "internalType": "bool",
              "name": "estado",
              "type": "bool"
            }
          ],
          "internalType": "struct Notaria.Documento",
          "name": "documento",
          "type": "tuple"
        },
        {
          "internalType": "address",
          "name": "owner",
          "type": "address"
        },
        {
          "internalType": "address",
          "name": "destinatario",
          "type": "address"
        },
        {
          "internalType": "uint256",
          "name": "precio",
          "type": "uint256"
        },
        {
          "internalType": "enum Notaria.EstadoDocumentoNotaria",
          "name": "estado",
          "type": "uint8"
        }
      ],
      "stateMutability": "view",
      "type": "function",
      "constant": true
    },
    {
      "inputs": [],
      "name": "documentsCount",
      "outputs": [
        {
          "internalType": "uint256",
          "name": "",
          "type": "uint256"
        }
      ],
      "stateMutability": "view",
      "type": "function",
      "constant": true
    },
    {
      "inputs": [
        {
          "internalType": "address",
          "name": "spender",
          "type": "address"
        },
        {
          "internalType": "uint256",
          "name": "addedValue",
          "type": "uint256"
        }
      ],
      "name": "increaseAllowance",
      "outputs": [
        {
          "internalType": "bool",
          "name": "",
          "type": "bool"
        }
      ],
      "stateMutability": "nonpayable",
      "type": "function"
    },
    {
      "inputs": [],
      "name": "name",
      "outputs": [
        {
          "internalType": "string",
          "name": "",
          "type": "string"
        }
      ],
      "stateMutability": "view",
      "type": "function",
      "constant": true
    },
    {
      "inputs": [],
      "name": "symbol",
      "outputs": [
        {
          "internalType": "string",
          "name": "",
          "type": "string"
        }
      ],
      "stateMutability": "view",
      "type": "function",
      "constant": true
    },
    {
      "inputs": [
        {
          "internalType": "address",
          "name": "",
          "type": "address"
        }
      ],
      "name": "totalDocumentosCliente",
      "outputs": [
        {
          "internalType": "uint256",
          "name": "",
          "type": "uint256"
        }
      ],
      "stateMutability": "view",
      "type": "function",
      "constant": true
    },
    {
      "inputs": [],
      "name": "totalSupply",
      "outputs": [
        {
          "internalType": "uint256",
          "name": "",
          "type": "uint256"
        }
      ],
      "stateMutability": "view",
      "type": "function",
      "constant": true
    },
    {
      "inputs": [
        {
          "internalType": "address",
          "name": "recipient",
          "type": "address"
        },
        {
          "internalType": "uint256",
          "name": "amount",
          "type": "uint256"
        }
      ],
      "name": "transfer",
      "outputs": [
        {
          "internalType": "bool",
          "name": "",
          "type": "bool"
        }
      ],
      "stateMutability": "nonpayable",
      "type": "function"
    },
    {
      "inputs": [
        {
          "internalType": "address",
          "name": "sender",
          "type": "address"
        },
        {
          "internalType": "address",
          "name": "recipient",
          "type": "address"
        },
        {
          "internalType": "uint256",
          "name": "amount",
          "type": "uint256"
        }
      ],
      "name": "transferFrom",
      "outputs": [
        {
          "internalType": "bool",
          "name": "",
          "type": "bool"
        }
      ],
      "stateMutability": "nonpayable",
      "type": "function"
    },
    {
      "stateMutability": "payable",
      "type": "receive",
      "payable": true
    },
    {
      "inputs": [
        {
          "internalType": "uint256",
          "name": "_precio",
          "type": "uint256"
        },
        {
          "internalType": "string",
          "name": "_nombre",
          "type": "string"
        },
        {
          "internalType": "bool",
          "name": "_estado",
          "type": "bool"
        }
      ],
      "name": "AddDocumento",
      "outputs": [],
      "stateMutability": "payable",
      "type": "function",
      "payable": true
    },
    {
      "inputs": [
        {
          "internalType": "uint256",
          "name": "_idDocumento",
          "type": "uint256"
        },
        {
          "internalType": "uint256",
          "name": "_precio",
          "type": "uint256"
        },
        {
          "internalType": "address",
          "name": "_destinatario",
          "type": "address"
        }
      ],
      "name": "AddDocumentoNotaria",
      "outputs": [
        {
          "internalType": "enum Notaria.EstadoDocumentoNotaria",
          "name": "",
          "type": "uint8"
        }
      ],
      "stateMutability": "payable",
      "type": "function",
      "payable": true
    },
    {
      "inputs": [
        {
          "internalType": "uint256",
          "name": "_idDocumento",
          "type": "uint256"
        }
      ],
      "name": "AceptaDocumentoNotaria",
      "outputs": [
        {
          "internalType": "bool",
          "name": "",
          "type": "bool"
        }
      ],
      "stateMutability": "payable",
      "type": "function",
      "payable": true
    },
    {
      "inputs": [
        {
          "internalType": "uint256",
          "name": "_idDocumento",
          "type": "uint256"
        }
      ],
      "name": "FinalizaDocumentoNotaria",
      "outputs": [
        {
          "internalType": "bool",
          "name": "",
          "type": "bool"
        }
      ],
      "stateMutability": "payable",
      "type": "function",
      "payable": true
    },
    {
      "inputs": [
        {
          "internalType": "uint256",
          "name": "_idDocumento",
          "type": "uint256"
        }
      ],
      "name": "RechazaDocumentoNotaria",
      "outputs": [
        {
          "internalType": "bool",
          "name": "",
          "type": "bool"
        }
      ],
      "stateMutability": "payable",
      "type": "function",
      "payable": true
    },
    {
      "inputs": [
        {
          "internalType": "uint256",
          "name": "_idDocumento",
          "type": "uint256"
        }
      ],
      "name": "GetDocumento",
      "outputs": [
        {
          "components": [
            {
              "internalType": "uint256",
              "name": "id",
              "type": "uint256"
            },
            {
              "internalType": "uint256",
              "name": "precio",
              "type": "uint256"
            },
            {
              "internalType": "string",
              "name": "nombre",
              "type": "string"
            },
            {
              "internalType": "bool",
              "name": "estado",
              "type": "bool"
            }
          ],
          "internalType": "struct Notaria.Documento",
          "name": "doc",
          "type": "tuple"
        }
      ],
      "stateMutability": "view",
      "type": "function",
      "constant": true
    },
    {
      "inputs": [
        {
          "internalType": "uint256",
          "name": "_idDocumento",
          "type": "uint256"
        }
      ],
      "name": "GetDocumentoNotaria",
      "outputs": [
        {
          "components": [
            {
              "internalType": "uint256",
              "name": "id",
              "type": "uint256"
            },
            {
              "components": [
                {
                  "internalType": "uint256",
                  "name": "id",
                  "type": "uint256"
                },
                {
                  "internalType": "uint256",
                  "name": "precio",
                  "type": "uint256"
                },
                {
                  "internalType": "string",
                  "name": "nombre",
                  "type": "string"
                },
                {
                  "internalType": "bool",
                  "name": "estado",
                  "type": "bool"
                }
              ],
              "internalType": "struct Notaria.Documento",
              "name": "documento",
              "type": "tuple"
            },
            {
              "internalType": "address",
              "name": "owner",
              "type": "address"
            },
            {
              "internalType": "address",
              "name": "destinatario",
              "type": "address"
            },
            {
              "internalType": "uint256",
              "name": "precio",
              "type": "uint256"
            },
            {
              "internalType": "enum Notaria.EstadoDocumentoNotaria",
              "name": "estado",
              "type": "uint8"
            }
          ],
          "internalType": "struct Notaria.DocumentoNotaria",
          "name": "doc",
          "type": "tuple"
        }
      ],
      "stateMutability": "view",
      "type": "function",
      "constant": true
    },
    {
      "inputs": [
        {
          "internalType": "uint256",
          "name": "_idDocumento",
          "type": "uint256"
        },
        {
          "internalType": "address",
          "name": "_direccion",
          "type": "address"
        }
      ],
      "name": "GetDocumentoNotariaEmisor",
      "outputs": [
        {
          "components": [
            {
              "internalType": "uint256",
              "name": "id",
              "type": "uint256"
            },
            {
              "components": [
                {
                  "internalType": "uint256",
                  "name": "id",
                  "type": "uint256"
                },
                {
                  "internalType": "uint256",
                  "name": "precio",
                  "type": "uint256"
                },
                {
                  "internalType": "string",
                  "name": "nombre",
                  "type": "string"
                },
                {
                  "internalType": "bool",
                  "name": "estado",
                  "type": "bool"
                }
              ],
              "internalType": "struct Notaria.Documento",
              "name": "documento",
              "type": "tuple"
            },
            {
              "internalType": "address",
              "name": "owner",
              "type": "address"
            },
            {
              "internalType": "address",
              "name": "destinatario",
              "type": "address"
            },
            {
              "internalType": "uint256",
              "name": "precio",
              "type": "uint256"
            },
            {
              "internalType": "enum Notaria.EstadoDocumentoNotaria",
              "name": "estado",
              "type": "uint8"
            }
          ],
          "internalType": "struct Notaria.DocumentoNotaria",
          "name": "doc",
          "type": "tuple"
        }
      ],
      "stateMutability": "view",
      "type": "function",
      "constant": true
    },
    {
      "inputs": [
        {
          "internalType": "uint256",
          "name": "_idDocumento",
          "type": "uint256"
        },
        {
          "internalType": "address",
          "name": "_direccion",
          "type": "address"
        }
      ],
      "name": "GetDocumentoNotariaReceptor",
      "outputs": [
        {
          "components": [
            {
              "internalType": "uint256",
              "name": "id",
              "type": "uint256"
            },
            {
              "components": [
                {
                  "internalType": "uint256",
                  "name": "id",
                  "type": "uint256"
                },
                {
                  "internalType": "uint256",
                  "name": "precio",
                  "type": "uint256"
                },
                {
                  "internalType": "string",
                  "name": "nombre",
                  "type": "string"
                },
                {
                  "internalType": "bool",
                  "name": "estado",
                  "type": "bool"
                }
              ],
              "internalType": "struct Notaria.Documento",
              "name": "documento",
              "type": "tuple"
            },
            {
              "internalType": "address",
              "name": "owner",
              "type": "address"
            },
            {
              "internalType": "address",
              "name": "destinatario",
              "type": "address"
            },
            {
              "internalType": "uint256",
              "name": "precio",
              "type": "uint256"
            },
            {
              "internalType": "enum Notaria.EstadoDocumentoNotaria",
              "name": "estado",
              "type": "uint8"
            }
          ],
          "internalType": "struct Notaria.DocumentoNotaria",
          "name": "doc",
          "type": "tuple"
        }
      ],
      "stateMutability": "view",
      "type": "function",
      "constant": true
    },
    {
      "inputs": [
        {
          "internalType": "uint256",
          "name": "_id",
          "type": "uint256"
        },
        {
          "internalType": "uint256",
          "name": "_precio",
          "type": "uint256"
        },
        {
          "internalType": "string",
          "name": "_nombre",
          "type": "string"
        },
        {
          "internalType": "bool",
          "name": "_estado",
          "type": "bool"
        }
      ],
      "name": "AddDocumentoCliente",
      "outputs": [],
      "stateMutability": "nonpayable",
      "type": "function"
    },
    {
      "inputs": [
        {
          "internalType": "uint256",
          "name": "_id",
          "type": "uint256"
        }
      ],
      "name": "compraDocumento",
      "outputs": [],
      "stateMutability": "payable",
      "type": "function",
      "payable": true
    },
    {
      "inputs": [],
      "name": "GetOwner",
      "outputs": [
        {
          "internalType": "address",
          "name": "",
          "type": "address"
        }
      ],
      "stateMutability": "view",
      "type": "function",
      "constant": true
    }
  ],
  "bytecode": "0x6080604052600060065560006007553480156200001b57600080fd5b506040518060400160405280600d81526020017f4368696c65616e20546f6b656e000000000000000000000000000000000000008152506040518060400160405280600481526020017f434c5054000000000000000000000000000000000000000000000000000000008152508160039080519060200190620000a092919062000281565b508060049080519060200190620000b992919062000281565b505050620000d0336127106200011760201b60201c565b33600560006101000a81548173ffffffffffffffffffffffffffffffffffffffff021916908373ffffffffffffffffffffffffffffffffffffffff160217905550620004cf565b600073ffffffffffffffffffffffffffffffffffffffff168273ffffffffffffffffffffffffffffffffffffffff1614156200018a576040517f08c379a0000000000000000000000000000000000000000000000000000000008152600401620001819062000384565b60405180910390fd5b6200019e600083836200027c60201b60201c565b8060026000828254620001b29190620003d4565b92505081905550806000808473ffffffffffffffffffffffffffffffffffffffff1673ffffffffffffffffffffffffffffffffffffffff1681526020019081526020016000206000828254620002099190620003d4565b925050819055508173ffffffffffffffffffffffffffffffffffffffff16600073ffffffffffffffffffffffffffffffffffffffff167fddf252ad1be2c89b69c2b068fc378daa952ba7f163c4a11628f55a4df523b3ef83604051620002709190620003a6565b60405180910390a35050565b505050565b8280546200028f906200043b565b90600052602060002090601f016020900481019282620002b35760008555620002ff565b82601f10620002ce57805160ff1916838001178555620002ff565b82800160010185558215620002ff579182015b82811115620002fe578251825591602001919060010190620002e1565b5b5090506200030e919062000312565b5090565b5b808211156200032d57600081600090555060010162000313565b5090565b600062000340601f83620003c3565b91507f45524332303a206d696e7420746f20746865207a65726f2061646472657373006000830152602082019050919050565b6200037e8162000431565b82525050565b600060208201905081810360008301526200039f8162000331565b9050919050565b6000602082019050620003bd600083018462000373565b92915050565b600082825260208201905092915050565b6000620003e18262000431565b9150620003ee8362000431565b9250827fffffffffffffffffffffffffffffffffffffffffffffffffffffffffffffffff0382111562000426576200042562000471565b5b828201905092915050565b6000819050919050565b600060028204905060018216806200045457607f821691505b602082108114156200046b576200046a620004a0565b5b50919050565b7f4e487b7100000000000000000000000000000000000000000000000000000000600052601160045260246000fd5b7f4e487b7100000000000000000000000000000000000000000000000000000000600052602260045260246000fd5b6149e280620004df6000396000f3fe6080604052600436106101dc5760003560e01c80635dc74f7811610102578063bb674f2011610095578063dd62ed3e11610064578063dd62ed3e1461076c578063f3aa0bb2146107a9578063f6556d3b146107e6578063fb699fa314610828576101e3565b8063bb674f201461067a578063c260dcb1146106ba578063c67dbe8c146106fa578063d99b73d81461073c576101e3565b806395e52d98116100d157806395e52d98146105aa578063a457c2d7146105d5578063a9059cbb14610612578063b908db701461064f576101e3565b80635dc74f78146104d557806370a08231146105125780638d9520e61461054f57806395d89b411461057f576101e3565b80632c62c7be1161017a578063395093511161014957806339509351146104235780633bfa2e24146104605780634300b318146104905780635b24f8f7146104ac576101e3565b80632c62c7be14610362578063313ce5671461037e5780633166aa9b146103a9578063317eaf07146103e6576101e3565b806318160ddd116101b657806318160ddd1461027b578063194e19b0146102a65780631beeba56146102e857806323b872dd14610325576101e3565b806306fdde03146101e8578063095ea7b3146102135780630ae50a3914610250576101e3565b366101e357005b600080fd5b3480156101f457600080fd5b506101fd610858565b60405161020a9190614264565b60405180910390f35b34801561021f57600080fd5b5061023a600480360381019061023591906137bf565b6108ea565b604051610247919061422e565b60405180910390f35b34801561025c57600080fd5b50610265610908565b6040516102729190614213565b60405180910390f35b34801561028757600080fd5b50610290610932565b60405161029d91906144ca565b60405180910390f35b3480156102b257600080fd5b506102cd60048036038101906102c891906137fb565b61093c565b6040516102df9695949392919061450e565b60405180910390f35b3480156102f457600080fd5b5061030f600480360381019061030a91906137fb565b610a90565b60405161031c91906144a8565b60405180910390f35b34801561033157600080fd5b5061034c60048036038101906103479190613770565b610b7e565b604051610359919061422e565b60405180910390f35b61037c60048036038101906103779190613860565b610c7f565b005b34801561038a57600080fd5b50610393610e3f565b6040516103a0919061461c565b60405180910390f35b3480156103b557600080fd5b506103d060048036038101906103cb9190613824565b610e48565b6040516103dd9190614486565b60405180910390f35b3480156103f257600080fd5b5061040d6004803603810190610408919061370b565b6110cf565b60405161041a91906144ca565b60405180910390f35b34801561042f57600080fd5b5061044a600480360381019061044591906137bf565b6110e7565b604051610457919061422e565b60405180910390f35b61047a600480360381019061047591906137fb565b611193565b604051610487919061422e565b60405180910390f35b6104aa60048036038101906104a591906137fb565b611611565b005b3480156104b857600080fd5b506104d360048036038101906104ce9190613916565b61180b565b005b3480156104e157600080fd5b506104fc60048036038101906104f791906137fb565b6118d8565b6040516105099190614486565b60405180910390f35b34801561051e57600080fd5b506105396004803603810190610534919061370b565b611b21565b60405161054691906144ca565b60405180910390f35b610569600480360381019061056491906137fb565b611b69565b604051610576919061422e565b60405180910390f35b34801561058b57600080fd5b50610594611f55565b6040516105a19190614264565b60405180910390f35b3480156105b657600080fd5b506105bf611fe7565b6040516105cc91906144ca565b60405180910390f35b3480156105e157600080fd5b506105fc60048036038101906105f791906137bf565b611fed565b604051610609919061422e565b60405180910390f35b34801561061e57600080fd5b50610639600480360381019061063491906137bf565b6120e1565b604051610646919061422e565b60405180910390f35b34801561065b57600080fd5b506106646120ff565b60405161067191906144ca565b60405180910390f35b34801561068657600080fd5b506106a1600480360381019061069c91906137fb565b612105565b6040516106b19493929190614576565b60405180910390f35b3480156106c657600080fd5b506106e160048036038101906106dc91906137bf565b6121ca565b6040516106f19493929190614576565b60405180910390f35b34801561070657600080fd5b50610721600480360381019061071c91906137bf565b61229c565b6040516107339695949392919061450e565b60405180910390f35b610756600480360381019061075191906137fb565b6123fd565b604051610763919061422e565b60405180910390f35b34801561077857600080fd5b50610793600480360381019061078e9190613734565b612515565b6040516107a091906144ca565b60405180910390f35b3480156107b557600080fd5b506107d060048036038101906107cb9190613824565b61259c565b6040516107dd9190614486565b60405180910390f35b3480156107f257600080fd5b5061080d600480360381019061080891906137bf565b612823565b60405161081f9695949392919061450e565b60405180910390f35b610842600480360381019061083d91906138c7565b612984565b60405161084f9190614249565b60405180910390f35b6060600380546108679061480b565b80601f01602080910402602001604051908101604052809291908181526020018280546108939061480b565b80156108e05780601f106108b5576101008083540402835291602001916108e0565b820191906000526020600020905b8154815290600101906020018083116108c357829003601f168201915b5050505050905090565b60006108fe6108f76130a0565b84846130a8565b6001905092915050565b6000600560009054906101000a900473ffffffffffffffffffffffffffffffffffffffff16905090565b6000600254905090565b600b6020528060005260406000206000915090508060000154908060010160405180608001604052908160008201548152602001600182015481526020016002820180546109899061480b565b80601f01602080910402602001604051908101604052809291908181526020018280546109b59061480b565b8015610a025780601f106109d757610100808354040283529160200191610a02565b820191906000526020600020905b8154815290600101906020018083116109e557829003601f168201915b505050505081526020016003820160009054906101000a900460ff161515151581525050908060050160009054906101000a900473ffffffffffffffffffffffffffffffffffffffff16908060060160009054906101000a900473ffffffffffffffffffffffffffffffffffffffff16908060070154908060080160009054906101000a900460ff16905086565b610a986134f7565b600860008381526020019081526020016000206040518060800160405290816000820154815260200160018201548152602001600282018054610ada9061480b565b80601f0160208091040260200160405190810160405280929190818152602001828054610b069061480b565b8015610b535780601f10610b2857610100808354040283529160200191610b53565b820191906000526020600020905b815481529060010190602001808311610b3657829003601f168201915b505050505081526020016003820160009054906101000a900460ff1615151515815250509050919050565b6000610b8b848484613273565b6000600160008673ffffffffffffffffffffffffffffffffffffffff1673ffffffffffffffffffffffffffffffffffffffff1681526020019081526020016000206000610bd66130a0565b73ffffffffffffffffffffffffffffffffffffffff1673ffffffffffffffffffffffffffffffffffffffff16815260200190815260200160002054905082811015610c56576040517f08c379a0000000000000000000000000000000000000000000000000000000008152600401610c4d906143a6565b60405180910390fd5b610c7385610c626130a0565b8584610c6e919061471b565b6130a8565b60019150509392505050565b600560009054906101000a900473ffffffffffffffffffffffffffffffffffffffff1673ffffffffffffffffffffffffffffffffffffffff163373ffffffffffffffffffffffffffffffffffffffff1614610d0f576040517f08c379a0000000000000000000000000000000000000000000000000000000008152600401610d0690614366565b60405180910390fd5b6000825111610d53576040517f08c379a0000000000000000000000000000000000000000000000000000000008152600401610d4a90614326565b60405180910390fd5b60066000815480929190610d669061483d565b91905055506040518060800160405280600654815260200184815260200183815260200182151581525060086000600654815260200190815260200160002060008201518160000155602082015181600101556040820151816002019080519060200190610dd5929190613521565b5060608201518160030160006101000a81548160ff0219169083151502179055509050507f5d11aed1842005d2aad4bd5cd443eb580b0abd53c28f7b77bfeef1b321ee594e60065484848433604051610e329594939291906145c2565b60405180910390a1505050565b60006012905090565b610e506135a7565b600c60008373ffffffffffffffffffffffffffffffffffffffff1673ffffffffffffffffffffffffffffffffffffffff16815260200190815260200160002060008481526020019081526020016000206040518060c001604052908160008201548152602001600182016040518060800160405290816000820154815260200160018201548152602001600282018054610ee99061480b565b80601f0160208091040260200160405190810160405280929190818152602001828054610f159061480b565b8015610f625780601f10610f3757610100808354040283529160200191610f62565b820191906000526020600020905b815481529060010190602001808311610f4557829003601f168201915b505050505081526020016003820160009054906101000a900460ff16151515158152505081526020016005820160009054906101000a900473ffffffffffffffffffffffffffffffffffffffff1673ffffffffffffffffffffffffffffffffffffffff1673ffffffffffffffffffffffffffffffffffffffff1681526020016006820160009054906101000a900473ffffffffffffffffffffffffffffffffffffffff1673ffffffffffffffffffffffffffffffffffffffff1673ffffffffffffffffffffffffffffffffffffffff168152602001600782015481526020016008820160009054906101000a900460ff16600281111561108b577f4e487b7100000000000000000000000000000000000000000000000000000000600052602160045260246000fd5b60028111156110c3577f4e487b7100000000000000000000000000000000000000000000000000000000600052602160045260246000fd5b81525050905092915050565b600a6020528060005260406000206000915090505481565b60006111896110f46130a0565b8484600160006111026130a0565b73ffffffffffffffffffffffffffffffffffffffff1673ffffffffffffffffffffffffffffffffffffffff16815260200190815260200160002060008873ffffffffffffffffffffffffffffffffffffffff1673ffffffffffffffffffffffffffffffffffffffff1681526020019081526020016000205461118491906146c5565b6130a8565b6001905092915050565b6000670de0b6b3a764000034116111df576040517f08c379a00000000000000000000000000000000000000000000000000000000081526004016111d690614426565b60405180910390fd5b60006111ea836118d8565b905060016002811115611226577f4e487b7100000000000000000000000000000000000000000000000000000000600052602160045260246000fd5b8160a001516002811115611263577f4e487b7100000000000000000000000000000000000000000000000000000000600052602160045260246000fd5b1461126d57600080fd5b3373ffffffffffffffffffffffffffffffffffffffff16816060015173ffffffffffffffffffffffffffffffffffffffff16146112df576040517f08c379a00000000000000000000000000000000000000000000000000000000081526004016112d690614306565b60405180910390fd5b8060800151341015611326576040517f08c379a000000000000000000000000000000000000000000000000000000000815260040161131d90614386565b60405180910390fd5b6002600b600085815260200190815260200160002060080160006101000a81548160ff02191690836002811115611386577f4e487b7100000000000000000000000000000000000000000000000000000000600052602160045260246000fd5b02179055506002600d60003373ffffffffffffffffffffffffffffffffffffffff1673ffffffffffffffffffffffffffffffffffffffff168152602001908152602001600020600085815260200190815260200160002060080160006101000a81548160ff02191690836002811115611428577f4e487b7100000000000000000000000000000000000000000000000000000000600052602160045260246000fd5b0217905550806060015173ffffffffffffffffffffffffffffffffffffffff16600c6000836040015173ffffffffffffffffffffffffffffffffffffffff1673ffffffffffffffffffffffffffffffffffffffff168152602001908152602001600020600085815260200190815260200160002060060160009054906101000a900473ffffffffffffffffffffffffffffffffffffffff1673ffffffffffffffffffffffffffffffffffffffff1614611516576040517f08c379a000000000000000000000000000000000000000000000000000000000815260040161150d90614346565b60405180910390fd5b6002600c6000836040015173ffffffffffffffffffffffffffffffffffffffff1673ffffffffffffffffffffffffffffffffffffffff168152602001908152602001600020600085815260200190815260200160002060080160006101000a81548160ff021916908360028111156115b7577f4e487b7100000000000000000000000000000000000000000000000000000000600052602160045260246000fd5b0217905550806040015173ffffffffffffffffffffffffffffffffffffffff166108fc349081150290604051600060405180830381858888f19350505050158015611606573d6000803e3d6000fd5b506001915050919050565b60006008600083815260200190815260200160002060405180608001604052908160008201548152602001600182015481526020016002820180546116559061480b565b80601f01602080910402602001604051908101604052809291908181526020018280546116819061480b565b80156116ce5780601f106116a3576101008083540402835291602001916116ce565b820191906000526020600020905b8154815290600101906020018083116116b157829003601f168201915b505050505081526020016003820160009054906101000a900460ff1615151515815250509050600081600001511161170557600080fd5b806020015134101561171657600080fd5b3373ffffffffffffffffffffffffffffffffffffffff166108fc349081150290604051600060405180830381858888f1935050505015801561175c573d6000803e3d6000fd5b50600a60003373ffffffffffffffffffffffffffffffffffffffff1673ffffffffffffffffffffffffffffffffffffffff16815260200190815260200160002060008154809291906117ad9061483d565b91905055506117ce816000015182602001518360400151846060015161180b565b7ffd0d7173d6997326474ab81608a90978f07bc4a25fe07069ea6934b7782b763682336040516117ff9291906144e5565b60405180910390a15050565b6040518060800160405280858152602001848152602001838152602001821515815250600960003373ffffffffffffffffffffffffffffffffffffffff1673ffffffffffffffffffffffffffffffffffffffff1681526020019081526020016000206000868152602001908152602001600020600082015181600001556020820151816001015560408201518160020190805190602001906118ae929190613521565b5060608201518160030160006101000a81548160ff02191690831515021790555090505050505050565b6118e06135a7565b600b60008381526020019081526020016000206040518060c00160405290816000820154815260200160018201604051806080016040529081600082015481526020016001820154815260200160028201805461193c9061480b565b80601f01602080910402602001604051908101604052809291908181526020018280546119689061480b565b80156119b55780601f1061198a576101008083540402835291602001916119b5565b820191906000526020600020905b81548152906001019060200180831161199857829003601f168201915b505050505081526020016003820160009054906101000a900460ff16151515158152505081526020016005820160009054906101000a900473ffffffffffffffffffffffffffffffffffffffff1673ffffffffffffffffffffffffffffffffffffffff1673ffffffffffffffffffffffffffffffffffffffff1681526020016006820160009054906101000a900473ffffffffffffffffffffffffffffffffffffffff1673ffffffffffffffffffffffffffffffffffffffff1673ffffffffffffffffffffffffffffffffffffffff168152602001600782015481526020016008820160009054906101000a900460ff166002811115611ade577f4e487b7100000000000000000000000000000000000000000000000000000000600052602160045260246000fd5b6002811115611b16577f4e487b7100000000000000000000000000000000000000000000000000000000600052602160045260246000fd5b815250509050919050565b60008060008373ffffffffffffffffffffffffffffffffffffffff1673ffffffffffffffffffffffffffffffffffffffff168152602001908152602001600020549050919050565b6000670de0b6b3a76400003411611bb5576040517f08c379a0000000000000000000000000000000000000000000000000000000008152600401611bac90614426565b60405180910390fd5b6000611bc0836118d8565b905060006002811115611bfc577f4e487b7100000000000000000000000000000000000000000000000000000000600052602160045260246000fd5b8160a001516002811115611c39577f4e487b7100000000000000000000000000000000000000000000000000000000600052602160045260246000fd5b14611c4357600080fd5b3373ffffffffffffffffffffffffffffffffffffffff16816060015173ffffffffffffffffffffffffffffffffffffffff1614611cb5576040517f08c379a0000000000000000000000000000000000000000000000000000000008152600401611cac90614466565b60405180910390fd5b6001600b600085815260200190815260200160002060080160006101000a81548160ff02191690836002811115611d15577f4e487b7100000000000000000000000000000000000000000000000000000000600052602160045260246000fd5b02179055506001600d60003373ffffffffffffffffffffffffffffffffffffffff1673ffffffffffffffffffffffffffffffffffffffff168152602001908152602001600020600085815260200190815260200160002060080160006101000a81548160ff02191690836002811115611db7577f4e487b7100000000000000000000000000000000000000000000000000000000600052602160045260246000fd5b0217905550806060015173ffffffffffffffffffffffffffffffffffffffff16600c6000836040015173ffffffffffffffffffffffffffffffffffffffff1673ffffffffffffffffffffffffffffffffffffffff168152602001908152602001600020600085815260200190815260200160002060060160009054906101000a900473ffffffffffffffffffffffffffffffffffffffff1673ffffffffffffffffffffffffffffffffffffffff1614611ea5576040517f08c379a0000000000000000000000000000000000000000000000000000000008152600401611e9c90614346565b60405180910390fd5b6001600c6000836040015173ffffffffffffffffffffffffffffffffffffffff1673ffffffffffffffffffffffffffffffffffffffff168152602001908152602001600020600085815260200190815260200160002060080160006101000a81548160ff02191690836002811115611f46577f4e487b7100000000000000000000000000000000000000000000000000000000600052602160045260246000fd5b02179055506001915050919050565b606060048054611f649061480b565b80601f0160208091040260200160405190810160405280929190818152602001828054611f909061480b565b8015611fdd5780601f10611fb257610100808354040283529160200191611fdd565b820191906000526020600020905b815481529060010190602001808311611fc057829003601f168201915b5050505050905090565b60065481565b60008060016000611ffc6130a0565b73ffffffffffffffffffffffffffffffffffffffff1673ffffffffffffffffffffffffffffffffffffffff16815260200190815260200160002060008573ffffffffffffffffffffffffffffffffffffffff1673ffffffffffffffffffffffffffffffffffffffff168152602001908152602001600020549050828110156120b9576040517f08c379a00000000000000000000000000000000000000000000000000000000081526004016120b090614446565b60405180910390fd5b6120d66120c46130a0565b8585846120d1919061471b565b6130a8565b600191505092915050565b60006120f56120ee6130a0565b8484613273565b6001905092915050565b60075481565b60086020528060005260406000206000915090508060000154908060010154908060020180546121349061480b565b80601f01602080910402602001604051908101604052809291908181526020018280546121609061480b565b80156121ad5780601f10612182576101008083540402835291602001916121ad565b820191906000526020600020905b81548152906001019060200180831161219057829003601f168201915b5050505050908060030160009054906101000a900460ff16905084565b6009602052816000526040600020602052806000526040600020600091509150508060000154908060010154908060020180546122069061480b565b80601f01602080910402602001604051908101604052809291908181526020018280546122329061480b565b801561227f5780601f106122545761010080835404028352916020019161227f565b820191906000526020600020905b81548152906001019060200180831161226257829003601f168201915b5050505050908060030160009054906101000a900460ff16905084565b600d602052816000526040600020602052806000526040600020600091509150508060000154908060010160405180608001604052908160008201548152602001600182015481526020016002820180546122f69061480b565b80601f01602080910402602001604051908101604052809291908181526020018280546123229061480b565b801561236f5780601f106123445761010080835404028352916020019161236f565b820191906000526020600020905b81548152906001019060200180831161235257829003601f168201915b505050505081526020016003820160009054906101000a900460ff161515151581525050908060050160009054906101000a900473ffffffffffffffffffffffffffffffffffffffff16908060060160009054906101000a900473ffffffffffffffffffffffffffffffffffffffff16908060070154908060080160009054906101000a900460ff16905086565b600080612409836118d8565b905060016002811115612445577f4e487b7100000000000000000000000000000000000000000000000000000000600052602160045260246000fd5b8160a001516002811115612482577f4e487b7100000000000000000000000000000000000000000000000000000000600052602160045260246000fd5b14806125025750600060028111156124c3577f4e487b7100000000000000000000000000000000000000000000000000000000600052602160045260246000fd5b8160a001516002811115612500577f4e487b7100000000000000000000000000000000000000000000000000000000600052602160045260246000fd5b145b61250b57600080fd5b6001915050919050565b6000600160008473ffffffffffffffffffffffffffffffffffffffff1673ffffffffffffffffffffffffffffffffffffffff16815260200190815260200160002060008373ffffffffffffffffffffffffffffffffffffffff1673ffffffffffffffffffffffffffffffffffffffff16815260200190815260200160002054905092915050565b6125a46135a7565b600d60008373ffffffffffffffffffffffffffffffffffffffff1673ffffffffffffffffffffffffffffffffffffffff16815260200190815260200160002060008481526020019081526020016000206040518060c00160405290816000820154815260200160018201604051806080016040529081600082015481526020016001820154815260200160028201805461263d9061480b565b80601f01602080910402602001604051908101604052809291908181526020018280546126699061480b565b80156126b65780601f1061268b576101008083540402835291602001916126b6565b820191906000526020600020905b81548152906001019060200180831161269957829003601f168201915b505050505081526020016003820160009054906101000a900460ff16151515158152505081526020016005820160009054906101000a900473ffffffffffffffffffffffffffffffffffffffff1673ffffffffffffffffffffffffffffffffffffffff1673ffffffffffffffffffffffffffffffffffffffff1681526020016006820160009054906101000a900473ffffffffffffffffffffffffffffffffffffffff1673ffffffffffffffffffffffffffffffffffffffff1673ffffffffffffffffffffffffffffffffffffffff168152602001600782015481526020016008820160009054906101000a900460ff1660028111156127df577f4e487b7100000000000000000000000000000000000000000000000000000000600052602160045260246000fd5b6002811115612817577f4e487b7100000000000000000000000000000000000000000000000000000000600052602160045260246000fd5b81525050905092915050565b600c6020528160005260406000206020528060005260406000206000915091505080600001549080600101604051806080016040529081600082015481526020016001820154815260200160028201805461287d9061480b565b80601f01602080910402602001604051908101604052809291908181526020018280546128a99061480b565b80156128f65780601f106128cb576101008083540402835291602001916128f6565b820191906000526020600020905b8154815290600101906020018083116128d957829003601f168201915b505050505081526020016003820160009054906101000a900460ff161515151581525050908060050160009054906101000a900473ffffffffffffffffffffffffffffffffffffffff16908060060160009054906101000a900473ffffffffffffffffffffffffffffffffffffffff16908060070154908060080160009054906101000a900460ff16905086565b60008173ffffffffffffffffffffffffffffffffffffffff163373ffffffffffffffffffffffffffffffffffffffff1614156129f5576040517f08c379a00000000000000000000000000000000000000000000000000000000081526004016129ec906143e6565b60405180910390fd5b6000600860008681526020019081526020016000206040518060800160405290816000820154815260200160018201548152602001600282018054612a399061480b565b80601f0160208091040260200160405190810160405280929190818152602001828054612a659061480b565b8015612ab25780601f10612a8757610100808354040283529160200191612ab2565b820191906000526020600020905b815481529060010190602001808311612a9557829003601f168201915b505050505081526020016003820160009054906101000a900460ff16151515158152505090506000816000015111612b1f576040517f08c379a0000000000000000000000000000000000000000000000000000000008152600401612b16906142c6565b60405180910390fd5b60076000815480929190612b329061483d565b919050555060006040518060c0016040528060075481526020018381526020013373ffffffffffffffffffffffffffffffffffffffff1681526020018573ffffffffffffffffffffffffffffffffffffffff16815260200186815260200160006002811115612bca577f4e487b7100000000000000000000000000000000000000000000000000000000600052602160045260246000fd5b815250905080600b600060075481526020019081526020016000206000820151816000015560208201518160010160008201518160000155602082015181600101556040820151816002019080519060200190612c28929190613521565b5060608201518160030160006101000a81548160ff021916908315150217905550505060408201518160050160006101000a81548173ffffffffffffffffffffffffffffffffffffffff021916908373ffffffffffffffffffffffffffffffffffffffff16021790555060608201518160060160006101000a81548173ffffffffffffffffffffffffffffffffffffffff021916908373ffffffffffffffffffffffffffffffffffffffff1602179055506080820151816007015560a08201518160080160006101000a81548160ff02191690836002811115612d34577f4e487b7100000000000000000000000000000000000000000000000000000000600052602160045260246000fd5b021790555090505080600c60003373ffffffffffffffffffffffffffffffffffffffff1673ffffffffffffffffffffffffffffffffffffffff168152602001908152602001600020600060075481526020019081526020016000206000820151816000015560208201518160010160008201518160000155602082015181600101556040820151816002019080519060200190612dd2929190613521565b5060608201518160030160006101000a81548160ff021916908315150217905550505060408201518160050160006101000a81548173ffffffffffffffffffffffffffffffffffffffff021916908373ffffffffffffffffffffffffffffffffffffffff16021790555060608201518160060160006101000a81548173ffffffffffffffffffffffffffffffffffffffff021916908373ffffffffffffffffffffffffffffffffffffffff1602179055506080820151816007015560a08201518160080160006101000a81548160ff02191690836002811115612ede577f4e487b7100000000000000000000000000000000000000000000000000000000600052602160045260246000fd5b021790555090505080600d60008673ffffffffffffffffffffffffffffffffffffffff1673ffffffffffffffffffffffffffffffffffffffff168152602001908152602001600020600060075481526020019081526020016000206000820151816000015560208201518160010160008201518160000155602082015181600101556040820151816002019080519060200190612f7c929190613521565b5060608201518160030160006101000a81548160ff021916908315150217905550505060408201518160050160006101000a81548173ffffffffffffffffffffffffffffffffffffffff021916908373ffffffffffffffffffffffffffffffffffffffff16021790555060608201518160060160006101000a81548173ffffffffffffffffffffffffffffffffffffffff021916908373ffffffffffffffffffffffffffffffffffffffff1602179055506080820151816007015560a08201518160080160006101000a81548160ff02191690836002811115613088577f4e487b7100000000000000000000000000000000000000000000000000000000600052602160045260246000fd5b02179055509050508060a00151925050509392505050565b600033905090565b600073ffffffffffffffffffffffffffffffffffffffff168373ffffffffffffffffffffffffffffffffffffffff161415613118576040517f08c379a000000000000000000000000000000000000000000000000000000000815260040161310f90614406565b60405180910390fd5b600073ffffffffffffffffffffffffffffffffffffffff168273ffffffffffffffffffffffffffffffffffffffff161415613188576040517f08c379a000000000000000000000000000000000000000000000000000000000815260040161317f906142a6565b60405180910390fd5b80600160008573ffffffffffffffffffffffffffffffffffffffff1673ffffffffffffffffffffffffffffffffffffffff16815260200190815260200160002060008473ffffffffffffffffffffffffffffffffffffffff1673ffffffffffffffffffffffffffffffffffffffff168152602001908152602001600020819055508173ffffffffffffffffffffffffffffffffffffffff168373ffffffffffffffffffffffffffffffffffffffff167f8c5be1e5ebec7d5bd14f71427d1e84f3dd0314c0f7b2291e5b200ac8c7c3b9258360405161326691906144ca565b60405180910390a3505050565b600073ffffffffffffffffffffffffffffffffffffffff168373ffffffffffffffffffffffffffffffffffffffff1614156132e3576040517f08c379a00000000000000000000000000000000000000000000000000000000081526004016132da906143c6565b60405180910390fd5b600073ffffffffffffffffffffffffffffffffffffffff168273ffffffffffffffffffffffffffffffffffffffff161415613353576040517f08c379a000000000000000000000000000000000000000000000000000000000815260040161334a90614286565b60405180910390fd5b61335e8383836134f2565b60008060008573ffffffffffffffffffffffffffffffffffffffff1673ffffffffffffffffffffffffffffffffffffffff168152602001908152602001600020549050818110156133e4576040517f08c379a00000000000000000000000000000000000000000000000000000000081526004016133db906142e6565b60405180910390fd5b81816133f0919061471b565b6000808673ffffffffffffffffffffffffffffffffffffffff1673ffffffffffffffffffffffffffffffffffffffff16815260200190815260200160002081905550816000808573ffffffffffffffffffffffffffffffffffffffff1673ffffffffffffffffffffffffffffffffffffffff168152602001908152602001600020600082825461348091906146c5565b925050819055508273ffffffffffffffffffffffffffffffffffffffff168473ffffffffffffffffffffffffffffffffffffffff167fddf252ad1be2c89b69c2b068fc378daa952ba7f163c4a11628f55a4df523b3ef846040516134e491906144ca565b60405180910390a350505050565b505050565b60405180608001604052806000815260200160008152602001606081526020016000151581525090565b82805461352d9061480b565b90600052602060002090601f01602090048101928261354f5760008555613596565b82601f1061356857805160ff1916838001178555613596565b82800160010185558215613596579182015b8281111561359557825182559160200191906001019061357a565b5b5090506135a39190613647565b5090565b6040518060c00160405280600081526020016135c16134f7565b8152602001600073ffffffffffffffffffffffffffffffffffffffff168152602001600073ffffffffffffffffffffffffffffffffffffffff1681526020016000815260200160006002811115613641577f4e487b7100000000000000000000000000000000000000000000000000000000600052602160045260246000fd5b81525090565b5b80821115613660576000816000905550600101613648565b5090565b600061367761367284614668565b614637565b90508281526020810184848401111561368f57600080fd5b61369a8482856147c9565b509392505050565b6000813590506136b181614967565b92915050565b6000813590506136c68161497e565b92915050565b600082601f8301126136dd57600080fd5b81356136ed848260208601613664565b91505092915050565b60008135905061370581614995565b92915050565b60006020828403121561371d57600080fd5b600061372b848285016136a2565b91505092915050565b6000806040838503121561374757600080fd5b6000613755858286016136a2565b9250506020613766858286016136a2565b9150509250929050565b60008060006060848603121561378557600080fd5b6000613793868287016136a2565b93505060206137a4868287016136a2565b92505060406137b5868287016136f6565b9150509250925092565b600080604083850312156137d257600080fd5b60006137e0858286016136a2565b92505060206137f1858286016136f6565b9150509250929050565b60006020828403121561380d57600080fd5b600061381b848285016136f6565b91505092915050565b6000806040838503121561383757600080fd5b6000613845858286016136f6565b9250506020613856858286016136a2565b9150509250929050565b60008060006060848603121561387557600080fd5b6000613883868287016136f6565b935050602084013567ffffffffffffffff8111156138a057600080fd5b6138ac868287016136cc565b92505060406138bd868287016136b7565b9150509250925092565b6000806000606084860312156138dc57600080fd5b60006138ea868287016136f6565b93505060206138fb868287016136f6565b925050604061390c868287016136a2565b9150509250925092565b6000806000806080858703121561392c57600080fd5b600061393a878288016136f6565b945050602061394b878288016136f6565b935050604085013567ffffffffffffffff81111561396857600080fd5b613974878288016136cc565b9250506060613985878288016136b7565b91505092959194509250565b61399a8161474f565b82525050565b6139a98161474f565b82525050565b6139b881614761565b82525050565b6139c781614761565b82525050565b6139d6816147b7565b82525050565b6139e5816147b7565b82525050565b60006139f682614698565b613a0081856146a3565b9350613a108185602086016147d8565b613a1981614942565b840191505092915050565b6000613a2f82614698565b613a3981856146b4565b9350613a498185602086016147d8565b613a5281614942565b840191505092915050565b6000613a6a6023836146b4565b91507f45524332303a207472616e7366657220746f20746865207a65726f206164647260008301527f65737300000000000000000000000000000000000000000000000000000000006020830152604082019050919050565b6000613ad06022836146b4565b91507f45524332303a20617070726f766520746f20746865207a65726f20616464726560008301527f73730000000000000000000000000000000000000000000000000000000000006020830152604082019050919050565b6000613b36602c836146b4565b91507f456c20646f63756d656e746f206e6f2065786973746520656e206e756573747260008301527f6f7320726567697374726f7300000000000000000000000000000000000000006020830152604082019050919050565b6000613b9c6026836146b4565b91507f45524332303a207472616e7366657220616d6f756e742065786365656473206260008301527f616c616e636500000000000000000000000000000000000000000000000000006020830152604082019050919050565b6000613c02603c836146b4565b91507f536f6c6f20656c2064657374696e61746172696f20707565646520416363656460008301527f657220616c207061676f206465206573746520446f63756d656e746f000000006020830152604082019050919050565b6000613c686024836146b4565b91507f456c206e6f6d62726520646562652074656e657220756e206c6172676f206d6960008301527f6e696d6f000000000000000000000000000000000000000000000000000000006020830152604082019050919050565b6000613cce602c836146b4565b91507f456c2064657374696e61746172696f206e6f20636f696e6369646520636f6e2060008301527f656c206465206f726967656e00000000000000000000000000000000000000006020830152604082019050919050565b6000613d34602a836146b4565b91507f46756e63696f6e616c6964616420736f6c6f207065726d69746964612070617260008301527f6120656c206f776e6572000000000000000000000000000000000000000000006020830152604082019050919050565b6000613d9a6031836146b4565b91507f456c206d6f6e746f20656e766961646f206465626520736572206d61796f722060008301527f6f20696775616c20616c2070726563696f0000000000000000000000000000006020830152604082019050919050565b6000613e006028836146b4565b91507f45524332303a207472616e7366657220616d6f756e742065786365656473206160008301527f6c6c6f77616e63650000000000000000000000000000000000000000000000006020830152604082019050919050565b6000613e666025836146b4565b91507f45524332303a207472616e736665722066726f6d20746865207a65726f20616460008301527f64726573730000000000000000000000000000000000000000000000000000006020830152604082019050919050565b6000613ecc6039836146b4565b91507f456c20656d69736f722064656c20646f63756d656e746f20646562652073657260008301527f2064697374696e746f20616c2064657374696e61746172696f000000000000006020830152604082019050919050565b6000613f326024836146b4565b91507f45524332303a20617070726f76652066726f6d20746865207a65726f2061646460008301527f72657373000000000000000000000000000000000000000000000000000000006020830152604082019050919050565b6000613f986012836146b4565b91507f4d6f6e746f20696e737566696369656e746500000000000000000000000000006000830152602082019050919050565b6000613fd86025836146b4565b91507f45524332303a2064656372656173656420616c6c6f77616e63652062656c6f7760008301527f207a65726f0000000000000000000000000000000000000000000000000000006020830152604082019050919050565b600061403e602f836146b4565b91507f536f6c6f20656c2064657374696e61746172696f20707565646520616365707460008301527f617220656c20446f63756d656e746f00000000000000000000000000000000006020830152604082019050919050565b600060c0830160008301516140af60008601826141e6565b50602083015184820360208601526140c78282614120565b91505060408301516140dc6040860182613991565b5060608301516140ef6060860182613991565b50608083015161410260808601826141e6565b5060a083015161411560a08601826139cd565b508091505092915050565b600060808301600083015161413860008601826141e6565b50602083015161414b60208601826141e6565b506040830151848203604086015261416382826139eb565b915050606083015161417860608601826139af565b508091505092915050565b600060808301600083015161419b60008601826141e6565b5060208301516141ae60208601826141e6565b50604083015184820360408601526141c682826139eb565b91505060608301516141db60608601826139af565b508091505092915050565b6141ef816147a0565b82525050565b6141fe816147a0565b82525050565b61420d816147aa565b82525050565b600060208201905061422860008301846139a0565b92915050565b600060208201905061424360008301846139be565b92915050565b600060208201905061425e60008301846139dc565b92915050565b6000602082019050818103600083015261427e8184613a24565b905092915050565b6000602082019050818103600083015261429f81613a5d565b9050919050565b600060208201905081810360008301526142bf81613ac3565b9050919050565b600060208201905081810360008301526142df81613b29565b9050919050565b600060208201905081810360008301526142ff81613b8f565b9050919050565b6000602082019050818103600083015261431f81613bf5565b9050919050565b6000602082019050818103600083015261433f81613c5b565b9050919050565b6000602082019050818103600083015261435f81613cc1565b9050919050565b6000602082019050818103600083015261437f81613d27565b9050919050565b6000602082019050818103600083015261439f81613d8d565b9050919050565b600060208201905081810360008301526143bf81613df3565b9050919050565b600060208201905081810360008301526143df81613e59565b9050919050565b600060208201905081810360008301526143ff81613ebf565b9050919050565b6000602082019050818103600083015261441f81613f25565b9050919050565b6000602082019050818103600083015261443f81613f8b565b9050919050565b6000602082019050818103600083015261445f81613fcb565b9050919050565b6000602082019050818103600083015261447f81614031565b9050919050565b600060208201905081810360008301526144a08184614097565b905092915050565b600060208201905081810360008301526144c28184614183565b905092915050565b60006020820190506144df60008301846141f5565b92915050565b60006040820190506144fa60008301856141f5565b61450760208301846139a0565b9392505050565b600060c08201905061452360008301896141f5565b81810360208301526145358188614183565b905061454460408301876139a0565b61455160608301866139a0565b61455e60808301856141f5565b61456b60a08301846139dc565b979650505050505050565b600060808201905061458b60008301876141f5565b61459860208301866141f5565b81810360408301526145aa8185613a24565b90506145b960608301846139be565b95945050505050565b600060a0820190506145d760008301886141f5565b6145e460208301876141f5565b81810360408301526145f68186613a24565b905061460560608301856139be565b61461260808301846139a0565b9695505050505050565b60006020820190506146316000830184614204565b92915050565b6000604051905081810181811067ffffffffffffffff8211171561465e5761465d614913565b5b8060405250919050565b600067ffffffffffffffff82111561468357614682614913565b5b601f19601f8301169050602081019050919050565b600081519050919050565b600082825260208201905092915050565b600082825260208201905092915050565b60006146d0826147a0565b91506146db836147a0565b9250827fffffffffffffffffffffffffffffffffffffffffffffffffffffffffffffffff038211156147105761470f614886565b5b828201905092915050565b6000614726826147a0565b9150614731836147a0565b92508282101561474457614743614886565b5b828203905092915050565b600061475a82614780565b9050919050565b60008115159050919050565b600081905061477b82614953565b919050565b600073ffffffffffffffffffffffffffffffffffffffff82169050919050565b6000819050919050565b600060ff82169050919050565b60006147c28261476d565b9050919050565b82818337600083830152505050565b60005b838110156147f65780820151818401526020810190506147db565b83811115614805576000848401525b50505050565b6000600282049050600182168061482357607f821691505b60208210811415614837576148366148e4565b5b50919050565b6000614848826147a0565b91507fffffffffffffffffffffffffffffffffffffffffffffffffffffffffffffffff82141561487b5761487a614886565b5b600182019050919050565b7f4e487b7100000000000000000000000000000000000000000000000000000000600052601160045260246000fd5b7f4e487b7100000000000000000000000000000000000000000000000000000000600052602160045260246000fd5b7f4e487b7100000000000000000000000000000000000000000000000000000000600052602260045260246000fd5b7f4e487b7100000000000000000000000000000000000000000000000000000000600052604160045260246000fd5b6000601f19601f8301169050919050565b60038110614964576149636148b5565b5b50565b6149708161474f565b811461497b57600080fd5b50565b61498781614761565b811461499257600080fd5b50565b61499e816147a0565b81146149a957600080fd5b5056fea2646970667358221220c15833b5bb8c86d09660c4bcedb6c327e2beae1afc7c3fb321aa812bc0a93a0d64736f6c63430008000033",
  "immutableReferences": {},
  "source": "// SPDX-License-Identifier: MIT\r\npragma solidity ^0.8.0;\r\n\r\nimport \"./CLPToken.sol\";\r\n\r\ncontract Notaria is CLPToken() {\r\n    address private owner;\r\n    uint public documentsCount = 0;\r\n    uint public documentosNotariaCount = 0;\r\n    enum EstadoDocumentoNotaria{ ABIERTO, ACEPTADO, FINALIZADO }\r\n\r\n    struct Documento{ \r\n        uint id;\r\n        uint precio;\r\n        string nombre;\r\n        bool estado;\r\n    }\r\n\r\n    struct DocumentoNotaria{\r\n        uint id;\r\n        Documento documento;\r\n        address owner;\r\n        address destinatario;\r\n        uint precio;\r\n        EstadoDocumentoNotaria estado;\r\n    }\r\n\r\n    mapping(uint => Documento) public documentos;\r\n    mapping(address => mapping(uint => Documento)) public documentosCliente;\r\n    mapping(address => uint) public totalDocumentosCliente;\r\n    \r\n    mapping(uint => DocumentoNotaria) public documentosNotaria;\r\n    mapping(address => mapping(uint => DocumentoNotaria)) public documentosNotariaEmisor;\r\n    mapping(address => mapping(uint => DocumentoNotaria)) public documentosNotariaDestinatario;\r\n    \r\n    event DocumentoAdded(uint id, uint precio, string nombre, bool estado, address owner);\r\n    event DocumentoNotariaAdded(uint id, Documento documento, string nombre,  address owner, uint precio);\r\n    event DocumentoComprado(uint id, address owner);\r\n    \r\n    constructor() {\r\n        owner = msg.sender;\r\n    }\r\n\r\n    function AddDocumento(uint _precio, string memory _nombre, bool _estado) public payable{\r\n        require(msg.sender == owner, \"Funcionalidad solo permitida para el owner\");\r\n        require(bytes(_nombre).length > 0, \"El nombre debe tener un largo minimo\");\r\n        documentsCount++;\r\n        documentos[documentsCount] = Documento(documentsCount, _precio,_nombre,_estado);       \r\n        \r\n        emit DocumentoAdded(documentsCount,_precio, _nombre, _estado, msg.sender);\r\n    }\r\n    \r\n    function AddDocumentoNotaria(uint _idDocumento, uint _precio, address _destinatario) public payable returns(EstadoDocumentoNotaria){\r\n        require(msg.sender != _destinatario, \"El emisor del documento debe ser distinto al destinatario\");\r\n        Documento memory doc = documentos[_idDocumento];\r\n        require(doc.id > 0, \"El documento no existe en nuestros registros\");\r\n        documentosNotariaCount++;\r\n        DocumentoNotaria memory docNotaria = DocumentoNotaria(documentosNotariaCount, doc, msg.sender, _destinatario, _precio, EstadoDocumentoNotaria.ABIERTO);\r\n        documentosNotaria[documentosNotariaCount] = docNotaria;\r\n        documentosNotariaEmisor[msg.sender][documentosNotariaCount] = docNotaria;\r\n        documentosNotariaDestinatario[_destinatario][documentosNotariaCount] = docNotaria;        \r\n        return docNotaria.estado;\r\n    }\r\n    \r\n    function AceptaDocumentoNotaria(uint _idDocumento) public payable returns (bool){\r\n        require(msg.value > 1 ether, \"Monto insuficiente\");\r\n        DocumentoNotaria memory _docNotaria = GetDocumentoNotaria(_idDocumento);\r\n        require(_docNotaria.estado == EstadoDocumentoNotaria.ABIERTO);\r\n        require(_docNotaria.destinatario == msg.sender, \"Solo el destinatario puede aceptar el Documento\");\r\n        \r\n        documentosNotaria[_idDocumento].estado = EstadoDocumentoNotaria.ACEPTADO;\r\n        \r\n        documentosNotariaDestinatario[msg.sender][_idDocumento].estado = EstadoDocumentoNotaria.ACEPTADO;\r\n        \r\n        require(documentosNotariaEmisor[_docNotaria.owner][_idDocumento].destinatario == _docNotaria.destinatario, \"El destinatario no coincide con el de origen\");\r\n        documentosNotariaEmisor[_docNotaria.owner][_idDocumento].estado = EstadoDocumentoNotaria.ACEPTADO;\r\n        \r\n        return true;\r\n    }\r\n    \r\n    function FinalizaDocumentoNotaria(uint _idDocumento) public payable returns (bool){\r\n        require(msg.value > 1 ether, \"Monto insuficiente\");\r\n        DocumentoNotaria memory _docNotaria = GetDocumentoNotaria(_idDocumento);\r\n        require(_docNotaria.estado == EstadoDocumentoNotaria.ACEPTADO);\r\n        require(_docNotaria.destinatario == msg.sender, \"Solo el destinatario puede Acceder al pago de este Documento\");\r\n        \r\n        require(msg.value >= _docNotaria.precio, \"El monto enviado debe ser mayor o igual al precio\");\r\n        documentosNotaria[_idDocumento].estado = EstadoDocumentoNotaria.FINALIZADO;\r\n        documentosNotariaDestinatario[msg.sender][_idDocumento].estado = EstadoDocumentoNotaria.FINALIZADO;\r\n        require(documentosNotariaEmisor[_docNotaria.owner][_idDocumento].destinatario == _docNotaria.destinatario, \"El destinatario no coincide con el de origen\");\r\n        \r\n        documentosNotariaEmisor[_docNotaria.owner][_idDocumento].estado = EstadoDocumentoNotaria.FINALIZADO;\r\n        payable(_docNotaria.owner).transfer(msg.value);\r\n        return true;\r\n    }\r\n    \r\n    function RechazaDocumentoNotaria(uint _idDocumento) public payable returns (bool){\r\n        DocumentoNotaria memory _docNotaria = GetDocumentoNotaria(_idDocumento);\r\n        require(_docNotaria.estado == EstadoDocumentoNotaria.ACEPTADO || _docNotaria.estado == EstadoDocumentoNotaria.ABIERTO);\r\n        return true;\r\n    }\r\n    \r\n    /*\r\n    function CancelaDocumentoNotaria(uint _idDocumento) public payable returns (bool){\r\n        require(msg.value > 1 ether, \"Monto insuficiente\");\r\n        Documento memory doc = GetDocumento(_idDocumento);\r\n        return true;\r\n    }\r\n    */\r\n    \r\n    function GetDocumento(uint _idDocumento) public view returns(Documento memory doc){\r\n        doc = documentos[_idDocumento];\r\n        return doc;\r\n    }\r\n    \r\n    function GetDocumentoNotaria(uint _idDocumento) public view returns(DocumentoNotaria memory doc){\r\n        doc = documentosNotaria[_idDocumento];\r\n        return doc;\r\n    }\r\n    \r\n    function GetDocumentoNotariaEmisor(uint _idDocumento, address _direccion) public view returns(DocumentoNotaria memory doc){\r\n        doc = documentosNotariaEmisor[_direccion][_idDocumento];\r\n        return doc;\r\n    }\r\n    \r\n    function GetDocumentoNotariaReceptor(uint _idDocumento, address _direccion) public view returns(DocumentoNotaria memory doc){\r\n        doc = documentosNotariaDestinatario[_direccion][_idDocumento];\r\n        return doc;\r\n    }\r\n\r\n    function AddDocumentoCliente(uint _id, uint _precio, string memory _nombre, bool _estado) public {\r\n        documentosCliente[msg.sender][_id] = Documento(_id, _precio, _nombre, _estado);\r\n    }\r\n\r\n    function compraDocumento(uint _id) external payable {\r\n        Documento memory _documento = documentos[_id];\r\n        // Valida que el Documento tenga un ID mayor que 0\r\n        require(_documento.id > 0);\r\n        // Requiere que haya suficiente ETH en la transaccion\r\n        require(msg.value >= _documento.precio);\r\n        //Transfiere el precio del Documento\r\n        payable((msg.sender)).transfer(msg.value);\r\n        //Suma 1 al mapping de Documentos x Cliente\r\n        totalDocumentosCliente[msg.sender]++;\r\n        //Agrega el documento comprado al mapping de Documentos Comprados x Cliente\r\n        AddDocumentoCliente(_documento.id, _documento.precio, _documento.nombre, _documento.estado);\r\n        // Dispara el evento\r\n        emit DocumentoComprado(_id, msg.sender);\r\n    }  \r\n    \r\n    function GetOwner() public view returns (address){\r\n        return owner;\r\n    }\r\n\r\n    modifier isOwner(){\r\n        require(msg.sender == owner);\r\n        _;\r\n    } \r\n\r\n    receive() external payable {} \r\n}",
  "sourcePath": "D:/Curso Solidity Avanzado BlockChain Academy/proyecto-react/contracts/Notaria.sol",
  "compiler": {
    "name": "solc",
    "version": "0.8.0+commit.c7dfd78e.Emscripten.clang"
  },
  "schemaVersion": "3.3.4",
  "updatedAt": "2021-06-26T19:35:36.233Z",
  "networkType": "ethereum",
  "devdoc": {
    "kind": "dev",
    "methods": {
      "allowance(address,address)": {
        "details": "See {IERC20-allowance}."
      },
      "approve(address,uint256)": {
        "details": "See {IERC20-approve}. Requirements: - `spender` cannot be the zero address."
      },
      "balanceOf(address)": {
        "details": "See {IERC20-balanceOf}."
      },
      "decimals()": {
        "details": "Returns the number of decimals used to get its user representation. For example, if `decimals` equals `2`, a balance of `505` tokens should be displayed to a user as `5,05` (`505 / 10 ** 2`). Tokens usually opt for a value of 18, imitating the relationship between Ether and Wei. This is the value {ERC20} uses, unless this function is overridden; NOTE: This information is only used for _display_ purposes: it in no way affects any of the arithmetic of the contract, including {IERC20-balanceOf} and {IERC20-transfer}."
      },
      "decreaseAllowance(address,uint256)": {
        "details": "Atomically decreases the allowance granted to `spender` by the caller. This is an alternative to {approve} that can be used as a mitigation for problems described in {IERC20-approve}. Emits an {Approval} event indicating the updated allowance. Requirements: - `spender` cannot be the zero address. - `spender` must have allowance for the caller of at least `subtractedValue`."
      },
      "increaseAllowance(address,uint256)": {
        "details": "Atomically increases the allowance granted to `spender` by the caller. This is an alternative to {approve} that can be used as a mitigation for problems described in {IERC20-approve}. Emits an {Approval} event indicating the updated allowance. Requirements: - `spender` cannot be the zero address."
      },
      "name()": {
        "details": "Returns the name of the token."
      },
      "symbol()": {
        "details": "Returns the symbol of the token, usually a shorter version of the name."
      },
      "totalSupply()": {
        "details": "See {IERC20-totalSupply}."
      },
      "transfer(address,uint256)": {
        "details": "See {IERC20-transfer}. Requirements: - `recipient` cannot be the zero address. - the caller must have a balance of at least `amount`."
      },
      "transferFrom(address,address,uint256)": {
        "details": "See {IERC20-transferFrom}. Emits an {Approval} event indicating the updated allowance. This is not required by the EIP. See the note at the beginning of {ERC20}. Requirements: - `sender` and `recipient` cannot be the zero address. - `sender` must have a balance of at least `amount`. - the caller must have allowance for ``sender``'s tokens of at least `amount`."
      }
    },
    "version": 1
  },
  "userdoc": {
    "kind": "user",
    "methods": {},
    "version": 1
  }
}