{
  "contractName": "Notaria",
  "abi": [
    {
      "inputs": [],
      "stateMutability": "nonpayable",
      "type": "constructor"
    },
    {
      "anonymous": false,
      "inputs": [
        {
          "indexed": false,
          "internalType": "uint256",
          "name": "id",
          "type": "uint256"
        },
        {
          "indexed": false,
          "internalType": "uint256",
          "name": "precio",
          "type": "uint256"
        },
        {
          "indexed": false,
          "internalType": "string",
          "name": "nombre",
          "type": "string"
        },
        {
          "indexed": false,
          "internalType": "bool",
          "name": "estado",
          "type": "bool"
        },
        {
          "indexed": false,
          "internalType": "address",
          "name": "owner",
          "type": "address"
        }
      ],
      "name": "DocumentoAdded",
      "type": "event"
    },
    {
      "anonymous": false,
      "inputs": [
        {
          "indexed": false,
          "internalType": "uint256",
          "name": "id",
          "type": "uint256"
        },
        {
          "indexed": false,
          "internalType": "address",
          "name": "owner",
          "type": "address"
        }
      ],
      "name": "DocumentoComprado",
      "type": "event"
    },
    {
      "inputs": [
        {
          "internalType": "uint256",
          "name": "",
          "type": "uint256"
        }
      ],
      "name": "documentos",
      "outputs": [
        {
          "internalType": "uint256",
          "name": "id",
          "type": "uint256"
        },
        {
          "internalType": "uint256",
          "name": "precio",
          "type": "uint256"
        },
        {
          "internalType": "string",
          "name": "nombre",
          "type": "string"
        },
        {
          "internalType": "bool",
          "name": "estado",
          "type": "bool"
        }
      ],
      "stateMutability": "view",
      "type": "function",
      "constant": true
    },
    {
      "inputs": [
        {
          "internalType": "address",
          "name": "",
          "type": "address"
        },
        {
          "internalType": "uint256",
          "name": "",
          "type": "uint256"
        }
      ],
      "name": "documentosCliente",
      "outputs": [
        {
          "internalType": "uint256",
          "name": "id",
          "type": "uint256"
        },
        {
          "internalType": "uint256",
          "name": "precio",
          "type": "uint256"
        },
        {
          "internalType": "string",
          "name": "nombre",
          "type": "string"
        },
        {
          "internalType": "bool",
          "name": "estado",
          "type": "bool"
        }
      ],
      "stateMutability": "view",
      "type": "function",
      "constant": true
    },
    {
      "inputs": [],
      "name": "documentsCount",
      "outputs": [
        {
          "internalType": "uint256",
          "name": "",
          "type": "uint256"
        }
      ],
      "stateMutability": "view",
      "type": "function",
      "constant": true
    },
    {
      "inputs": [],
      "name": "owner",
      "outputs": [
        {
          "internalType": "address",
          "name": "",
          "type": "address"
        }
      ],
      "stateMutability": "view",
      "type": "function",
      "constant": true
    },
    {
      "inputs": [
        {
          "internalType": "address",
          "name": "",
          "type": "address"
        }
      ],
      "name": "totalDocumentosCliente",
      "outputs": [
        {
          "internalType": "uint256",
          "name": "",
          "type": "uint256"
        }
      ],
      "stateMutability": "view",
      "type": "function",
      "constant": true
    },
    {
      "inputs": [
        {
          "internalType": "uint256",
          "name": "_precio",
          "type": "uint256"
        },
        {
          "internalType": "string",
          "name": "_nombre",
          "type": "string"
        },
        {
          "internalType": "bool",
          "name": "_estado",
          "type": "bool"
        }
      ],
      "name": "AddDocumento",
      "outputs": [],
      "stateMutability": "payable",
      "type": "function",
      "payable": true
    },
    {
      "inputs": [
        {
          "internalType": "uint256",
          "name": "_id",
          "type": "uint256"
        },
        {
          "internalType": "uint256",
          "name": "_precio",
          "type": "uint256"
        },
        {
          "internalType": "string",
          "name": "_nombre",
          "type": "string"
        },
        {
          "internalType": "bool",
          "name": "_estado",
          "type": "bool"
        }
      ],
      "name": "AddDocumentoCliente",
      "outputs": [],
      "stateMutability": "nonpayable",
      "type": "function"
    },
    {
      "inputs": [
        {
          "internalType": "uint256",
          "name": "_id",
          "type": "uint256"
        }
      ],
      "name": "compraDocumento",
      "outputs": [],
      "stateMutability": "payable",
      "type": "function",
      "payable": true
    }
  ],
  "bytecode": "0x60806040526001805534801561001457600080fd5b50336000806101000a81548173ffffffffffffffffffffffffffffffffffffffff021916908373ffffffffffffffffffffffffffffffffffffffff160217905550610e4e806100646000396000f3fe60806040526004361061007b5760003560e01c80638da5cb5b1161004e5780638da5cb5b1461011e57806395e52d9814610149578063bb674f2014610174578063c260dcb1146101b45761007b565b80632c62c7be14610080578063317eaf071461009c5780634300b318146100d95780635b24f8f7146100f5575b600080fd5b61009a60048036038101906100959190610966565b6101f4565b005b3480156100a857600080fd5b506100c360048036038101906100be91906108d8565b6102ee565b6040516100d09190610ac9565b60405180910390f35b6100f360048036038101906100ee919061093d565b610306565b005b34801561010157600080fd5b5061011c600480360381019061011791906109cd565b610500565b005b34801561012a57600080fd5b506101336105cd565b6040516101409190610aae565b60405180910390f35b34801561015557600080fd5b5061015e6105f1565b60405161016b9190610ac9565b60405180910390f35b34801561018057600080fd5b5061019b6004803603810190610196919061093d565b6105f7565b6040516101ab9493929190610b0d565b60405180910390f35b3480156101c057600080fd5b506101db60048036038101906101d69190610901565b6106bc565b6040516101eb9493929190610b0d565b60405180910390f35b600082511161020257600080fd5b604051806080016040528060015481526020018481526020018381526020018215158152506002600060015481526020019081526020016000206000820151816000015560208201518160010155604082015181600201908051906020019061026c92919061078e565b5060608201518160030160006101000a81548160ff021916908315150217905550905050600160008154809291906102a390610cec565b91905055507f5d11aed1842005d2aad4bd5cd443eb580b0abd53c28f7b77bfeef1b321ee594e600154848484336040516102e1959493929190610b59565b60405180910390a1505050565b60046020528060005260406000206000915090505481565b600060026000838152602001908152602001600020604051806080016040529081600082015481526020016001820154815260200160028201805461034a90610cba565b80601f016020809104026020016040519081016040528092919081815260200182805461037690610cba565b80156103c35780601f10610398576101008083540402835291602001916103c3565b820191906000526020600020905b8154815290600101906020018083116103a657829003601f168201915b505050505081526020016003820160009054906101000a900460ff161515151581525050905060008160000151116103fa57600080fd5b806020015134101561040b57600080fd5b3373ffffffffffffffffffffffffffffffffffffffff166108fc349081150290604051600060405180830381858888f19350505050158015610451573d6000803e3d6000fd5b50600460003373ffffffffffffffffffffffffffffffffffffffff1673ffffffffffffffffffffffffffffffffffffffff16815260200190815260200160002060008154809291906104a290610cec565b91905055506104c38160000151826020015183604001518460600151610500565b7ffd0d7173d6997326474ab81608a90978f07bc4a25fe07069ea6934b7782b763682336040516104f4929190610ae4565b60405180910390a15050565b6040518060800160405280858152602001848152602001838152602001821515815250600360003373ffffffffffffffffffffffffffffffffffffffff1673ffffffffffffffffffffffffffffffffffffffff1681526020019081526020016000206000868152602001908152602001600020600082015181600001556020820151816001015560408201518160020190805190602001906105a392919061078e565b5060608201518160030160006101000a81548160ff02191690831515021790555090505050505050565b60008054906101000a900473ffffffffffffffffffffffffffffffffffffffff1681565b60015481565b600260205280600052604060002060009150905080600001549080600101549080600201805461062690610cba565b80601f016020809104026020016040519081016040528092919081815260200182805461065290610cba565b801561069f5780601f106106745761010080835404028352916020019161069f565b820191906000526020600020905b81548152906001019060200180831161068257829003601f168201915b5050505050908060030160009054906101000a900460ff16905084565b6003602052816000526040600020602052806000526040600020600091509150508060000154908060010154908060020180546106f890610cba565b80601f016020809104026020016040519081016040528092919081815260200182805461072490610cba565b80156107715780601f1061074657610100808354040283529160200191610771565b820191906000526020600020905b81548152906001019060200180831161075457829003601f168201915b5050505050908060030160009054906101000a900460ff16905084565b82805461079a90610cba565b90600052602060002090601f0160209004810192826107bc5760008555610803565b82601f106107d557805160ff1916838001178555610803565b82800160010185558215610803579182015b828111156108025782518255916020019190600101906107e7565b5b5090506108109190610814565b5090565b5b8082111561082d576000816000905550600101610815565b5090565b600061084461083f84610be4565b610bb3565b90508281526020810184848401111561085c57600080fd5b610867848285610c78565b509392505050565b60008135905061087e81610dd3565b92915050565b60008135905061089381610dea565b92915050565b600082601f8301126108aa57600080fd5b81356108ba848260208601610831565b91505092915050565b6000813590506108d281610e01565b92915050565b6000602082840312156108ea57600080fd5b60006108f88482850161086f565b91505092915050565b6000806040838503121561091457600080fd5b60006109228582860161086f565b9250506020610933858286016108c3565b9150509250929050565b60006020828403121561094f57600080fd5b600061095d848285016108c3565b91505092915050565b60008060006060848603121561097b57600080fd5b6000610989868287016108c3565b935050602084013567ffffffffffffffff8111156109a657600080fd5b6109b286828701610899565b92505060406109c386828701610884565b9150509250925092565b600080600080608085870312156109e357600080fd5b60006109f1878288016108c3565b9450506020610a02878288016108c3565b935050604085013567ffffffffffffffff811115610a1f57600080fd5b610a2b87828801610899565b9250506060610a3c87828801610884565b91505092959194509250565b610a5181610c30565b82525050565b610a6081610c42565b82525050565b6000610a7182610c14565b610a7b8185610c1f565b9350610a8b818560208601610c87565b610a9481610dc2565b840191505092915050565b610aa881610c6e565b82525050565b6000602082019050610ac36000830184610a48565b92915050565b6000602082019050610ade6000830184610a9f565b92915050565b6000604082019050610af96000830185610a9f565b610b066020830184610a48565b9392505050565b6000608082019050610b226000830187610a9f565b610b2f6020830186610a9f565b8181036040830152610b418185610a66565b9050610b506060830184610a57565b95945050505050565b600060a082019050610b6e6000830188610a9f565b610b7b6020830187610a9f565b8181036040830152610b8d8186610a66565b9050610b9c6060830185610a57565b610ba96080830184610a48565b9695505050505050565b6000604051905081810181811067ffffffffffffffff82111715610bda57610bd9610d93565b5b8060405250919050565b600067ffffffffffffffff821115610bff57610bfe610d93565b5b601f19601f8301169050602081019050919050565b600081519050919050565b600082825260208201905092915050565b6000610c3b82610c4e565b9050919050565b60008115159050919050565b600073ffffffffffffffffffffffffffffffffffffffff82169050919050565b6000819050919050565b82818337600083830152505050565b60005b83811015610ca5578082015181840152602081019050610c8a565b83811115610cb4576000848401525b50505050565b60006002820490506001821680610cd257607f821691505b60208210811415610ce657610ce5610d64565b5b50919050565b6000610cf782610c6e565b91507fffffffffffffffffffffffffffffffffffffffffffffffffffffffffffffffff821415610d2a57610d29610d35565b5b600182019050919050565b7f4e487b7100000000000000000000000000000000000000000000000000000000600052601160045260246000fd5b7f4e487b7100000000000000000000000000000000000000000000000000000000600052602260045260246000fd5b7f4e487b7100000000000000000000000000000000000000000000000000000000600052604160045260246000fd5b6000601f19601f8301169050919050565b610ddc81610c30565b8114610de757600080fd5b50565b610df381610c42565b8114610dfe57600080fd5b50565b610e0a81610c6e565b8114610e1557600080fd5b5056fea26469706673582212200010ac60b6ca8c2f2e958c5ef6cdc0311723ac257fcf7d4a1c5e1f60ec623d0064736f6c63430008000033",
  "immutableReferences": {},
  "source": "// SPDX-License-Identifier: MIT\r\npragma solidity ^0.8.0;\r\n\r\ncontract Notaria{\r\n    address public owner;\r\n    uint public documentsCount = 1;\r\n\r\n    struct Documento{\r\n        uint id;\r\n        uint precio;\r\n        string nombre;\r\n        bool estado;\r\n    }\r\n\r\n    mapping(uint => Documento) public documentos;\r\n    mapping(address => mapping(uint => Documento)) public documentosCliente;\r\n    mapping(address => uint) public totalDocumentosCliente;\r\n\r\n    event DocumentoAdded(uint id, uint precio, string nombre, bool estado, address owner);\r\n    event DocumentoComprado(uint id, address owner);\r\n    \r\n    constructor() {\r\n        owner = msg.sender;\r\n    }\r\n\r\n    /*\r\n    function GetDocumentosCliente(address _address, uint _id) public view returns(Documento[] memory){\r\n        Documento[] memory docs = new Documento[](_id);\r\n\r\n\r\n        require(totalDocumentosCliente[_address] > 0);\r\n\r\n        for(uint i = 0; i < totalDocumentosCliente[_address]; i++){\r\n            docs[i] = documentosCliente[_address][i];\r\n        }\r\n\r\n        return docs;\r\n    }\r\n    */\r\n\r\n    function AddDocumento(uint _precio, string memory _nombre, bool _estado) public payable{\r\n        require(bytes(_nombre).length > 0);\r\n        documentos[documentsCount] = Documento(documentsCount, _precio,_nombre,_estado);\r\n        documentsCount++;\r\n        \r\n        emit DocumentoAdded(documentsCount,_precio, _nombre, _estado, msg.sender);\r\n    }\r\n    \r\n    function AddDocumentoCliente(uint _id, uint _precio, string memory _nombre, bool _estado) public {\r\n        documentosCliente[msg.sender][_id] = Documento(_id, _precio, _nombre, _estado);\r\n    }\r\n\r\n    function compraDocumento(uint _id) external payable {\r\n        Documento memory _documento = documentos[_id];\r\n        // Valida que el Documento tenga un ID mayor que 0\r\n        require(_documento.id > 0);\r\n        // Requiere que haya suficiente ETH en la transaccion\r\n        require(msg.value >= _documento.precio);\r\n        //Transfiere el precio del Documento\r\n        payable((msg.sender)).transfer(msg.value);\r\n        //Suma 1 al mapping de Documentos x Cliente\r\n        totalDocumentosCliente[msg.sender]++;\r\n        //Agrega el documento comprado al mapping de Documentos Comprados x Cliente\r\n        AddDocumentoCliente(_documento.id, _documento.precio, _documento.nombre, _documento.estado);\r\n        // Dispara el evento\r\n        emit DocumentoComprado(_id, msg.sender);\r\n    }    \r\n}",
  "sourcePath": "D:/Curso Solidity Avanzado BlockChain Academy/proyecto-react/contracts/Notaria.sol",
  "compiler": {
    "name": "solc",
    "version": "0.8.0+commit.c7dfd78e.Emscripten.clang"
  },
  "schemaVersion": "3.3.4",
  "updatedAt": "2021-05-12T02:26:03.646Z",
  "networkType": "ethereum",
  "devdoc": {
    "kind": "dev",
    "methods": {},
    "version": 1
  },
  "userdoc": {
    "kind": "user",
    "methods": {},
    "version": 1
  }
}