{
  "contractName": "Presupuesto",
  "abi": [
    {
      "inputs": [],
      "stateMutability": "nonpayable",
      "type": "constructor"
    },
    {
      "anonymous": false,
      "inputs": [
        {
          "indexed": false,
          "internalType": "address payable",
          "name": "direccionGobRegional",
          "type": "address"
        },
        {
          "indexed": false,
          "internalType": "string",
          "name": "nombre",
          "type": "string"
        },
        {
          "indexed": false,
          "internalType": "uint256",
          "name": "id",
          "type": "uint256"
        }
      ],
      "name": "RegionCreada",
      "type": "event"
    },
    {
      "inputs": [],
      "name": "RegionCount",
      "outputs": [
        {
          "internalType": "uint256",
          "name": "",
          "type": "uint256"
        }
      ],
      "stateMutability": "view",
      "type": "function",
      "constant": true
    },
    {
      "inputs": [],
      "name": "owner",
      "outputs": [
        {
          "internalType": "address",
          "name": "",
          "type": "address"
        }
      ],
      "stateMutability": "view",
      "type": "function",
      "constant": true
    },
    {
      "inputs": [
        {
          "internalType": "uint256",
          "name": "",
          "type": "uint256"
        }
      ],
      "name": "presupuestos",
      "outputs": [
        {
          "internalType": "uint256",
          "name": "montoAutorizado",
          "type": "uint256"
        },
        {
          "internalType": "uint256",
          "name": "idRegion",
          "type": "uint256"
        }
      ],
      "stateMutability": "view",
      "type": "function",
      "constant": true
    },
    {
      "inputs": [
        {
          "internalType": "uint256",
          "name": "",
          "type": "uint256"
        }
      ],
      "name": "regiones",
      "outputs": [
        {
          "internalType": "address payable",
          "name": "direccionGobRegional",
          "type": "address"
        },
        {
          "internalType": "string",
          "name": "nombre",
          "type": "string"
        },
        {
          "internalType": "uint256",
          "name": "id",
          "type": "uint256"
        }
      ],
      "stateMutability": "view",
      "type": "function",
      "constant": true
    },
    {
      "stateMutability": "payable",
      "type": "receive",
      "payable": true
    },
    {
      "inputs": [
        {
          "internalType": "address payable",
          "name": "_direccion",
          "type": "address"
        },
        {
          "internalType": "string",
          "name": "_nombre",
          "type": "string"
        }
      ],
      "name": "nuevaRegion",
      "outputs": [],
      "stateMutability": "nonpayable",
      "type": "function"
    },
    {
      "inputs": [
        {
          "internalType": "uint256",
          "name": "_idRegion",
          "type": "uint256"
        },
        {
          "internalType": "address payable",
          "name": "_direccion",
          "type": "address"
        }
      ],
      "name": "asignaDireccion",
      "outputs": [],
      "stateMutability": "payable",
      "type": "function",
      "payable": true
    },
    {
      "inputs": [
        {
          "internalType": "uint256",
          "name": "idGobiernoRegional",
          "type": "uint256"
        }
      ],
      "name": "retiraFondosAsignados",
      "outputs": [
        {
          "internalType": "bool",
          "name": "",
          "type": "bool"
        }
      ],
      "stateMutability": "nonpayable",
      "type": "function"
    }
  ],
  "bytecode": "0x6080604052600060015534801561001557600080fd5b50610a3c806100256000396000f3fe6080604052600436106100745760003560e01c80636c027e9b1161004e5780636c027e9b146101185780638da5cb5b146101415780639eb4d4ed1461016c578063d20749b8146101975761007b565b806317efbf9114610080578063225ac2fd1461009c5780634c3c8f68146100db5761007b565b3661007b57005b600080fd5b61009a6004803603810190610095919061063d565b6101d5565b005b3480156100a857600080fd5b506100c360048036038101906100be9190610614565b610234565b6040516100d293929190610709565b60405180910390f35b3480156100e757600080fd5b5061010260048036038101906100fd9190610614565b610306565b60405161010f9190610747565b60405180910390f35b34801561012457600080fd5b5061013f600480360381019061013a91906105c0565b61030d565b005b34801561014d57600080fd5b5061015661042d565b60405161016391906106ee565b60405180910390f35b34801561017857600080fd5b50610181610451565b60405161018e9190610762565b60405180910390f35b3480156101a357600080fd5b506101be60048036038101906101b99190610614565b610457565b6040516101cc92919061077d565b60405180910390f35b6000600260008481526020019081526020016000209050818160000160006101000a81548173ffffffffffffffffffffffffffffffffffffffff021916908373ffffffffffffffffffffffffffffffffffffffff160217905550505050565b60026020528060005260406000206000915090508060000160009054906101000a900473ffffffffffffffffffffffffffffffffffffffff169080600101805461027d906108bf565b80601f01602080910402602001604051908101604052809291908181526020018280546102a9906108bf565b80156102f65780601f106102cb576101008083540402835291602001916102f6565b820191906000526020600020905b8154815290600101906020018083116102d957829003601f168201915b5050505050908060020154905083565b6000919050565b600081511161031b57600080fd5b6001600081548092919061032e906108f1565b919050555060405180606001604052808373ffffffffffffffffffffffffffffffffffffffff16815260200182815260200160015481525060026000600154815260200190815260200160002060008201518160000160006101000a81548173ffffffffffffffffffffffffffffffffffffffff021916908373ffffffffffffffffffffffffffffffffffffffff16021790555060208201518160010190805190602001906103de92919061048b565b50604082015181600201559050507fc1a118ef047260f86a2639a6cdfdb225e01703fc6a1dab6707b6265b3677ea44828260015460405161042193929190610709565b60405180910390a15050565b60008054906101000a900473ffffffffffffffffffffffffffffffffffffffff1681565b60015481565b6003818154811061046757600080fd5b90600052602060002090600202016000915090508060000154908060010154905082565b828054610497906108bf565b90600052602060002090601f0160209004810192826104b95760008555610500565b82601f106104d257805160ff1916838001178555610500565b82800160010185558215610500579182015b828111156104ff5782518255916020019190600101906104e4565b5b50905061050d9190610511565b5090565b5b8082111561052a576000816000905550600101610512565b5090565b600061054161053c846107d7565b6107a6565b90508281526020810184848401111561055957600080fd5b61056484828561087d565b509392505050565b60008135905061057b816109d8565b92915050565b600082601f83011261059257600080fd5b81356105a284826020860161052e565b91505092915050565b6000813590506105ba816109ef565b92915050565b600080604083850312156105d357600080fd5b60006105e18582860161056c565b925050602083013567ffffffffffffffff8111156105fe57600080fd5b61060a85828601610581565b9150509250929050565b60006020828403121561062657600080fd5b6000610634848285016105ab565b91505092915050565b6000806040838503121561065057600080fd5b600061065e858286016105ab565b925050602061066f8582860161056c565b9150509250929050565b61068281610835565b82525050565b61069181610823565b82525050565b6106a081610847565b82525050565b60006106b182610807565b6106bb8185610812565b93506106cb81856020860161088c565b6106d4816109c7565b840191505092915050565b6106e881610873565b82525050565b60006020820190506107036000830184610688565b92915050565b600060608201905061071e6000830186610679565b818103602083015261073081856106a6565b905061073f60408301846106df565b949350505050565b600060208201905061075c6000830184610697565b92915050565b600060208201905061077760008301846106df565b92915050565b600060408201905061079260008301856106df565b61079f60208301846106df565b9392505050565b6000604051905081810181811067ffffffffffffffff821117156107cd576107cc610998565b5b8060405250919050565b600067ffffffffffffffff8211156107f2576107f1610998565b5b601f19601f8301169050602081019050919050565b600081519050919050565b600082825260208201905092915050565b600061082e82610853565b9050919050565b600061084082610853565b9050919050565b60008115159050919050565b600073ffffffffffffffffffffffffffffffffffffffff82169050919050565b6000819050919050565b82818337600083830152505050565b60005b838110156108aa57808201518184015260208101905061088f565b838111156108b9576000848401525b50505050565b600060028204905060018216806108d757607f821691505b602082108114156108eb576108ea610969565b5b50919050565b60006108fc82610873565b91507fffffffffffffffffffffffffffffffffffffffffffffffffffffffffffffffff82141561092f5761092e61093a565b5b600182019050919050565b7f4e487b7100000000000000000000000000000000000000000000000000000000600052601160045260246000fd5b7f4e487b7100000000000000000000000000000000000000000000000000000000600052602260045260246000fd5b7f4e487b7100000000000000000000000000000000000000000000000000000000600052604160045260246000fd5b6000601f19601f8301169050919050565b6109e181610835565b81146109ec57600080fd5b50565b6109f881610873565b8114610a0357600080fd5b5056fea26469706673582212206df46297dd7de79d8f93dafefe3dfde8e6f0e46594eb2b7247a354e9134ac70764736f6c63430008000033",
  "immutableReferences": {},
  "source": "// SPDX-License-Identifier: MIT\r\npragma solidity ^0.8.0;\r\n\r\ncontract Presupuesto {\r\n\r\n    address public owner;\r\n    uint public RegionCount = 0;\r\n\r\n    \r\n    \r\n    struct PresupuestoMunicipal{\r\n        uint montoAutorizado;\r\n        uint idRegion;\r\n    }\r\n    \r\n    struct Region{\r\n        address payable direccionGobRegional;\r\n        string nombre;\r\n        uint id;\r\n    }\r\n\r\n    mapping(uint => Region) public regiones;\r\n\r\n    event RegionCreada(address payable direccionGobRegional, string nombre, uint id);\r\n        \r\n    PresupuestoMunicipal[] public presupuestos;\r\n    \r\n    constructor()  {\r\n\r\n    }\r\n    \r\n    function nuevaRegion(address payable _direccion, string memory _nombre) public {\r\n        // Require a valid name\r\n        require(bytes(_nombre).length > 0);\r\n        // Require a valid price\r\n        //require(_price > 0);\r\n        // Increment product count\r\n        RegionCount ++;\r\n        // Create the product\r\n        regiones[RegionCount] = Region( _direccion ,_nombre, RegionCount );\r\n        // Trigger an event\r\n        emit RegionCreada(_direccion, _nombre, RegionCount  );\r\n    }\r\n\r\n   \r\n    function asignaDireccion(uint _idRegion, address payable _direccion) public payable{\r\n        Region storage region = regiones[_idRegion];\r\n        region.direccionGobRegional = _direccion;     \r\n    }\r\n    \r\n    function retiraFondosAsignados(uint idGobiernoRegional) public returns (bool){\r\n        /*\r\n        Region memory region = regiones[idGobiernoRegional];\r\n        \r\n        if(region.gobiernoRegional == msg.sender){\r\n            //PresupuestoMunicipal memory presupuesto = presupuestos[idGobiernoRegional];\r\n            \r\n            region.gobiernoRegional.transfer(1 ether); \r\n            return true;\r\n        }\r\n        else\r\n        {\r\n            return false;\r\n        }\r\n        */\r\n        \r\n    }\r\n\r\n    receive() external payable {}    \r\n}",
  "sourcePath": "D:/Curso Solidity Avanzado BlockChain Academy/proyecto-react/contracts/Pressupuesto.sol",
  "compiler": {
    "name": "solc",
    "version": "0.8.0+commit.c7dfd78e.Emscripten.clang"
  },
  "schemaVersion": "3.3.4",
  "updatedAt": "2021-05-12T02:26:02.390Z",
  "networkType": "ethereum",
  "devdoc": {
    "kind": "dev",
    "methods": {},
    "version": 1
  },
  "userdoc": {
    "kind": "user",
    "methods": {},
    "version": 1
  }
}