{
  "contractName": "TokenReceiver",
  "abi": [
    {
      "inputs": [
        {
          "internalType": "contract IERC20",
          "name": "token",
          "type": "address"
        }
      ],
      "stateMutability": "nonpayable",
      "type": "constructor"
    },
    {
      "anonymous": false,
      "inputs": [
        {
          "indexed": false,
          "internalType": "address",
          "name": "recipient",
          "type": "address"
        }
      ],
      "name": "premioTokenDado",
      "type": "event"
    },
    {
      "inputs": [],
      "name": "premioToken",
      "outputs": [],
      "stateMutability": "nonpayable",
      "type": "function"
    }
  ],
  "bytecode": "0x608060405234801561001057600080fd5b5060405161039f38038061039f8339818101604052810190610032919061008d565b806000806101000a81548173ffffffffffffffffffffffffffffffffffffffff021916908373ffffffffffffffffffffffffffffffffffffffff16021790555050610111565b600081519050610087816100fa565b92915050565b60006020828403121561009f57600080fd5b60006100ad84828501610078565b91505092915050565b60006100c1826100da565b9050919050565b60006100d3826100b6565b9050919050565b600073ffffffffffffffffffffffffffffffffffffffff82169050919050565b610103816100c8565b811461010e57600080fd5b50565b61027f806101206000396000f3fe608060405234801561001057600080fd5b506004361061002b5760003560e01c8063843b216614610030575b600080fd5b61003861003a565b005b600033905060008054906101000a900473ffffffffffffffffffffffffffffffffffffffff1673ffffffffffffffffffffffffffffffffffffffff166323b872dd823060016040518463ffffffff1660e01b815260040161009d939291906101a1565b602060405180830381600087803b1580156100b757600080fd5b505af11580156100cb573d6000803e3d6000fd5b505050506040513d601f19601f820116820180604052508101906100ef919061013f565b507f7f1b1d4c13ec5ec7f238dce036cc6fa16068f0b9013ca915898afa496daac0ad8160405161011f9190610186565b60405180910390a150565b60008151905061013981610232565b92915050565b60006020828403121561015157600080fd5b600061015f8482850161012a565b91505092915050565b610171816101d8565b82525050565b61018081610220565b82525050565b600060208201905061019b6000830184610168565b92915050565b60006060820190506101b66000830186610168565b6101c36020830185610168565b6101d06040830184610177565b949350505050565b60006101e3826101f6565b9050919050565b60008115159050919050565b600073ffffffffffffffffffffffffffffffffffffffff82169050919050565b6000819050919050565b600061022b82610216565b9050919050565b61023b816101ea565b811461024657600080fd5b5056fea26469706673582212204a88a65673db8c68e1c6572129a4684c398367295453edd605498e60e0bb3c1f64736f6c63430008000033",
  "immutableReferences": {},
  "source": "// SPDX-License-Identifier: MIT\r\npragma solidity ^0.8.0;\r\n\r\nimport \"../node_modules/@openzeppelin/contracts/token/ERC20/ERC20.sol\";\r\n\r\n/**\r\n * @title TokenReceiver\r\n * @dev Very simple example of a contract receiving ERC20 tokens.\r\n */\r\ncontract TokenReceiver {\r\n\r\n    IERC20 private _token;\r\n    \r\n    event premioTokenDado(address recipient);\r\n\r\n    constructor (IERC20 token)  {\r\n        _token = token;\r\n    }\r\n\r\n    function premioToken() external {\r\n        address from = msg.sender;\r\n        _token.transferFrom(from, address(this), 1);\r\n        emit premioTokenDado(from);\r\n    } \r\n}",
  "sourcePath": "D:/Curso Solidity Avanzado BlockChain Academy/proyecto-react/contracts/TokenReceiver.sol",
  "compiler": {
    "name": "solc",
    "version": "0.8.0+commit.c7dfd78e.Emscripten.clang"
  },
  "schemaVersion": "3.3.4",
  "updatedAt": "2021-07-18T19:54:13.754Z",
  "networkType": "ethereum",
  "devdoc": {
    "details": "Very simple example of a contract receiving ERC20 tokens.",
    "kind": "dev",
    "methods": {},
    "title": "TokenReceiver",
    "version": 1
  },
  "userdoc": {
    "kind": "user",
    "methods": {},
    "version": 1
  }
}