{
  "contractName": "Presupuesto",
  "abi": [
    {
      "inputs": [],
      "stateMutability": "nonpayable",
      "type": "constructor"
    },
    {
      "inputs": [
        {
          "internalType": "uint256",
          "name": "",
          "type": "uint256"
        }
      ],
      "name": "presupuestos",
      "outputs": [
        {
          "internalType": "uint256",
          "name": "montoAutorizado",
          "type": "uint256"
        },
        {
          "internalType": "uint256",
          "name": "idRegion",
          "type": "uint256"
        }
      ],
      "stateMutability": "view",
      "type": "function",
      "constant": true
    },
    {
      "inputs": [
        {
          "internalType": "uint256",
          "name": "",
          "type": "uint256"
        }
      ],
      "name": "regiones",
      "outputs": [
        {
          "internalType": "address payable",
          "name": "gobiernoRegional",
          "type": "address"
        },
        {
          "internalType": "string",
          "name": "nombre",
          "type": "string"
        },
        {
          "internalType": "uint256",
          "name": "id",
          "type": "uint256"
        }
      ],
      "stateMutability": "view",
      "type": "function",
      "constant": true
    },
    {
      "stateMutability": "payable",
      "type": "receive",
      "payable": true
    },
    {
      "inputs": [
        {
          "internalType": "address payable",
          "name": "direccion",
          "type": "address"
        },
        {
          "internalType": "uint256",
          "name": "id",
          "type": "uint256"
        }
      ],
      "name": "asignaDireccion",
      "outputs": [],
      "stateMutability": "nonpayable",
      "type": "function"
    },
    {
      "inputs": [
        {
          "internalType": "uint256",
          "name": "idGobiernoRegional",
          "type": "uint256"
        }
      ],
      "name": "retiraFondosAsignados",
      "outputs": [
        {
          "internalType": "bool",
          "name": "",
          "type": "bool"
        }
      ],
      "stateMutability": "nonpayable",
      "type": "function"
    }
  ],
  "bytecode": "0x608060405234801561001057600080fd5b5060006040518060600160405280600073ffffffffffffffffffffffffffffffffffffffff1681526020016040518060400160405280600781526020017f41746163616d610000000000000000000000000000000000000000000000000081525081526020016000815250908060018154018082558091505060019003906000526020600020906003020160009091909190915060008201518160000160006101000a81548173ffffffffffffffffffffffffffffffffffffffff021916908373ffffffffffffffffffffffffffffffffffffffff160217905550602082015181600101908051906020019061010792919061052a565b5060408201518160020155505060006040518060600160405280600073ffffffffffffffffffffffffffffffffffffffff1681526020016040518060400160405280600881526020017f53616e746961676f00000000000000000000000000000000000000000000000081525081526020016001815250908060018154018082558091505060019003906000526020600020906003020160009091909190915060008201518160000160006101000a81548173ffffffffffffffffffffffffffffffffffffffff021916908373ffffffffffffffffffffffffffffffffffffffff160217905550602082015181600101908051906020019061020a92919061052a565b5060408201518160020155505060006040518060600160405280600073ffffffffffffffffffffffffffffffffffffffff1681526020016040518060400160405280600581526020017f417973656e00000000000000000000000000000000000000000000000000000081525081526020016002815250908060018154018082558091505060019003906000526020600020906003020160009091909190915060008201518160000160006101000a81548173ffffffffffffffffffffffffffffffffffffffff021916908373ffffffffffffffffffffffffffffffffffffffff160217905550602082015181600101908051906020019061030d92919061052a565b5060408201518160020155505060006040518060600160405280600073ffffffffffffffffffffffffffffffffffffffff1681526020016040518060400160405280600881526020017f546172617061636100000000000000000000000000000000000000000000000081525081526020016003815250908060018154018082558091505060019003906000526020600020906003020160009091909190915060008201518160000160006101000a81548173ffffffffffffffffffffffffffffffffffffffff021916908373ffffffffffffffffffffffffffffffffffffffff160217905550602082015181600101908051906020019061041092919061052a565b506040820151816002015550506001604051806040016040528060148152602001600081525090806001815401808255809150506001900390600052602060002090600202016000909190919091506000820151816000015560208201518160010155505060016040518060400160405280601e815260200160018152509080600181540180825580915050600190039060005260206000209060020201600090919091909150600082015181600001556020820151816001015550506001604051806040016040528060288152602001600181525090806001815401808255809150506001900390600052602060002090600202016000909190919091506000820151816000015560208201518160010155505061062e565b828054610536906105cd565b90600052602060002090601f016020900481019282610558576000855561059f565b82601f1061057157805160ff191683800117855561059f565b8280016001018555821561059f579182015b8281111561059e578251825591602001919060010190610583565b5b5090506105ac91906105b0565b5090565b5b808211156105c95760008160009055506001016105b1565b5090565b600060028204905060018216806105e557607f821691505b602082108114156105f9576105f86105ff565b5b50919050565b7f4e487b7100000000000000000000000000000000000000000000000000000000600052602260045260246000fd5b61089b8061063d6000396000f3fe6080604052600436106100435760003560e01c8063225ac2fd1461004f5780634c3c8f681461008e578063bb5dcb19146100cb578063d20749b8146100f45761004a565b3661004a57005b600080fd5b34801561005b57600080fd5b506100766004803603810190610071919061061d565b610132565b604051610085939291906106ac565b60405180910390f35b34801561009a57600080fd5b506100b560048036038101906100b0919061061d565b610214565b6040516100c291906106ea565b60405180910390f35b3480156100d757600080fd5b506100f260048036038101906100ed91906105e1565b6103fe565b005b34801561010057600080fd5b5061011b6004803603810190610116919061061d565b610583565b604051610129929190610705565b60405180910390f35b6000818154811061014257600080fd5b90600052602060002090600302016000915090508060000160009054906101000a900473ffffffffffffffffffffffffffffffffffffffff169080600101805461018b906107c5565b80601f01602080910402602001604051908101604052809291908181526020018280546101b7906107c5565b80156102045780601f106101d957610100808354040283529160200191610204565b820191906000526020600020905b8154815290600101906020018083116101e757829003601f168201915b5050505050908060020154905083565b60008060008381548110610251577f4e487b7100000000000000000000000000000000000000000000000000000000600052603260045260246000fd5b90600052602060002090600302016040518060600160405290816000820160009054906101000a900473ffffffffffffffffffffffffffffffffffffffff1673ffffffffffffffffffffffffffffffffffffffff1673ffffffffffffffffffffffffffffffffffffffff1681526020016001820180546102d0906107c5565b80601f01602080910402602001604051908101604052809291908181526020018280546102fc906107c5565b80156103495780601f1061031e57610100808354040283529160200191610349565b820191906000526020600020905b81548152906001019060200180831161032c57829003601f168201915b5050505050815260200160028201548152505090503373ffffffffffffffffffffffffffffffffffffffff16816000015173ffffffffffffffffffffffffffffffffffffffff1614156103f357806000015173ffffffffffffffffffffffffffffffffffffffff166108fc670de0b6b3a76400009081150290604051600060405180830381858888f193505050501580156103e8573d6000803e3d6000fd5b5060019150506103f9565b60009150505b919050565b6000808281548110610439577f4e487b7100000000000000000000000000000000000000000000000000000000600052603260045260246000fd5b90600052602060002090600302016040518060600160405290816000820160009054906101000a900473ffffffffffffffffffffffffffffffffffffffff1673ffffffffffffffffffffffffffffffffffffffff1673ffffffffffffffffffffffffffffffffffffffff1681526020016001820180546104b8906107c5565b80601f01602080910402602001604051908101604052809291908181526020018280546104e4906107c5565b80156105315780601f1061050657610100808354040283529160200191610531565b820191906000526020600020905b81548152906001019060200180831161051457829003601f168201915b50505050508152602001600282015481525050905082816000019073ffffffffffffffffffffffffffffffffffffffff16908173ffffffffffffffffffffffffffffffffffffffff1681525050505050565b6001818154811061059357600080fd5b90600052602060002090600202016000915090508060000154908060010154905082565b6000813590506105c681610837565b92915050565b6000813590506105db8161084e565b92915050565b600080604083850312156105f457600080fd5b6000610602858286016105b7565b9250506020610613858286016105cc565b9150509250929050565b60006020828403121561062f57600080fd5b600061063d848285016105cc565b91505092915050565b61064f8161074a565b82525050565b61065e8161075c565b82525050565b600061066f8261072e565b6106798185610739565b9350610689818560208601610792565b61069281610826565b840191505092915050565b6106a681610788565b82525050565b60006060820190506106c16000830186610646565b81810360208301526106d38185610664565b90506106e2604083018461069d565b949350505050565b60006020820190506106ff6000830184610655565b92915050565b600060408201905061071a600083018561069d565b610727602083018461069d565b9392505050565b600081519050919050565b600082825260208201905092915050565b600061075582610768565b9050919050565b60008115159050919050565b600073ffffffffffffffffffffffffffffffffffffffff82169050919050565b6000819050919050565b60005b838110156107b0578082015181840152602081019050610795565b838111156107bf576000848401525b50505050565b600060028204905060018216806107dd57607f821691505b602082108114156107f1576107f06107f7565b5b50919050565b7f4e487b7100000000000000000000000000000000000000000000000000000000600052602260045260246000fd5b6000601f19601f8301169050919050565b6108408161074a565b811461084b57600080fd5b50565b61085781610788565b811461086257600080fd5b5056fea2646970667358221220f9fd7d19268904eea5f3d7b1f7313ef8510014466c278efd25754c47087328d464736f6c63430008000033",
  "immutableReferences": {},
  "source": "// This example code is designed to quickly deploy an example contract using Remix.\n\npragma solidity ^0.8.0;\n\ncontract Presupuesto {\n    \n    struct Region{\n        address payable gobiernoRegional;\n        string nombre;\n        uint id;\n    }\n    \n    struct PresupuestoMunicipal{\n        uint montoAutorizado;\n        uint idRegion;\n    }\n    \n    \n    \n    Region[] public regiones;\n    PresupuestoMunicipal[] public presupuestos;\n    \n    constructor()  {\n        regiones.push(Region(payable(address(0)),'Atacama',0));\n        regiones.push(Region(payable(address(0)),'Santiago',1));\n        regiones.push(Region(payable(address(0)),'Aysen',2));\n        regiones.push(Region(payable(address(0)),'Tarapaca',3));\n        \n        presupuestos.push(PresupuestoMunicipal(20,0));\n        presupuestos.push(PresupuestoMunicipal(30,1));\n        presupuestos.push(PresupuestoMunicipal(40,1));\n    }\n    \n    function asignaDireccion(address payable direccion, uint id) public {\n        Region memory region = regiones[id];\n        region.gobiernoRegional = direccion;\n    }\n    \n    function retiraFondosAsignados(uint idGobiernoRegional) public returns (bool){\n        Region memory region = regiones[idGobiernoRegional];\n        \n        if(region.gobiernoRegional == msg.sender){\n            //PresupuestoMunicipal memory presupuesto = presupuestos[idGobiernoRegional];\n            \n            region.gobiernoRegional.transfer(1 ether); \n            return true;\n        }\n        else\n        {\n            return false;\n        }\n        \n    }\n    \n    receive() external payable {}\n    \n}",
  "sourcePath": "/Users/gilbertsahumada/Documents/proyecto-certificacion/contracts/Presupuesto.sol",
  "compiler": {
    "name": "solc",
    "version": "0.8.0+commit.c7dfd78e.Emscripten.clang"
  },
  "schemaVersion": "3.3.4",
  "updatedAt": "2021-04-28T23:49:23.641Z",
  "networkType": "ethereum",
  "devdoc": {
    "kind": "dev",
    "methods": {},
    "version": 1
  },
  "userdoc": {
    "kind": "user",
    "methods": {},
    "version": 1
  }
}